{
  "_format": "hh-sol-artifact-1",
  "contractName": "EpicGame",
  "sourceName": "contracts/EpicGame.sol",
  "abi": [
    {
      "inputs": [
        {
          "internalType": "string[]",
          "name": "characterNames",
          "type": "string[]"
        },
        {
          "internalType": "string[]",
          "name": "characterImageURIs",
          "type": "string[]"
        },
        {
          "internalType": "uint256[]",
          "name": "characterHp",
          "type": "uint256[]"
        },
        {
          "internalType": "uint256[]",
          "name": "characterAttackDmg",
          "type": "uint256[]"
        },
        {
          "internalType": "string",
          "name": "bossName",
          "type": "string"
        },
        {
          "internalType": "string",
          "name": "bossImageURI",
          "type": "string"
        },
        {
          "internalType": "uint256",
          "name": "bossHp",
          "type": "uint256"
        },
        {
          "internalType": "uint256",
          "name": "bossAttackDamage",
          "type": "uint256"
        }
      ],
      "stateMutability": "nonpayable",
      "type": "constructor"
    },
    {
      "anonymous": false,
      "inputs": [
        {
          "indexed": true,
          "internalType": "address",
          "name": "owner",
          "type": "address"
        },
        {
          "indexed": true,
          "internalType": "address",
          "name": "approved",
          "type": "address"
        },
        {
          "indexed": true,
          "internalType": "uint256",
          "name": "tokenId",
          "type": "uint256"
        }
      ],
      "name": "Approval",
      "type": "event"
    },
    {
      "anonymous": false,
      "inputs": [
        {
          "indexed": true,
          "internalType": "address",
          "name": "owner",
          "type": "address"
        },
        {
          "indexed": true,
          "internalType": "address",
          "name": "operator",
          "type": "address"
        },
        {
          "indexed": false,
          "internalType": "bool",
          "name": "approved",
          "type": "bool"
        }
      ],
      "name": "ApprovalForAll",
      "type": "event"
    },
    {
      "anonymous": false,
      "inputs": [
        {
          "indexed": true,
          "internalType": "address",
          "name": "from",
          "type": "address"
        },
        {
          "indexed": true,
          "internalType": "address",
          "name": "to",
          "type": "address"
        },
        {
          "indexed": true,
          "internalType": "uint256",
          "name": "tokenId",
          "type": "uint256"
        }
      ],
      "name": "Transfer",
      "type": "event"
    },
    {
      "inputs": [
        {
          "internalType": "address",
          "name": "to",
          "type": "address"
        },
        {
          "internalType": "uint256",
          "name": "tokenId",
          "type": "uint256"
        }
      ],
      "name": "approve",
      "outputs": [],
      "stateMutability": "nonpayable",
      "type": "function"
    },
    {
      "inputs": [],
      "name": "attackBoss",
      "outputs": [],
      "stateMutability": "nonpayable",
      "type": "function"
    },
    {
      "inputs": [
        {
          "internalType": "address",
          "name": "owner",
          "type": "address"
        }
      ],
      "name": "balanceOf",
      "outputs": [
        {
          "internalType": "uint256",
          "name": "",
          "type": "uint256"
        }
      ],
      "stateMutability": "view",
      "type": "function"
    },
    {
      "inputs": [],
      "name": "bigBoss",
      "outputs": [
        {
          "internalType": "string",
          "name": "name",
          "type": "string"
        },
        {
          "internalType": "string",
          "name": "imageURI",
          "type": "string"
        },
        {
          "internalType": "uint256",
          "name": "hp",
          "type": "uint256"
        },
        {
          "internalType": "uint256",
          "name": "maxHp",
          "type": "uint256"
        },
        {
          "internalType": "uint256",
          "name": "attackDamage",
          "type": "uint256"
        }
      ],
      "stateMutability": "view",
      "type": "function"
    },
    {
      "inputs": [
        {
          "internalType": "uint256",
          "name": "tokenId",
          "type": "uint256"
        }
      ],
      "name": "getApproved",
      "outputs": [
        {
          "internalType": "address",
          "name": "",
          "type": "address"
        }
      ],
      "stateMutability": "view",
      "type": "function"
    },
    {
      "inputs": [
        {
          "internalType": "address",
          "name": "owner",
          "type": "address"
        },
        {
          "internalType": "address",
          "name": "operator",
          "type": "address"
        }
      ],
      "name": "isApprovedForAll",
      "outputs": [
        {
          "internalType": "bool",
          "name": "",
          "type": "bool"
        }
      ],
      "stateMutability": "view",
      "type": "function"
    },
    {
      "inputs": [
        {
          "internalType": "uint256",
          "name": "_characterIndex",
          "type": "uint256"
        }
      ],
      "name": "mintCharacterNFT",
      "outputs": [],
      "stateMutability": "nonpayable",
      "type": "function"
    },
    {
      "inputs": [],
      "name": "name",
      "outputs": [
        {
          "internalType": "string",
          "name": "",
          "type": "string"
        }
      ],
      "stateMutability": "view",
      "type": "function"
    },
    {
      "inputs": [
        {
          "internalType": "uint256",
          "name": "",
          "type": "uint256"
        }
      ],
      "name": "nftHolderAttributes",
      "outputs": [
        {
          "internalType": "uint256",
          "name": "characterIndex",
          "type": "uint256"
        },
        {
          "internalType": "string",
          "name": "name",
          "type": "string"
        },
        {
          "internalType": "string",
          "name": "imageURI",
          "type": "string"
        },
        {
          "internalType": "uint256",
          "name": "hp",
          "type": "uint256"
        },
        {
          "internalType": "uint256",
          "name": "maxHp",
          "type": "uint256"
        },
        {
          "internalType": "uint256",
          "name": "attackDamage",
          "type": "uint256"
        }
      ],
      "stateMutability": "view",
      "type": "function"
    },
    {
      "inputs": [
        {
          "internalType": "address",
          "name": "",
          "type": "address"
        }
      ],
      "name": "nftHolders",
      "outputs": [
        {
          "internalType": "uint256",
          "name": "",
          "type": "uint256"
        }
      ],
      "stateMutability": "view",
      "type": "function"
    },
    {
      "inputs": [
        {
          "internalType": "uint256",
          "name": "tokenId",
          "type": "uint256"
        }
      ],
      "name": "ownerOf",
      "outputs": [
        {
          "internalType": "address",
          "name": "",
          "type": "address"
        }
      ],
      "stateMutability": "view",
      "type": "function"
    },
    {
      "inputs": [
        {
          "internalType": "address",
          "name": "from",
          "type": "address"
        },
        {
          "internalType": "address",
          "name": "to",
          "type": "address"
        },
        {
          "internalType": "uint256",
          "name": "tokenId",
          "type": "uint256"
        }
      ],
      "name": "safeTransferFrom",
      "outputs": [],
      "stateMutability": "nonpayable",
      "type": "function"
    },
    {
      "inputs": [
        {
          "internalType": "address",
          "name": "from",
          "type": "address"
        },
        {
          "internalType": "address",
          "name": "to",
          "type": "address"
        },
        {
          "internalType": "uint256",
          "name": "tokenId",
          "type": "uint256"
        },
        {
          "internalType": "bytes",
          "name": "_data",
          "type": "bytes"
        }
      ],
      "name": "safeTransferFrom",
      "outputs": [],
      "stateMutability": "nonpayable",
      "type": "function"
    },
    {
      "inputs": [
        {
          "internalType": "address",
          "name": "operator",
          "type": "address"
        },
        {
          "internalType": "bool",
          "name": "approved",
          "type": "bool"
        }
      ],
      "name": "setApprovalForAll",
      "outputs": [],
      "stateMutability": "nonpayable",
      "type": "function"
    },
    {
      "inputs": [
        {
          "internalType": "bytes4",
          "name": "interfaceId",
          "type": "bytes4"
        }
      ],
      "name": "supportsInterface",
      "outputs": [
        {
          "internalType": "bool",
          "name": "",
          "type": "bool"
        }
      ],
      "stateMutability": "view",
      "type": "function"
    },
    {
      "inputs": [],
      "name": "symbol",
      "outputs": [
        {
          "internalType": "string",
          "name": "",
          "type": "string"
        }
      ],
      "stateMutability": "view",
      "type": "function"
    },
    {
      "inputs": [
        {
          "internalType": "uint256",
          "name": "_tokenId",
          "type": "uint256"
        }
      ],
      "name": "tokenURI",
      "outputs": [
        {
          "internalType": "string",
          "name": "",
          "type": "string"
        }
      ],
      "stateMutability": "view",
      "type": "function"
    },
    {
      "inputs": [
        {
          "internalType": "address",
          "name": "from",
          "type": "address"
        },
        {
          "internalType": "address",
          "name": "to",
          "type": "address"
        },
        {
          "internalType": "uint256",
          "name": "tokenId",
          "type": "uint256"
        }
      ],
      "name": "transferFrom",
      "outputs": [],
      "stateMutability": "nonpayable",
      "type": "function"
    }
  ],
  "bytecode": "0x60806040523480156200001157600080fd5b5060405162004f2438038062004f24833981810160405281019062000037919062000a85565b6040518060400160405280600881526020017f506f6b656d6f6e730000000000000000000000000000000000000000000000008152506040518060400160405280600781526020017f504f4b454d4f4e000000000000000000000000000000000000000000000000008152508160009080519060200190620000bb929190620007ed565b508060019080519060200190620000d4929190620007ed565b5050506040518060a0016040528085815260200184815260200183815260200183815260200182815250600660008201518160000190805190602001906200011e929190620007ed565b5060208201518160010190805190602001906200013d929190620007ed565b50604082015181600201556060820151816003015560808201518160040155905050620002c06040518060600160405280602a815260200162004efa602a9139600660000180546200018f9062000e08565b80601f0160208091040260200160405190810160405280929190818152602001828054620001bd9062000e08565b80156200020e5780601f10620001e2576101008083540402835291602001916200020e565b820191906000526020600020905b815481529060010190602001808311620001f057829003601f168201915b5050505050600660020154600660010180546200022b9062000e08565b80601f0160208091040260200160405190810160405280929190818152602001828054620002599062000e08565b8015620002aa5780601f106200027e57610100808354040283529160200191620002aa565b820191906000526020600020905b8154815290600101906020018083116200028c57829003601f168201915b50505050506200070260201b620015fe1760201c565b60005b8851811015620006f357600c6040518060c001604052808381526020018b84815181106200031a577f4e487b7100000000000000000000000000000000000000000000000000000000600052603260045260246000fd5b602002602001015181526020018a848151811062000361577f4e487b7100000000000000000000000000000000000000000000000000000000600052603260045260246000fd5b60200260200101518152602001898481518110620003a8577f4e487b7100000000000000000000000000000000000000000000000000000000600052603260045260246000fd5b60200260200101518152602001898481518110620003ef577f4e487b7100000000000000000000000000000000000000000000000000000000600052603260045260246000fd5b6020026020010151815260200188848151811062000436577f4e487b7100000000000000000000000000000000000000000000000000000000600052603260045260246000fd5b6020026020010151815250908060018154018082558091505060019003906000526020600020906006020160009091909190915060008201518160000155602082015181600101908051906020019062000492929190620007ed565b506040820151816002019080519060200190620004b1929190620007ed565b50606082015181600301556080820151816004015560a0820151816005015550506000600c82815481106200050f577f4e487b7100000000000000000000000000000000000000000000000000000000600052603260045260246000fd5b90600052602060002090600602016040518060c001604052908160008201548152602001600182018054620005449062000e08565b80601f0160208091040260200160405190810160405280929190818152602001828054620005729062000e08565b8015620005c35780601f106200059757610100808354040283529160200191620005c3565b820191906000526020600020905b815481529060010190602001808311620005a557829003601f168201915b50505050508152602001600282018054620005de9062000e08565b80601f01602080910402602001604051908101604052809291908181526020018280546200060c9062000e08565b80156200065d5780601f1062000631576101008083540402835291602001916200065d565b820191906000526020600020905b8154815290600101906020018083116200063f57829003601f168201915b5050505050815260200160038201548152602001600482015481526020016005820154815250509050620006c460405180606001604052806025815260200162004ed5602591398260200151836060015184604001516200070260201b620015fe1760201c565b620006db600b620007ae60201b620016a01760201c565b50600181620006eb919062000d6b565b9050620002c3565b50505050505050505062000f2c565b620007a8848484846040516024016200071f949392919062000c30565b6040516020818303038152906040527f8d142cdd000000000000000000000000000000000000000000000000000000007bffffffffffffffffffffffffffffffffffffffffffffffffffffffff19166020820180517bffffffffffffffffffffffffffffffffffffffffffffffffffffffff8381831617835250505050620007c460201b60201c565b50505050565b6001816000016000828254019250508190555050565b60008151905060006a636f6e736f6c652e6c6f679050602083016000808483855afa5050505050565b828054620007fb9062000e08565b90600052602060002090601f0160209004810192826200081f57600085556200086b565b82601f106200083a57805160ff19168380011785556200086b565b828001600101855582156200086b579182015b828111156200086a5782518255916020019190600101906200084d565b5b5090506200087a91906200087e565b5090565b5b80821115620008995760008160009055506001016200087f565b5090565b6000620008b4620008ae8462000cbb565b62000c92565b90508083825260208201905082856020860282011115620008d457600080fd5b60005b858110156200092357815167ffffffffffffffff811115620008f857600080fd5b80860162000907898262000a41565b85526020850194506020840193505050600181019050620008d7565b5050509392505050565b6000620009446200093e8462000cea565b62000c92565b905080838252602082019050828560208602820111156200096457600080fd5b60005b858110156200099857816200097d888262000a6e565b84526020840193506020830192505060018101905062000967565b5050509392505050565b6000620009b9620009b38462000d19565b62000c92565b905082815260208101848484011115620009d257600080fd5b620009df84828562000dd2565b509392505050565b600082601f830112620009f957600080fd5b815162000a0b8482602086016200089d565b91505092915050565b600082601f83011262000a2657600080fd5b815162000a388482602086016200092d565b91505092915050565b600082601f83011262000a5357600080fd5b815162000a65848260208601620009a2565b91505092915050565b60008151905062000a7f8162000f12565b92915050565b600080600080600080600080610100898b03121562000aa357600080fd5b600089015167ffffffffffffffff81111562000abe57600080fd5b62000acc8b828c01620009e7565b985050602089015167ffffffffffffffff81111562000aea57600080fd5b62000af88b828c01620009e7565b975050604089015167ffffffffffffffff81111562000b1657600080fd5b62000b248b828c0162000a14565b965050606089015167ffffffffffffffff81111562000b4257600080fd5b62000b508b828c0162000a14565b955050608089015167ffffffffffffffff81111562000b6e57600080fd5b62000b7c8b828c0162000a41565b94505060a089015167ffffffffffffffff81111562000b9a57600080fd5b62000ba88b828c0162000a41565b93505060c062000bbb8b828c0162000a6e565b92505060e062000bce8b828c0162000a6e565b9150509295985092959890939650565b600062000beb8262000d4f565b62000bf7818562000d5a565b935062000c0981856020860162000dd2565b62000c148162000f01565b840191505092915050565b62000c2a8162000dc8565b82525050565b6000608082019050818103600083015262000c4c818762000bde565b9050818103602083015262000c62818662000bde565b905062000c73604083018562000c1f565b818103606083015262000c87818462000bde565b905095945050505050565b600062000c9e62000cb1565b905062000cac828262000e3e565b919050565b6000604051905090565b600067ffffffffffffffff82111562000cd95762000cd862000ed2565b5b602082029050602081019050919050565b600067ffffffffffffffff82111562000d085762000d0762000ed2565b5b602082029050602081019050919050565b600067ffffffffffffffff82111562000d375762000d3662000ed2565b5b62000d428262000f01565b9050602081019050919050565b600081519050919050565b600082825260208201905092915050565b600062000d788262000dc8565b915062000d858362000dc8565b9250827fffffffffffffffffffffffffffffffffffffffffffffffffffffffffffffffff0382111562000dbd5762000dbc62000e74565b5b828201905092915050565b6000819050919050565b60005b8381101562000df257808201518184015260208101905062000dd5565b8381111562000e02576000848401525b50505050565b6000600282049050600182168062000e2157607f821691505b6020821081141562000e385762000e3762000ea3565b5b50919050565b62000e498262000f01565b810181811067ffffffffffffffff8211171562000e6b5762000e6a62000ed2565b5b80604052505050565b7f4e487b7100000000000000000000000000000000000000000000000000000000600052601160045260246000fd5b7f4e487b7100000000000000000000000000000000000000000000000000000000600052602260045260246000fd5b7f4e487b7100000000000000000000000000000000000000000000000000000000600052604160045260246000fd5b6000601f19601f8301169050919050565b62000f1d8162000dc8565b811462000f2957600080fd5b50565b613f998062000f3c6000396000f3fe608060405234801561001057600080fd5b50600436106101165760003560e01c806395d89b41116100a2578063b88d4fde11610071578063b88d4fde1461030e578063c87b56dd1461032a578063d4f24c5b1461035a578063e985e9c514610364578063f8b81ef71461039457610116565b806395d89b411461027d57806398da4c951461029b578063a22cb465146102d0578063a9c32679146102ec57610116565b806323b872dd116100e957806323b872dd146101b557806342842e0e146101d15780636352211e146101ed57806370a082311461021d5780637df124a11461024d57610116565b806301ffc9a71461011b57806306fdde031461014b578063081812fc14610169578063095ea7b314610199575b600080fd5b61013560048036038101906101309190612a0c565b6103b0565b6040516101429190612faa565b60405180910390f35b610153610492565b6040516101609190612fc5565b60405180910390f35b610183600480360381019061017e9190612a5e565b610524565b6040516101909190612f43565b60405180910390f35b6101b360048036038101906101ae91906129d0565b6105a9565b005b6101cf60048036038101906101ca91906128ca565b6106c1565b005b6101eb60048036038101906101e691906128ca565b610721565b005b61020760048036038101906102029190612a5e565b610741565b6040516102149190612f43565b60405180910390f35b61023760048036038101906102329190612865565b6107f3565b6040516102449190613343565b60405180910390f35b61026760048036038101906102629190612865565b6108ab565b6040516102749190613343565b60405180910390f35b6102856108c3565b6040516102929190612fc5565b60405180910390f35b6102b560048036038101906102b09190612a5e565b610955565b6040516102c79695949392919061335e565b60405180910390f35b6102ea60048036038101906102e59190612994565b610aa1565b005b6102f4610ab7565b604051610305959493929190613094565b60405180910390f35b61032860048036038101906103239190612919565b610beb565b005b610344600480360381019061033f9190612a5e565b610c4d565b6040516103519190612fc5565b60405180910390f35b610362610e68565b005b61037e6004803603810190610379919061288e565b6111b1565b60405161038b9190612faa565b60405180910390f35b6103ae60048036038101906103a99190612a5e565b611245565b005b60007f80ac58cd000000000000000000000000000000000000000000000000000000007bffffffffffffffffffffffffffffffffffffffffffffffffffffffff1916827bffffffffffffffffffffffffffffffffffffffffffffffffffffffff1916148061047b57507f5b5e139f000000000000000000000000000000000000000000000000000000007bffffffffffffffffffffffffffffffffffffffffffffffffffffffff1916827bffffffffffffffffffffffffffffffffffffffffffffffffffffffff1916145b8061048b575061048a826116b6565b5b9050919050565b6060600080546104a190613631565b80601f01602080910402602001604051908101604052809291908181526020018280546104cd90613631565b801561051a5780601f106104ef5761010080835404028352916020019161051a565b820191906000526020600020905b8154815290600101906020018083116104fd57829003601f168201915b5050505050905090565b600061052f82611720565b61056e576040517f08c379a0000000000000000000000000000000000000000000000000000000008152600401610565906132e3565b60405180910390fd5b6004600083815260200190815260200160002060009054906101000a900473ffffffffffffffffffffffffffffffffffffffff169050919050565b60006105b482610741565b90508073ffffffffffffffffffffffffffffffffffffffff168373ffffffffffffffffffffffffffffffffffffffff161415610625576040517f08c379a000000000000000000000000000000000000000000000000000000000815260040161061c90613303565b60405180910390fd5b8073ffffffffffffffffffffffffffffffffffffffff1661064461178c565b73ffffffffffffffffffffffffffffffffffffffff16148061067357506106728161066d61178c565b6111b1565b5b6106b2576040517f08c379a00000000000000000000000000000000000000000000000000000000081526004016106a990613243565b60405180910390fd5b6106bc8383611794565b505050565b6106d26106cc61178c565b8261184d565b610711576040517f08c379a000000000000000000000000000000000000000000000000000000000815260040161070890613323565b60405180910390fd5b61071c83838361192b565b505050565b61073c83838360405180602001604052806000815250610beb565b505050565b6000806002600084815260200190815260200160002060009054906101000a900473ffffffffffffffffffffffffffffffffffffffff169050600073ffffffffffffffffffffffffffffffffffffffff168173ffffffffffffffffffffffffffffffffffffffff1614156107ea576040517f08c379a00000000000000000000000000000000000000000000000000000000081526004016107e190613283565b60405180910390fd5b80915050919050565b60008073ffffffffffffffffffffffffffffffffffffffff168273ffffffffffffffffffffffffffffffffffffffff161415610864576040517f08c379a000000000000000000000000000000000000000000000000000000000815260040161085b90613263565b60405180910390fd5b600360008373ffffffffffffffffffffffffffffffffffffffff1673ffffffffffffffffffffffffffffffffffffffff168152602001908152602001600020549050919050565b600e6020528060005260406000206000915090505481565b6060600180546108d290613631565b80601f01602080910402602001604051908101604052809291908181526020018280546108fe90613631565b801561094b5780601f106109205761010080835404028352916020019161094b565b820191906000526020600020905b81548152906001019060200180831161092e57829003601f168201915b5050505050905090565b600d60205280600052604060002060009150905080600001549080600101805461097e90613631565b80601f01602080910402602001604051908101604052809291908181526020018280546109aa90613631565b80156109f75780601f106109cc576101008083540402835291602001916109f7565b820191906000526020600020905b8154815290600101906020018083116109da57829003601f168201915b505050505090806002018054610a0c90613631565b80601f0160208091040260200160405190810160405280929190818152602001828054610a3890613631565b8015610a855780601f10610a5a57610100808354040283529160200191610a85565b820191906000526020600020905b815481529060010190602001808311610a6857829003601f168201915b5050505050908060030154908060040154908060050154905086565b610ab3610aac61178c565b8383611b92565b5050565b6006806000018054610ac890613631565b80601f0160208091040260200160405190810160405280929190818152602001828054610af490613631565b8015610b415780601f10610b1657610100808354040283529160200191610b41565b820191906000526020600020905b815481529060010190602001808311610b2457829003601f168201915b505050505090806001018054610b5690613631565b80601f0160208091040260200160405190810160405280929190818152602001828054610b8290613631565b8015610bcf5780601f10610ba457610100808354040283529160200191610bcf565b820191906000526020600020905b815481529060010190602001808311610bb257829003601f168201915b5050505050908060020154908060030154908060040154905085565b610bfc610bf661178c565b8361184d565b610c3b576040517f08c379a0000000000000000000000000000000000000000000000000000000008152600401610c3290613323565b60405180910390fd5b610c4784848484611cff565b50505050565b60606000600d60008481526020019081526020016000206040518060c001604052908160008201548152602001600182018054610c8990613631565b80601f0160208091040260200160405190810160405280929190818152602001828054610cb590613631565b8015610d025780601f10610cd757610100808354040283529160200191610d02565b820191906000526020600020905b815481529060010190602001808311610ce557829003601f168201915b50505050508152602001600282018054610d1b90613631565b80601f0160208091040260200160405190810160405280929190818152602001828054610d4790613631565b8015610d945780601f10610d6957610100808354040283529160200191610d94565b820191906000526020600020905b815481529060010190602001808311610d7757829003601f168201915b50505050508152602001600382015481526020016004820154815260200160058201548152505090506000610dcc8260600151611d5b565b90506000610ddd8360800151611d5b565b90506000610dee8460a00151611d5b565b90506000610e348560200151610e0389611d5b565b8760400151878787604051602001610e2096959493929190612e7c565b604051602081830303815290604052611f08565b9050600081604051602001610e499190612f21565b6040516020818303038152906040529050809650505050505050919050565b6000600e60003373ffffffffffffffffffffffffffffffffffffffff1673ffffffffffffffffffffffffffffffffffffffff1681526020019081526020016000205490506000600d60008381526020019081526020016000209050610f7b6040518060600160405280603c8152602001613f28603c9139826001018054610eee90613631565b80601f0160208091040260200160405190810160405280929190818152602001828054610f1a90613631565b8015610f675780601f10610f3c57610100808354040283529160200191610f67565b820191906000526020600020905b815481529060010190602001808311610f4a57829003601f168201915b5050505050836003015484600501546120c6565b6110536040518060400160405280601b81526020017f426f73732025732068617320257320485020616e64202573204144000000000081525060066000018054610fc490613631565b80601f0160208091040260200160405190810160405280929190818152602001828054610ff090613631565b801561103d5780601f106110125761010080835404028352916020019161103d565b820191906000526020600020905b81548152906001019060200180831161102057829003601f168201915b50505050506006600201546006600401546120c6565b600081600301541161109a576040517f08c379a0000000000000000000000000000000000000000000000000000000008152600401611091906132a3565b60405180910390fd5b6000600660020154116110e2576040517f08c379a00000000000000000000000000000000000000000000000000000000081526004016110d9906131a3565b60405180910390fd5b80600501546006600201541015611103576000600660020181905550611122565b80600501546006600201546111189190613547565b6006600201819055505b600660040154816003015410156111425760008160030181905550611160565b60066004015481600301546111579190613547565b81600301819055505b611187604051806060016040528060258152602001613e6d60259139600660020154612168565b6111ad604051806060016040528060288152602001613ed2602891398260030154612168565b5050565b6000600560008473ffffffffffffffffffffffffffffffffffffffff1673ffffffffffffffffffffffffffffffffffffffff16815260200190815260200160002060008373ffffffffffffffffffffffffffffffffffffffff1673ffffffffffffffffffffffffffffffffffffffff16815260200190815260200160002060009054906101000a900460ff16905092915050565b6000611251600b612204565b905061125d3382612212565b6040518060c00160405280838152602001600c84815481106112a8577f4e487b7100000000000000000000000000000000000000000000000000000000600052603260045260246000fd5b906000526020600020906006020160010180546112c490613631565b80601f01602080910402602001604051908101604052809291908181526020018280546112f090613631565b801561133d5780601f106113125761010080835404028352916020019161133d565b820191906000526020600020905b81548152906001019060200180831161132057829003601f168201915b50505050508152602001600c8481548110611381577f4e487b7100000000000000000000000000000000000000000000000000000000600052603260045260246000fd5b9060005260206000209060060201600201805461139d90613631565b80601f01602080910402602001604051908101604052809291908181526020018280546113c990613631565b80156114165780601f106113eb57610100808354040283529160200191611416565b820191906000526020600020905b8154815290600101906020018083116113f957829003601f168201915b50505050508152602001600c848154811061145a577f4e487b7100000000000000000000000000000000000000000000000000000000600052603260045260246000fd5b9060005260206000209060060201600301548152602001600c84815481106114ab577f4e487b7100000000000000000000000000000000000000000000000000000000600052603260045260246000fd5b9060005260206000209060060201600401548152602001600c84815481106114fc577f4e487b7100000000000000000000000000000000000000000000000000000000600052603260045260246000fd5b906000526020600020906006020160050154815250600d600083815260200190815260200160002060008201518160000155602082015181600101908051906020019061154a9291906126f1565b5060408201518160020190805190602001906115679291906126f1565b50606082015181600301556080820151816004015560a082015181600501559050506115ac6040518060600160405280602e8152602001613efa602e91398284612230565b80600e60003373ffffffffffffffffffffffffffffffffffffffff1673ffffffffffffffffffffffffffffffffffffffff168152602001908152602001600020819055506115fa600b6116a0565b5050565b61169a848484846040516024016116189493929190612fe7565b6040516020818303038152906040527f8d142cdd000000000000000000000000000000000000000000000000000000007bffffffffffffffffffffffffffffffffffffffffffffffffffffffff19166020820180517bffffffffffffffffffffffffffffffffffffffffffffffffffffffff83818316178352505050506122cf565b50505050565b6001816000016000828254019250508190555050565b60007f01ffc9a7000000000000000000000000000000000000000000000000000000007bffffffffffffffffffffffffffffffffffffffffffffffffffffffff1916827bffffffffffffffffffffffffffffffffffffffffffffffffffffffff1916149050919050565b60008073ffffffffffffffffffffffffffffffffffffffff166002600084815260200190815260200160002060009054906101000a900473ffffffffffffffffffffffffffffffffffffffff1673ffffffffffffffffffffffffffffffffffffffff1614159050919050565b600033905090565b816004600083815260200190815260200160002060006101000a81548173ffffffffffffffffffffffffffffffffffffffff021916908373ffffffffffffffffffffffffffffffffffffffff160217905550808273ffffffffffffffffffffffffffffffffffffffff1661180783610741565b73ffffffffffffffffffffffffffffffffffffffff167f8c5be1e5ebec7d5bd14f71427d1e84f3dd0314c0f7b2291e5b200ac8c7c3b92560405160405180910390a45050565b600061185882611720565b611897576040517f08c379a000000000000000000000000000000000000000000000000000000000815260040161188e90613223565b60405180910390fd5b60006118a283610741565b90508073ffffffffffffffffffffffffffffffffffffffff168473ffffffffffffffffffffffffffffffffffffffff16148061191157508373ffffffffffffffffffffffffffffffffffffffff166118f984610524565b73ffffffffffffffffffffffffffffffffffffffff16145b80611922575061192181856111b1565b5b91505092915050565b8273ffffffffffffffffffffffffffffffffffffffff1661194b82610741565b73ffffffffffffffffffffffffffffffffffffffff16146119a1576040517f08c379a000000000000000000000000000000000000000000000000000000000815260040161199890613183565b60405180910390fd5b600073ffffffffffffffffffffffffffffffffffffffff168273ffffffffffffffffffffffffffffffffffffffff161415611a11576040517f08c379a0000000000000000000000000000000000000000000000000000000008152600401611a08906131e3565b60405180910390fd5b611a1c8383836122f8565b611a27600082611794565b6001600360008573ffffffffffffffffffffffffffffffffffffffff1673ffffffffffffffffffffffffffffffffffffffff1681526020019081526020016000206000828254611a779190613547565b925050819055506001600360008473ffffffffffffffffffffffffffffffffffffffff1673ffffffffffffffffffffffffffffffffffffffff1681526020019081526020016000206000828254611ace9190613466565b92505081905550816002600083815260200190815260200160002060006101000a81548173ffffffffffffffffffffffffffffffffffffffff021916908373ffffffffffffffffffffffffffffffffffffffff160217905550808273ffffffffffffffffffffffffffffffffffffffff168473ffffffffffffffffffffffffffffffffffffffff167fddf252ad1be2c89b69c2b068fc378daa952ba7f163c4a11628f55a4df523b3ef60405160405180910390a4611b8d8383836122fd565b505050565b8173ffffffffffffffffffffffffffffffffffffffff168373ffffffffffffffffffffffffffffffffffffffff161415611c01576040517f08c379a0000000000000000000000000000000000000000000000000000000008152600401611bf890613203565b60405180910390fd5b80600560008573ffffffffffffffffffffffffffffffffffffffff1673ffffffffffffffffffffffffffffffffffffffff16815260200190815260200160002060008473ffffffffffffffffffffffffffffffffffffffff1673ffffffffffffffffffffffffffffffffffffffff16815260200190815260200160002060006101000a81548160ff0219169083151502179055508173ffffffffffffffffffffffffffffffffffffffff168373ffffffffffffffffffffffffffffffffffffffff167f17307eab39ab6107e8899845ad3d59bd9653f200f220920489ca2b5937696c3183604051611cf29190612faa565b60405180910390a3505050565b611d0a84848461192b565b611d1684848484612302565b611d55576040517f08c379a0000000000000000000000000000000000000000000000000000000008152600401611d4c90613163565b60405180910390fd5b50505050565b60606000821415611da3576040518060400160405280600181526020017f30000000000000000000000000000000000000000000000000000000000000008152509050611f03565b600082905060005b60008214611dd5578080611dbe90613694565b915050600a82611dce91906134bc565b9150611dab565b60008167ffffffffffffffff811115611e17577f4e487b7100000000000000000000000000000000000000000000000000000000600052604160045260246000fd5b6040519080825280601f01601f191660200182016040528015611e495781602001600182028036833780820191505090505b5090505b60008514611efc57600182611e629190613547565b9150600a85611e7191906136dd565b6030611e7d9190613466565b60f81b818381518110611eb9577f4e487b7100000000000000000000000000000000000000000000000000000000600052603260045260246000fd5b60200101907effffffffffffffffffffffffffffffffffffffffffffffffffffffffffffff1916908160001a905350600a85611ef591906134bc565b9450611e4d565b8093505050505b919050565b60606000825190506000811415611f3157604051806020016040528060008152509150506120c1565b60006003600283611f429190613466565b611f4c91906134bc565b6004611f5891906134ed565b90506000602082611f699190613466565b67ffffffffffffffff811115611fa8577f4e487b7100000000000000000000000000000000000000000000000000000000600052604160045260246000fd5b6040519080825280601f01601f191660200182016040528015611fda5781602001600182028036833780820191505090505b5090506000604051806060016040528060408152602001613e92604091399050600181016020830160005b8681101561207e5760038101905062ffffff818a015116603f8160121c168401518060081b905060ff603f83600c1c1686015116810190508060081b905060ff603f8360061c1686015116810190508060081b905060ff603f831686015116810190508060e01b90508084526004840193505050612005565b50600386066001811461209857600281146120a8576120b3565b613d3d60f01b60028303526120b3565b603d60f81b60018303525b508484525050819450505050505b919050565b612162848484846040516024016120e09493929190613041565b6040516020818303038152906040527fd5cf17d0000000000000000000000000000000000000000000000000000000007bffffffffffffffffffffffffffffffffffffffffffffffffffffffff19166020820180517bffffffffffffffffffffffffffffffffffffffffffffffffffffffff83818316178352505050506122cf565b50505050565b612200828260405160240161217e9291906130f5565b6040516020818303038152906040527f9710a9d0000000000000000000000000000000000000000000000000000000007bffffffffffffffffffffffffffffffffffffffffffffffffffffffff19166020820180517bffffffffffffffffffffffffffffffffffffffffffffffffffffffff83818316178352505050506122cf565b5050565b600081600001549050919050565b61222c828260405180602001604052806000815250612499565b5050565b6122ca83838360405160240161224893929190613125565b6040516020818303038152906040527f969cdd03000000000000000000000000000000000000000000000000000000007bffffffffffffffffffffffffffffffffffffffffffffffffffffffff19166020820180517bffffffffffffffffffffffffffffffffffffffffffffffffffffffff83818316178352505050506122cf565b505050565b60008151905060006a636f6e736f6c652e6c6f679050602083016000808483855afa5050505050565b505050565b505050565b60006123238473ffffffffffffffffffffffffffffffffffffffff166124f4565b1561248c578373ffffffffffffffffffffffffffffffffffffffff1663150b7a0261234c61178c565b8786866040518563ffffffff1660e01b815260040161236e9493929190612f5e565b602060405180830381600087803b15801561238857600080fd5b505af19250505080156123b957506040513d601f19601f820116820180604052508101906123b69190612a35565b60015b61243c573d80600081146123e9576040519150601f19603f3d011682016040523d82523d6000602084013e6123ee565b606091505b50600081511415612434576040517f08c379a000000000000000000000000000000000000000000000000000000000815260040161242b90613163565b60405180910390fd5b805181602001fd5b63150b7a0260e01b7bffffffffffffffffffffffffffffffffffffffffffffffffffffffff1916817bffffffffffffffffffffffffffffffffffffffffffffffffffffffff191614915050612491565b600190505b949350505050565b6124a38383612517565b6124b06000848484612302565b6124ef576040517f08c379a00000000000000000000000000000000000000000000000000000000081526004016124e690613163565b60405180910390fd5b505050565b6000808273ffffffffffffffffffffffffffffffffffffffff163b119050919050565b600073ffffffffffffffffffffffffffffffffffffffff168273ffffffffffffffffffffffffffffffffffffffff161415612587576040517f08c379a000000000000000000000000000000000000000000000000000000000815260040161257e906132c3565b60405180910390fd5b61259081611720565b156125d0576040517f08c379a00000000000000000000000000000000000000000000000000000000081526004016125c7906131c3565b60405180910390fd5b6125dc600083836122f8565b6001600360008473ffffffffffffffffffffffffffffffffffffffff1673ffffffffffffffffffffffffffffffffffffffff168152602001908152602001600020600082825461262c9190613466565b92505081905550816002600083815260200190815260200160002060006101000a81548173ffffffffffffffffffffffffffffffffffffffff021916908373ffffffffffffffffffffffffffffffffffffffff160217905550808273ffffffffffffffffffffffffffffffffffffffff16600073ffffffffffffffffffffffffffffffffffffffff167fddf252ad1be2c89b69c2b068fc378daa952ba7f163c4a11628f55a4df523b3ef60405160405180910390a46126ed600083836122fd565b5050565b8280546126fd90613631565b90600052602060002090601f01602090048101928261271f5760008555612766565b82601f1061273857805160ff1916838001178555612766565b82800160010185558215612766579182015b8281111561276557825182559160200191906001019061274a565b5b5090506127739190612777565b5090565b5b80821115612790576000816000905550600101612778565b5090565b60006127a76127a2846133f2565b6133cd565b9050828152602081018484840111156127bf57600080fd5b6127ca8482856135ef565b509392505050565b6000813590506127e181613e10565b92915050565b6000813590506127f681613e27565b92915050565b60008135905061280b81613e3e565b92915050565b60008151905061282081613e3e565b92915050565b600082601f83011261283757600080fd5b8135612847848260208601612794565b91505092915050565b60008135905061285f81613e55565b92915050565b60006020828403121561287757600080fd5b6000612885848285016127d2565b91505092915050565b600080604083850312156128a157600080fd5b60006128af858286016127d2565b92505060206128c0858286016127d2565b9150509250929050565b6000806000606084860312156128df57600080fd5b60006128ed868287016127d2565b93505060206128fe868287016127d2565b925050604061290f86828701612850565b9150509250925092565b6000806000806080858703121561292f57600080fd5b600061293d878288016127d2565b945050602061294e878288016127d2565b935050604061295f87828801612850565b925050606085013567ffffffffffffffff81111561297c57600080fd5b61298887828801612826565b91505092959194509250565b600080604083850312156129a757600080fd5b60006129b5858286016127d2565b92505060206129c6858286016127e7565b9150509250929050565b600080604083850312156129e357600080fd5b60006129f1858286016127d2565b9250506020612a0285828601612850565b9150509250929050565b600060208284031215612a1e57600080fd5b6000612a2c848285016127fc565b91505092915050565b600060208284031215612a4757600080fd5b6000612a5584828501612811565b91505092915050565b600060208284031215612a7057600080fd5b6000612a7e84828501612850565b91505092915050565b612a908161357b565b82525050565b612a9f8161358d565b82525050565b6000612ab082613423565b612aba8185613439565b9350612aca8185602086016135fe565b612ad3816137ca565b840191505092915050565b6000612ae98261342e565b612af3818561344a565b9350612b038185602086016135fe565b612b0c816137ca565b840191505092915050565b6000612b228261342e565b612b2c818561345b565b9350612b3c8185602086016135fe565b80840191505092915050565b6000612b55600b8361345b565b9150612b60826137db565b600b82019050919050565b6000612b7860328361344a565b9150612b8382613804565b604082019050919050565b6000612b9b60258361344a565b9150612ba682613853565b604082019050919050565b6000612bbe60288361344a565b9150612bc9826138a2565b604082019050919050565b6000612be1601c8361344a565b9150612bec826138f1565b602082019050919050565b6000612c04600e8361345b565b9150612c0f8261391a565b600e82019050919050565b6000612c2760248361344a565b9150612c3282613943565b604082019050919050565b6000612c4a60198361344a565b9150612c5582613992565b602082019050919050565b6000612c6d602c8361344a565b9150612c78826139bb565b604082019050919050565b6000612c9060388361344a565b9150612c9b82613a0a565b604082019050919050565b6000612cb3602a8361344a565b9150612cbe82613a59565b604082019050919050565b6000612cd660298361344a565b9150612ce182613aa8565b604082019050919050565b6000612cf960628361345b565b9150612d0482613af7565b606282019050919050565b6000612d1c602d8361344a565b9150612d2782613b92565b604082019050919050565b6000612d3f60048361345b565b9150612d4a82613be1565b600482019050919050565b6000612d6260208361344a565b9150612d6d82613c0a565b602082019050919050565b6000612d85602c8361344a565b9150612d9082613c33565b604082019050919050565b6000612da8600a8361345b565b9150612db382613c82565b600a82019050919050565b6000612dcb60218361344a565b9150612dd682613cab565b604082019050919050565b6000612dee601d8361345b565b9150612df982613cfa565b601d82019050919050565b6000612e1160318361344a565b9150612e1c82613d23565b604082019050919050565b6000612e34603d8361345b565b9150612e3f82613d72565b603d82019050919050565b6000612e57602d8361345b565b9150612e6282613dc1565b602d82019050919050565b612e76816135e5565b82525050565b6000612e8782612d9b565b9150612e938289612b17565b9150612e9e82612b48565b9150612eaa8288612b17565b9150612eb582612cec565b9150612ec18287612b17565b9150612ecc82612e27565b9150612ed88286612b17565b9150612ee382612bf7565b9150612eef8285612b17565b9150612efa82612e4a565b9150612f068284612b17565b9150612f1182612d32565b9150819050979650505050505050565b6000612f2c82612de1565b9150612f388284612b17565b915081905092915050565b6000602082019050612f586000830184612a87565b92915050565b6000608082019050612f736000830187612a87565b612f806020830186612a87565b612f8d6040830185612e6d565b8181036060830152612f9f8184612aa5565b905095945050505050565b6000602082019050612fbf6000830184612a96565b92915050565b60006020820190508181036000830152612fdf8184612ade565b905092915050565b600060808201905081810360008301526130018187612ade565b905081810360208301526130158186612ade565b90506130246040830185612e6d565b81810360608301526130368184612ade565b905095945050505050565b6000608082019050818103600083015261305b8187612ade565b9050818103602083015261306f8186612ade565b905061307e6040830185612e6d565b61308b6060830184612e6d565b95945050505050565b600060a08201905081810360008301526130ae8188612ade565b905081810360208301526130c28187612ade565b90506130d16040830186612e6d565b6130de6060830185612e6d565b6130eb6080830184612e6d565b9695505050505050565b6000604082019050818103600083015261310f8185612ade565b905061311e6020830184612e6d565b9392505050565b6000606082019050818103600083015261313f8186612ade565b905061314e6020830185612e6d565b61315b6040830184612e6d565b949350505050565b6000602082019050818103600083015261317c81612b6b565b9050919050565b6000602082019050818103600083015261319c81612b8e565b9050919050565b600060208201905081810360008301526131bc81612bb1565b9050919050565b600060208201905081810360008301526131dc81612bd4565b9050919050565b600060208201905081810360008301526131fc81612c1a565b9050919050565b6000602082019050818103600083015261321c81612c3d565b9050919050565b6000602082019050818103600083015261323c81612c60565b9050919050565b6000602082019050818103600083015261325c81612c83565b9050919050565b6000602082019050818103600083015261327c81612ca6565b9050919050565b6000602082019050818103600083015261329c81612cc9565b9050919050565b600060208201905081810360008301526132bc81612d0f565b9050919050565b600060208201905081810360008301526132dc81612d55565b9050919050565b600060208201905081810360008301526132fc81612d78565b9050919050565b6000602082019050818103600083015261331c81612dbe565b9050919050565b6000602082019050818103600083015261333c81612e04565b9050919050565b60006020820190506133586000830184612e6d565b92915050565b600060c0820190506133736000830189612e6d565b81810360208301526133858188612ade565b905081810360408301526133998187612ade565b90506133a86060830186612e6d565b6133b56080830185612e6d565b6133c260a0830184612e6d565b979650505050505050565b60006133d76133e8565b90506133e38282613663565b919050565b6000604051905090565b600067ffffffffffffffff82111561340d5761340c61379b565b5b613416826137ca565b9050602081019050919050565b600081519050919050565b600081519050919050565b600082825260208201905092915050565b600082825260208201905092915050565b600081905092915050565b6000613471826135e5565b915061347c836135e5565b9250827fffffffffffffffffffffffffffffffffffffffffffffffffffffffffffffffff038211156134b1576134b061370e565b5b828201905092915050565b60006134c7826135e5565b91506134d2836135e5565b9250826134e2576134e161373d565b5b828204905092915050565b60006134f8826135e5565b9150613503836135e5565b9250817fffffffffffffffffffffffffffffffffffffffffffffffffffffffffffffffff048311821515161561353c5761353b61370e565b5b828202905092915050565b6000613552826135e5565b915061355d836135e5565b9250828210156135705761356f61370e565b5b828203905092915050565b6000613586826135c5565b9050919050565b60008115159050919050565b60007fffffffff0000000000000000000000000000000000000000000000000000000082169050919050565b600073ffffffffffffffffffffffffffffffffffffffff82169050919050565b6000819050919050565b82818337600083830152505050565b60005b8381101561361c578082015181840152602081019050613601565b8381111561362b576000848401525b50505050565b6000600282049050600182168061364957607f821691505b6020821081141561365d5761365c61376c565b5b50919050565b61366c826137ca565b810181811067ffffffffffffffff8211171561368b5761368a61379b565b5b80604052505050565b600061369f826135e5565b91507fffffffffffffffffffffffffffffffffffffffffffffffffffffffffffffffff8214156136d2576136d161370e565b5b600182019050919050565b60006136e8826135e5565b91506136f3836135e5565b9250826137035761370261373d565b5b828206905092915050565b7f4e487b7100000000000000000000000000000000000000000000000000000000600052601160045260246000fd5b7f4e487b7100000000000000000000000000000000000000000000000000000000600052601260045260246000fd5b7f4e487b7100000000000000000000000000000000000000000000000000000000600052602260045260246000fd5b7f4e487b7100000000000000000000000000000000000000000000000000000000600052604160045260246000fd5b6000601f19601f8301169050919050565b7f202d2d204e465420233a20000000000000000000000000000000000000000000600082015250565b7f4552433732313a207472616e7366657220746f206e6f6e20455243373231526560008201527f63656976657220696d706c656d656e7465720000000000000000000000000000602082015250565b7f4552433732313a207472616e736665722066726f6d20696e636f72726563742060008201527f6f776e6572000000000000000000000000000000000000000000000000000000602082015250565b7f4572726f723a20626f7373206d757374206861766520485020746f206174746160008201527f636b20626f73732e000000000000000000000000000000000000000000000000602082015250565b7f4552433732313a20746f6b656e20616c7265616479206d696e74656400000000600082015250565b7f2c20226d61785f76616c7565223a000000000000000000000000000000000000600082015250565b7f4552433732313a207472616e7366657220746f20746865207a65726f2061646460008201527f7265737300000000000000000000000000000000000000000000000000000000602082015250565b7f4552433732313a20617070726f766520746f2063616c6c657200000000000000600082015250565b7f4552433732313a206f70657261746f7220717565727920666f72206e6f6e657860008201527f697374656e7420746f6b656e0000000000000000000000000000000000000000602082015250565b7f4552433732313a20617070726f76652063616c6c6572206973206e6f74206f7760008201527f6e6572206e6f7220617070726f76656420666f7220616c6c0000000000000000602082015250565b7f4552433732313a2062616c616e636520717565727920666f7220746865207a6560008201527f726f206164647265737300000000000000000000000000000000000000000000602082015250565b7f4552433732313a206f776e657220717565727920666f72206e6f6e657869737460008201527f656e7420746f6b656e0000000000000000000000000000000000000000000000602082015250565b7f222c20226465736372697074696f6e223a20225468697320697320616e204e4660008201527f542074686174206c6574732070656f706c6520706c617920696e20746865206760208201527f616d65204d657461766572736520536c6179657221222c2022696d616765223a60408201527f2022000000000000000000000000000000000000000000000000000000000000606082015250565b7f4572726f723a20636861726163746572206d757374206861766520485020746f60008201527f2061747461636b20626f73732e00000000000000000000000000000000000000602082015250565b7f7d205d7d00000000000000000000000000000000000000000000000000000000600082015250565b7f4552433732313a206d696e7420746f20746865207a65726f2061646472657373600082015250565b7f4552433732313a20617070726f76656420717565727920666f72206e6f6e657860008201527f697374656e7420746f6b656e0000000000000000000000000000000000000000602082015250565b7f7b226e616d65223a202200000000000000000000000000000000000000000000600082015250565b7f4552433732313a20617070726f76616c20746f2063757272656e74206f776e6560008201527f7200000000000000000000000000000000000000000000000000000000000000602082015250565b7f646174613a6170706c69636174696f6e2f6a736f6e3b6261736536342c000000600082015250565b7f4552433732313a207472616e736665722063616c6c6572206973206e6f74206f60008201527f776e6572206e6f7220617070726f766564000000000000000000000000000000602082015250565b7f222c202261747472696275746573223a205b207b202274726169745f7479706560008201527f223a20224865616c746820506f696e7473222c202276616c7565223a20000000602082015250565b7f7d2c207b202274726169745f74797065223a202241747461636b2044616d616760008201527f65222c202276616c7565223a2000000000000000000000000000000000000000602082015250565b613e198161357b565b8114613e2457600080fd5b50565b613e308161358d565b8114613e3b57600080fd5b50565b613e4781613599565b8114613e5257600080fd5b50565b613e5e816135e5565b8114613e6957600080fd5b5056fe506c617965722061747461636b656420626f73732e204e657720626f73732068703a2025734142434445464748494a4b4c4d4e4f505152535455565758595a6162636465666768696a6b6c6d6e6f707172737475767778797a303132333435363738392b2f426f73732061747461636b656420706c617965722e204e657720706c617965722068703a2025730a4d696e746564204e465420772f20746f6b656e496420257320616e6420636861726163746572496e6465782025730a506c6179657220772f206368617261637465722025732061626f757420746f2061747461636b2e2048617320257320485020616e64202573204144a264697066735822122053bf1c45b2df8749293630c0eff17783e596e425b1e77123e70e3c8bc439301f64736f6c63430008040033446f6e6520696e697469616c697a696e6720257320772f2048502025732c20696d67202573446f6e6520696e697469616c697a696e6720626f737320257320772f2048502025732c20696d67202573",
  "linkReferences": {},
  "deployedLinkReferences": {}
}