{
  "_format": "hh-sol-artifact-1",
  "contractName": "EpicGame",
  "sourceName": "contracts/EpicGame.sol",
  "abi": [
    {
      "inputs": [
        {
          "internalType": "string[]",
          "name": "characterNames",
          "type": "string[]"
        },
        {
          "internalType": "string[]",
          "name": "characterImageURIs",
          "type": "string[]"
        },
        {
          "internalType": "uint256[]",
          "name": "characterHp",
          "type": "uint256[]"
        },
        {
          "internalType": "uint256[]",
          "name": "characterAttackDmg",
          "type": "uint256[]"
        }
      ],
      "stateMutability": "nonpayable",
      "type": "constructor"
    },
    {
      "anonymous": false,
      "inputs": [
        {
          "indexed": true,
          "internalType": "address",
          "name": "owner",
          "type": "address"
        },
        {
          "indexed": true,
          "internalType": "address",
          "name": "approved",
          "type": "address"
        },
        {
          "indexed": true,
          "internalType": "uint256",
          "name": "tokenId",
          "type": "uint256"
        }
      ],
      "name": "Approval",
      "type": "event"
    },
    {
      "anonymous": false,
      "inputs": [
        {
          "indexed": true,
          "internalType": "address",
          "name": "owner",
          "type": "address"
        },
        {
          "indexed": true,
          "internalType": "address",
          "name": "operator",
          "type": "address"
        },
        {
          "indexed": false,
          "internalType": "bool",
          "name": "approved",
          "type": "bool"
        }
      ],
      "name": "ApprovalForAll",
      "type": "event"
    },
    {
      "anonymous": false,
      "inputs": [
        {
          "indexed": true,
          "internalType": "address",
          "name": "from",
          "type": "address"
        },
        {
          "indexed": true,
          "internalType": "address",
          "name": "to",
          "type": "address"
        },
        {
          "indexed": true,
          "internalType": "uint256",
          "name": "tokenId",
          "type": "uint256"
        }
      ],
      "name": "Transfer",
      "type": "event"
    },
    {
      "inputs": [
        {
          "internalType": "address",
          "name": "to",
          "type": "address"
        },
        {
          "internalType": "uint256",
          "name": "tokenId",
          "type": "uint256"
        }
      ],
      "name": "approve",
      "outputs": [],
      "stateMutability": "nonpayable",
      "type": "function"
    },
    {
      "inputs": [
        {
          "internalType": "address",
          "name": "owner",
          "type": "address"
        }
      ],
      "name": "balanceOf",
      "outputs": [
        {
          "internalType": "uint256",
          "name": "",
          "type": "uint256"
        }
      ],
      "stateMutability": "view",
      "type": "function"
    },
    {
      "inputs": [
        {
          "internalType": "uint256",
          "name": "tokenId",
          "type": "uint256"
        }
      ],
      "name": "getApproved",
      "outputs": [
        {
          "internalType": "address",
          "name": "",
          "type": "address"
        }
      ],
      "stateMutability": "view",
      "type": "function"
    },
    {
      "inputs": [
        {
          "internalType": "address",
          "name": "owner",
          "type": "address"
        },
        {
          "internalType": "address",
          "name": "operator",
          "type": "address"
        }
      ],
      "name": "isApprovedForAll",
      "outputs": [
        {
          "internalType": "bool",
          "name": "",
          "type": "bool"
        }
      ],
      "stateMutability": "view",
      "type": "function"
    },
    {
      "inputs": [
        {
          "internalType": "uint256",
          "name": "_characterIndex",
          "type": "uint256"
        }
      ],
      "name": "mintCharacterNFT",
      "outputs": [],
      "stateMutability": "nonpayable",
      "type": "function"
    },
    {
      "inputs": [],
      "name": "name",
      "outputs": [
        {
          "internalType": "string",
          "name": "",
          "type": "string"
        }
      ],
      "stateMutability": "view",
      "type": "function"
    },
    {
      "inputs": [
        {
          "internalType": "uint256",
          "name": "",
          "type": "uint256"
        }
      ],
      "name": "nftHolderAttributes",
      "outputs": [
        {
          "internalType": "uint256",
          "name": "characterIndex",
          "type": "uint256"
        },
        {
          "internalType": "string",
          "name": "name",
          "type": "string"
        },
        {
          "internalType": "string",
          "name": "imageURI",
          "type": "string"
        },
        {
          "internalType": "uint256",
          "name": "hp",
          "type": "uint256"
        },
        {
          "internalType": "uint256",
          "name": "maxHp",
          "type": "uint256"
        },
        {
          "internalType": "uint256",
          "name": "attackDamage",
          "type": "uint256"
        }
      ],
      "stateMutability": "view",
      "type": "function"
    },
    {
      "inputs": [
        {
          "internalType": "address",
          "name": "",
          "type": "address"
        }
      ],
      "name": "nftHolders",
      "outputs": [
        {
          "internalType": "uint256",
          "name": "",
          "type": "uint256"
        }
      ],
      "stateMutability": "view",
      "type": "function"
    },
    {
      "inputs": [
        {
          "internalType": "uint256",
          "name": "tokenId",
          "type": "uint256"
        }
      ],
      "name": "ownerOf",
      "outputs": [
        {
          "internalType": "address",
          "name": "",
          "type": "address"
        }
      ],
      "stateMutability": "view",
      "type": "function"
    },
    {
      "inputs": [
        {
          "internalType": "address",
          "name": "from",
          "type": "address"
        },
        {
          "internalType": "address",
          "name": "to",
          "type": "address"
        },
        {
          "internalType": "uint256",
          "name": "tokenId",
          "type": "uint256"
        }
      ],
      "name": "safeTransferFrom",
      "outputs": [],
      "stateMutability": "nonpayable",
      "type": "function"
    },
    {
      "inputs": [
        {
          "internalType": "address",
          "name": "from",
          "type": "address"
        },
        {
          "internalType": "address",
          "name": "to",
          "type": "address"
        },
        {
          "internalType": "uint256",
          "name": "tokenId",
          "type": "uint256"
        },
        {
          "internalType": "bytes",
          "name": "_data",
          "type": "bytes"
        }
      ],
      "name": "safeTransferFrom",
      "outputs": [],
      "stateMutability": "nonpayable",
      "type": "function"
    },
    {
      "inputs": [
        {
          "internalType": "address",
          "name": "operator",
          "type": "address"
        },
        {
          "internalType": "bool",
          "name": "approved",
          "type": "bool"
        }
      ],
      "name": "setApprovalForAll",
      "outputs": [],
      "stateMutability": "nonpayable",
      "type": "function"
    },
    {
      "inputs": [
        {
          "internalType": "bytes4",
          "name": "interfaceId",
          "type": "bytes4"
        }
      ],
      "name": "supportsInterface",
      "outputs": [
        {
          "internalType": "bool",
          "name": "",
          "type": "bool"
        }
      ],
      "stateMutability": "view",
      "type": "function"
    },
    {
      "inputs": [],
      "name": "symbol",
      "outputs": [
        {
          "internalType": "string",
          "name": "",
          "type": "string"
        }
      ],
      "stateMutability": "view",
      "type": "function"
    },
    {
      "inputs": [
        {
          "internalType": "uint256",
          "name": "_tokenId",
          "type": "uint256"
        }
      ],
      "name": "tokenURI",
      "outputs": [
        {
          "internalType": "string",
          "name": "",
          "type": "string"
        }
      ],
      "stateMutability": "view",
      "type": "function"
    },
    {
      "inputs": [
        {
          "internalType": "address",
          "name": "from",
          "type": "address"
        },
        {
          "internalType": "address",
          "name": "to",
          "type": "address"
        },
        {
          "internalType": "uint256",
          "name": "tokenId",
          "type": "uint256"
        }
      ],
      "name": "transferFrom",
      "outputs": [],
      "stateMutability": "nonpayable",
      "type": "function"
    }
  ],
  "bytecode": "0x60806040523480156200001157600080fd5b50604051620043f6380380620043f6833981810160405281019062000037919062000898565b6040518060400160405280600881526020017f506f6b656d6f6e730000000000000000000000000000000000000000000000008152506040518060400160405280600781526020017f504f4b454d4f4e000000000000000000000000000000000000000000000000008152508160009080519060200190620000bb92919062000600565b508060019080519060200190620000d492919062000600565b50505060005b84518110156200050a5760076040518060c0016040528083815260200187848151811062000131577f4e487b7100000000000000000000000000000000000000000000000000000000600052603260045260246000fd5b6020026020010151815260200186848151811062000178577f4e487b7100000000000000000000000000000000000000000000000000000000600052603260045260246000fd5b60200260200101518152602001858481518110620001bf577f4e487b7100000000000000000000000000000000000000000000000000000000600052603260045260246000fd5b6020026020010151815260200185848151811062000206577f4e487b7100000000000000000000000000000000000000000000000000000000600052603260045260246000fd5b602002602001015181526020018484815181106200024d577f4e487b7100000000000000000000000000000000000000000000000000000000600052603260045260246000fd5b60200260200101518152509080600181540180825580915050600190039060005260206000209060060201600090919091909150600082015181600001556020820151816001019080519060200190620002a992919062000600565b506040820151816002019080519060200190620002c892919062000600565b50606082015181600301556080820151816004015560a08201518160050155505060006007828154811062000326577f4e487b7100000000000000000000000000000000000000000000000000000000600052603260045260246000fd5b90600052602060002090600602016040518060c0016040529081600082015481526020016001820180546200035b9062000b92565b80601f0160208091040260200160405190810160405280929190818152602001828054620003899062000b92565b8015620003da5780601f10620003ae57610100808354040283529160200191620003da565b820191906000526020600020905b815481529060010190602001808311620003bc57829003601f168201915b50505050508152602001600282018054620003f59062000b92565b80601f0160208091040260200160405190810160405280929190818152602001828054620004239062000b92565b8015620004745780601f10620004485761010080835404028352916020019162000474565b820191906000526020600020905b8154815290600101906020018083116200045657829003601f168201915b5050505050815260200160038201548152602001600482015481526020016005820154815250509050620004db604051806060016040528060258152602001620043d1602591398260200151836060015184604001516200051560201b6200113f1760201c565b620004f26006620005c160201b620011e11760201c565b5060018162000502919062000af5565b9050620000da565b505050505062000cb6565b620005bb84848484604051602401620005329493929190620009ba565b6040516020818303038152906040527f8d142cdd000000000000000000000000000000000000000000000000000000007bffffffffffffffffffffffffffffffffffffffffffffffffffffffff19166020820180517bffffffffffffffffffffffffffffffffffffffffffffffffffffffff8381831617835250505050620005d760201b60201c565b50505050565b6001816000016000828254019250508190555050565b60008151905060006a636f6e736f6c652e6c6f679050602083016000808483855afa5050505050565b8280546200060e9062000b92565b90600052602060002090601f0160209004810192826200063257600085556200067e565b82601f106200064d57805160ff19168380011785556200067e565b828001600101855582156200067e579182015b828111156200067d57825182559160200191906001019062000660565b5b5090506200068d919062000691565b5090565b5b80821115620006ac57600081600090555060010162000692565b5090565b6000620006c7620006c18462000a45565b62000a1c565b90508083825260208201905082856020860282011115620006e757600080fd5b60005b858110156200073657815167ffffffffffffffff8111156200070b57600080fd5b8086016200071a898262000854565b85526020850194506020840193505050600181019050620006ea565b5050509392505050565b600062000757620007518462000a74565b62000a1c565b905080838252602082019050828560208602820111156200077757600080fd5b60005b85811015620007ab578162000790888262000881565b8452602084019350602083019250506001810190506200077a565b5050509392505050565b6000620007cc620007c68462000aa3565b62000a1c565b905082815260208101848484011115620007e557600080fd5b620007f284828562000b5c565b509392505050565b600082601f8301126200080c57600080fd5b81516200081e848260208601620006b0565b91505092915050565b600082601f8301126200083957600080fd5b81516200084b84826020860162000740565b91505092915050565b600082601f8301126200086657600080fd5b815162000878848260208601620007b5565b91505092915050565b600081519050620008928162000c9c565b92915050565b60008060008060808587031215620008af57600080fd5b600085015167ffffffffffffffff811115620008ca57600080fd5b620008d887828801620007fa565b945050602085015167ffffffffffffffff811115620008f657600080fd5b6200090487828801620007fa565b935050604085015167ffffffffffffffff8111156200092257600080fd5b620009308782880162000827565b925050606085015167ffffffffffffffff8111156200094e57600080fd5b6200095c8782880162000827565b91505092959194509250565b6000620009758262000ad9565b62000981818562000ae4565b93506200099381856020860162000b5c565b6200099e8162000c8b565b840191505092915050565b620009b48162000b52565b82525050565b60006080820190508181036000830152620009d6818762000968565b90508181036020830152620009ec818662000968565b9050620009fd6040830185620009a9565b818103606083015262000a11818462000968565b905095945050505050565b600062000a2862000a3b565b905062000a36828262000bc8565b919050565b6000604051905090565b600067ffffffffffffffff82111562000a635762000a6262000c5c565b5b602082029050602081019050919050565b600067ffffffffffffffff82111562000a925762000a9162000c5c565b5b602082029050602081019050919050565b600067ffffffffffffffff82111562000ac15762000ac062000c5c565b5b62000acc8262000c8b565b9050602081019050919050565b600081519050919050565b600082825260208201905092915050565b600062000b028262000b52565b915062000b0f8362000b52565b9250827fffffffffffffffffffffffffffffffffffffffffffffffffffffffffffffffff0382111562000b475762000b4662000bfe565b5b828201905092915050565b6000819050919050565b60005b8381101562000b7c57808201518184015260208101905062000b5f565b8381111562000b8c576000848401525b50505050565b6000600282049050600182168062000bab57607f821691505b6020821081141562000bc25762000bc162000c2d565b5b50919050565b62000bd38262000c8b565b810181811067ffffffffffffffff8211171562000bf55762000bf462000c5c565b5b80604052505050565b7f4e487b7100000000000000000000000000000000000000000000000000000000600052601160045260246000fd5b7f4e487b7100000000000000000000000000000000000000000000000000000000600052602260045260246000fd5b7f4e487b7100000000000000000000000000000000000000000000000000000000600052604160045260246000fd5b6000601f19601f8301169050919050565b62000ca78162000b52565b811462000cb357600080fd5b50565b61370b8062000cc66000396000f3fe608060405234801561001057600080fd5b50600436106101005760003560e01c80637df124a111610097578063b88d4fde11610066578063b88d4fde146102d6578063c87b56dd146102f2578063e985e9c514610322578063f8b81ef71461035257610100565b80637df124a11461023757806395d89b411461026757806398da4c9514610285578063a22cb465146102ba57610100565b806323b872dd116100d357806323b872dd1461019f57806342842e0e146101bb5780636352211e146101d757806370a082311461020757610100565b806301ffc9a71461010557806306fdde0314610135578063081812fc14610153578063095ea7b314610183575b600080fd5b61011f600480360381019061011a919061240f565b61036e565b60405161012c9190612967565b60405180910390f35b61013d610450565b60405161014a9190612982565b60405180910390f35b61016d60048036038101906101689190612461565b6104e2565b60405161017a9190612900565b60405180910390f35b61019d600480360381019061019891906123d3565b610567565b005b6101b960048036038101906101b491906122cd565b61067f565b005b6101d560048036038101906101d091906122cd565b6106df565b005b6101f160048036038101906101ec9190612461565b6106ff565b6040516101fe9190612900565b60405180910390f35b610221600480360381019061021c9190612268565b6107b1565b60405161022e9190612bdc565b60405180910390f35b610251600480360381019061024c9190612268565b610869565b60405161025e9190612bdc565b60405180910390f35b61026f610881565b60405161027c9190612982565b60405180910390f35b61029f600480360381019061029a9190612461565b610913565b6040516102b196959493929190612bf7565b60405180910390f35b6102d460048036038101906102cf9190612397565b610a5f565b005b6102f060048036038101906102eb919061231c565b610a75565b005b61030c60048036038101906103079190612461565b610ad7565b6040516103199190612982565b60405180910390f35b61033c60048036038101906103379190612291565b610cf2565b6040516103499190612967565b60405180910390f35b61036c60048036038101906103679190612461565b610d86565b005b60007f80ac58cd000000000000000000000000000000000000000000000000000000007bffffffffffffffffffffffffffffffffffffffffffffffffffffffff1916827bffffffffffffffffffffffffffffffffffffffffffffffffffffffff1916148061043957507f5b5e139f000000000000000000000000000000000000000000000000000000007bffffffffffffffffffffffffffffffffffffffffffffffffffffffff1916827bffffffffffffffffffffffffffffffffffffffffffffffffffffffff1916145b806104495750610448826111f7565b5b9050919050565b60606000805461045f90612eca565b80601f016020809104026020016040519081016040528092919081815260200182805461048b90612eca565b80156104d85780601f106104ad576101008083540402835291602001916104d8565b820191906000526020600020905b8154815290600101906020018083116104bb57829003601f168201915b5050505050905090565b60006104ed82611261565b61052c576040517f08c379a000000000000000000000000000000000000000000000000000000000815260040161052390612b7c565b60405180910390fd5b6004600083815260200190815260200160002060009054906101000a900473ffffffffffffffffffffffffffffffffffffffff169050919050565b6000610572826106ff565b90508073ffffffffffffffffffffffffffffffffffffffff168373ffffffffffffffffffffffffffffffffffffffff1614156105e3576040517f08c379a00000000000000000000000000000000000000000000000000000000081526004016105da90612b9c565b60405180910390fd5b8073ffffffffffffffffffffffffffffffffffffffff166106026112cd565b73ffffffffffffffffffffffffffffffffffffffff16148061063157506106308161062b6112cd565b610cf2565b5b610670576040517f08c379a000000000000000000000000000000000000000000000000000000000815260040161066790612afc565b60405180910390fd5b61067a83836112d5565b505050565b61069061068a6112cd565b8261138e565b6106cf576040517f08c379a00000000000000000000000000000000000000000000000000000000081526004016106c690612bbc565b60405180910390fd5b6106da83838361146c565b505050565b6106fa83838360405180602001604052806000815250610a75565b505050565b6000806002600084815260200190815260200160002060009054906101000a900473ffffffffffffffffffffffffffffffffffffffff169050600073ffffffffffffffffffffffffffffffffffffffff168173ffffffffffffffffffffffffffffffffffffffff1614156107a8576040517f08c379a000000000000000000000000000000000000000000000000000000000815260040161079f90612b3c565b60405180910390fd5b80915050919050565b60008073ffffffffffffffffffffffffffffffffffffffff168273ffffffffffffffffffffffffffffffffffffffff161415610822576040517f08c379a000000000000000000000000000000000000000000000000000000000815260040161081990612b1c565b60405180910390fd5b600360008373ffffffffffffffffffffffffffffffffffffffff1673ffffffffffffffffffffffffffffffffffffffff168152602001908152602001600020549050919050565b60096020528060005260406000206000915090505481565b60606001805461089090612eca565b80601f01602080910402602001604051908101604052809291908181526020018280546108bc90612eca565b80156109095780601f106108de57610100808354040283529160200191610909565b820191906000526020600020905b8154815290600101906020018083116108ec57829003601f168201915b5050505050905090565b600860205280600052604060002060009150905080600001549080600101805461093c90612eca565b80601f016020809104026020016040519081016040528092919081815260200182805461096890612eca565b80156109b55780601f1061098a576101008083540402835291602001916109b5565b820191906000526020600020905b81548152906001019060200180831161099857829003601f168201915b5050505050908060020180546109ca90612eca565b80601f01602080910402602001604051908101604052809291908181526020018280546109f690612eca565b8015610a435780601f10610a1857610100808354040283529160200191610a43565b820191906000526020600020905b815481529060010190602001808311610a2657829003601f168201915b5050505050908060030154908060040154908060050154905086565b610a71610a6a6112cd565b83836116d3565b5050565b610a86610a806112cd565b8361138e565b610ac5576040517f08c379a0000000000000000000000000000000000000000000000000000000008152600401610abc90612bbc565b60405180910390fd5b610ad184848484611840565b50505050565b60606000600860008481526020019081526020016000206040518060c001604052908160008201548152602001600182018054610b1390612eca565b80601f0160208091040260200160405190810160405280929190818152602001828054610b3f90612eca565b8015610b8c5780601f10610b6157610100808354040283529160200191610b8c565b820191906000526020600020905b815481529060010190602001808311610b6f57829003601f168201915b50505050508152602001600282018054610ba590612eca565b80601f0160208091040260200160405190810160405280929190818152602001828054610bd190612eca565b8015610c1e5780601f10610bf357610100808354040283529160200191610c1e565b820191906000526020600020905b815481529060010190602001808311610c0157829003601f168201915b50505050508152602001600382015481526020016004820154815260200160058201548152505090506000610c56826060015161189c565b90506000610c67836080015161189c565b90506000610c788460a0015161189c565b90506000610cbe8560200151610c8d8961189c565b8760400151878787604051602001610caa96959493929190612839565b604051602081830303815290604052611a49565b9050600081604051602001610cd391906128de565b6040516020818303038152906040529050809650505050505050919050565b6000600560008473ffffffffffffffffffffffffffffffffffffffff1673ffffffffffffffffffffffffffffffffffffffff16815260200190815260200160002060008373ffffffffffffffffffffffffffffffffffffffff1673ffffffffffffffffffffffffffffffffffffffff16815260200190815260200160002060009054906101000a900460ff16905092915050565b6000610d926006611c07565b9050610d9e3382611c15565b6040518060c0016040528083815260200160078481548110610de9577f4e487b7100000000000000000000000000000000000000000000000000000000600052603260045260246000fd5b90600052602060002090600602016001018054610e0590612eca565b80601f0160208091040260200160405190810160405280929190818152602001828054610e3190612eca565b8015610e7e5780601f10610e5357610100808354040283529160200191610e7e565b820191906000526020600020905b815481529060010190602001808311610e6157829003601f168201915b5050505050815260200160078481548110610ec2577f4e487b7100000000000000000000000000000000000000000000000000000000600052603260045260246000fd5b90600052602060002090600602016002018054610ede90612eca565b80601f0160208091040260200160405190810160405280929190818152602001828054610f0a90612eca565b8015610f575780601f10610f2c57610100808354040283529160200191610f57565b820191906000526020600020905b815481529060010190602001808311610f3a57829003601f168201915b5050505050815260200160078481548110610f9b577f4e487b7100000000000000000000000000000000000000000000000000000000600052603260045260246000fd5b906000526020600020906006020160030154815260200160078481548110610fec577f4e487b7100000000000000000000000000000000000000000000000000000000600052603260045260246000fd5b90600052602060002090600602016004015481526020016007848154811061103d577f4e487b7100000000000000000000000000000000000000000000000000000000600052603260045260246000fd5b9060005260206000209060060201600501548152506008600083815260200190815260200160002060008201518160000155602082015181600101908051906020019061108b9291906120f4565b5060408201518160020190805190602001906110a89291906120f4565b50606082015181600301556080820151816004015560a082015181600501559050506110ed6040518060600160405280602e81526020016136a8602e91398284611c33565b80600960003373ffffffffffffffffffffffffffffffffffffffff1673ffffffffffffffffffffffffffffffffffffffff1681526020019081526020016000208190555061113b60066111e1565b5050565b6111db8484848460405160240161115994939291906129a4565b6040516020818303038152906040527f8d142cdd000000000000000000000000000000000000000000000000000000007bffffffffffffffffffffffffffffffffffffffffffffffffffffffff19166020820180517bffffffffffffffffffffffffffffffffffffffffffffffffffffffff8381831617835250505050611cd2565b50505050565b6001816000016000828254019250508190555050565b60007f01ffc9a7000000000000000000000000000000000000000000000000000000007bffffffffffffffffffffffffffffffffffffffffffffffffffffffff1916827bffffffffffffffffffffffffffffffffffffffffffffffffffffffff1916149050919050565b60008073ffffffffffffffffffffffffffffffffffffffff166002600084815260200190815260200160002060009054906101000a900473ffffffffffffffffffffffffffffffffffffffff1673ffffffffffffffffffffffffffffffffffffffff1614159050919050565b600033905090565b816004600083815260200190815260200160002060006101000a81548173ffffffffffffffffffffffffffffffffffffffff021916908373ffffffffffffffffffffffffffffffffffffffff160217905550808273ffffffffffffffffffffffffffffffffffffffff16611348836106ff565b73ffffffffffffffffffffffffffffffffffffffff167f8c5be1e5ebec7d5bd14f71427d1e84f3dd0314c0f7b2291e5b200ac8c7c3b92560405160405180910390a45050565b600061139982611261565b6113d8576040517f08c379a00000000000000000000000000000000000000000000000000000000081526004016113cf90612adc565b60405180910390fd5b60006113e3836106ff565b90508073ffffffffffffffffffffffffffffffffffffffff168473ffffffffffffffffffffffffffffffffffffffff16148061145257508373ffffffffffffffffffffffffffffffffffffffff1661143a846104e2565b73ffffffffffffffffffffffffffffffffffffffff16145b8061146357506114628185610cf2565b5b91505092915050565b8273ffffffffffffffffffffffffffffffffffffffff1661148c826106ff565b73ffffffffffffffffffffffffffffffffffffffff16146114e2576040517f08c379a00000000000000000000000000000000000000000000000000000000081526004016114d990612a5c565b60405180910390fd5b600073ffffffffffffffffffffffffffffffffffffffff168273ffffffffffffffffffffffffffffffffffffffff161415611552576040517f08c379a000000000000000000000000000000000000000000000000000000000815260040161154990612a9c565b60405180910390fd5b61155d838383611cfb565b6115686000826112d5565b6001600360008573ffffffffffffffffffffffffffffffffffffffff1673ffffffffffffffffffffffffffffffffffffffff16815260200190815260200160002060008282546115b89190612de0565b925050819055506001600360008473ffffffffffffffffffffffffffffffffffffffff1673ffffffffffffffffffffffffffffffffffffffff168152602001908152602001600020600082825461160f9190612cff565b92505081905550816002600083815260200190815260200160002060006101000a81548173ffffffffffffffffffffffffffffffffffffffff021916908373ffffffffffffffffffffffffffffffffffffffff160217905550808273ffffffffffffffffffffffffffffffffffffffff168473ffffffffffffffffffffffffffffffffffffffff167fddf252ad1be2c89b69c2b068fc378daa952ba7f163c4a11628f55a4df523b3ef60405160405180910390a46116ce838383611d00565b505050565b8173ffffffffffffffffffffffffffffffffffffffff168373ffffffffffffffffffffffffffffffffffffffff161415611742576040517f08c379a000000000000000000000000000000000000000000000000000000000815260040161173990612abc565b60405180910390fd5b80600560008573ffffffffffffffffffffffffffffffffffffffff1673ffffffffffffffffffffffffffffffffffffffff16815260200190815260200160002060008473ffffffffffffffffffffffffffffffffffffffff1673ffffffffffffffffffffffffffffffffffffffff16815260200190815260200160002060006101000a81548160ff0219169083151502179055508173ffffffffffffffffffffffffffffffffffffffff168373ffffffffffffffffffffffffffffffffffffffff167f17307eab39ab6107e8899845ad3d59bd9653f200f220920489ca2b5937696c31836040516118339190612967565b60405180910390a3505050565b61184b84848461146c565b61185784848484611d05565b611896576040517f08c379a000000000000000000000000000000000000000000000000000000000815260040161188d90612a3c565b60405180910390fd5b50505050565b606060008214156118e4576040518060400160405280600181526020017f30000000000000000000000000000000000000000000000000000000000000008152509050611a44565b600082905060005b600082146119165780806118ff90612f2d565b915050600a8261190f9190612d55565b91506118ec565b60008167ffffffffffffffff811115611958577f4e487b7100000000000000000000000000000000000000000000000000000000600052604160045260246000fd5b6040519080825280601f01601f19166020018201604052801561198a5781602001600182028036833780820191505090505b5090505b60008514611a3d576001826119a39190612de0565b9150600a856119b29190612f76565b60306119be9190612cff565b60f81b8183815181106119fa577f4e487b7100000000000000000000000000000000000000000000000000000000600052603260045260246000fd5b60200101907effffffffffffffffffffffffffffffffffffffffffffffffffffffffffffff1916908160001a905350600a85611a369190612d55565b945061198e565b8093505050505b919050565b60606000825190506000811415611a725760405180602001604052806000815250915050611c02565b60006003600283611a839190612cff565b611a8d9190612d55565b6004611a999190612d86565b90506000602082611aaa9190612cff565b67ffffffffffffffff811115611ae9577f4e487b7100000000000000000000000000000000000000000000000000000000600052604160045260246000fd5b6040519080825280601f01601f191660200182016040528015611b1b5781602001600182028036833780820191505090505b5090506000604051806060016040528060408152602001613668604091399050600181016020830160005b86811015611bbf5760038101905062ffffff818a015116603f8160121c168401518060081b905060ff603f83600c1c1686015116810190508060081b905060ff603f8360061c1686015116810190508060081b905060ff603f831686015116810190508060e01b90508084526004840193505050611b46565b506003860660018114611bd95760028114611be957611bf4565b613d3d60f01b6002830352611bf4565b603d60f81b60018303525b508484525050819450505050505b919050565b600081600001549050919050565b611c2f828260405180602001604052806000815250611e9c565b5050565b611ccd838383604051602401611c4b939291906129fe565b6040516020818303038152906040527f969cdd03000000000000000000000000000000000000000000000000000000007bffffffffffffffffffffffffffffffffffffffffffffffffffffffff19166020820180517bffffffffffffffffffffffffffffffffffffffffffffffffffffffff8381831617835250505050611cd2565b505050565b60008151905060006a636f6e736f6c652e6c6f679050602083016000808483855afa5050505050565b505050565b505050565b6000611d268473ffffffffffffffffffffffffffffffffffffffff16611ef7565b15611e8f578373ffffffffffffffffffffffffffffffffffffffff1663150b7a02611d4f6112cd565b8786866040518563ffffffff1660e01b8152600401611d71949392919061291b565b602060405180830381600087803b158015611d8b57600080fd5b505af1925050508015611dbc57506040513d601f19601f82011682018060405250810190611db99190612438565b60015b611e3f573d8060008114611dec576040519150601f19603f3d011682016040523d82523d6000602084013e611df1565b606091505b50600081511415611e37576040517f08c379a0000000000000000000000000000000000000000000000000000000008152600401611e2e90612a3c565b60405180910390fd5b805181602001fd5b63150b7a0260e01b7bffffffffffffffffffffffffffffffffffffffffffffffffffffffff1916817bffffffffffffffffffffffffffffffffffffffffffffffffffffffff191614915050611e94565b600190505b949350505050565b611ea68383611f1a565b611eb36000848484611d05565b611ef2576040517f08c379a0000000000000000000000000000000000000000000000000000000008152600401611ee990612a3c565b60405180910390fd5b505050565b6000808273ffffffffffffffffffffffffffffffffffffffff163b119050919050565b600073ffffffffffffffffffffffffffffffffffffffff168273ffffffffffffffffffffffffffffffffffffffff161415611f8a576040517f08c379a0000000000000000000000000000000000000000000000000000000008152600401611f8190612b5c565b60405180910390fd5b611f9381611261565b15611fd3576040517f08c379a0000000000000000000000000000000000000000000000000000000008152600401611fca90612a7c565b60405180910390fd5b611fdf60008383611cfb565b6001600360008473ffffffffffffffffffffffffffffffffffffffff1673ffffffffffffffffffffffffffffffffffffffff168152602001908152602001600020600082825461202f9190612cff565b92505081905550816002600083815260200190815260200160002060006101000a81548173ffffffffffffffffffffffffffffffffffffffff021916908373ffffffffffffffffffffffffffffffffffffffff160217905550808273ffffffffffffffffffffffffffffffffffffffff16600073ffffffffffffffffffffffffffffffffffffffff167fddf252ad1be2c89b69c2b068fc378daa952ba7f163c4a11628f55a4df523b3ef60405160405180910390a46120f060008383611d00565b5050565b82805461210090612eca565b90600052602060002090601f0160209004810192826121225760008555612169565b82601f1061213b57805160ff1916838001178555612169565b82800160010185558215612169579182015b8281111561216857825182559160200191906001019061214d565b5b509050612176919061217a565b5090565b5b8082111561219357600081600090555060010161217b565b5090565b60006121aa6121a584612c8b565b612c66565b9050828152602081018484840111156121c257600080fd5b6121cd848285612e88565b509392505050565b6000813590506121e48161360b565b92915050565b6000813590506121f981613622565b92915050565b60008135905061220e81613639565b92915050565b60008151905061222381613639565b92915050565b600082601f83011261223a57600080fd5b813561224a848260208601612197565b91505092915050565b60008135905061226281613650565b92915050565b60006020828403121561227a57600080fd5b6000612288848285016121d5565b91505092915050565b600080604083850312156122a457600080fd5b60006122b2858286016121d5565b92505060206122c3858286016121d5565b9150509250929050565b6000806000606084860312156122e257600080fd5b60006122f0868287016121d5565b9350506020612301868287016121d5565b925050604061231286828701612253565b9150509250925092565b6000806000806080858703121561233257600080fd5b6000612340878288016121d5565b9450506020612351878288016121d5565b935050604061236287828801612253565b925050606085013567ffffffffffffffff81111561237f57600080fd5b61238b87828801612229565b91505092959194509250565b600080604083850312156123aa57600080fd5b60006123b8858286016121d5565b92505060206123c9858286016121ea565b9150509250929050565b600080604083850312156123e657600080fd5b60006123f4858286016121d5565b925050602061240585828601612253565b9150509250929050565b60006020828403121561242157600080fd5b600061242f848285016121ff565b91505092915050565b60006020828403121561244a57600080fd5b600061245884828501612214565b91505092915050565b60006020828403121561247357600080fd5b600061248184828501612253565b91505092915050565b61249381612e14565b82525050565b6124a281612e26565b82525050565b60006124b382612cbc565b6124bd8185612cd2565b93506124cd818560208601612e97565b6124d681613063565b840191505092915050565b60006124ec82612cc7565b6124f68185612ce3565b9350612506818560208601612e97565b61250f81613063565b840191505092915050565b600061252582612cc7565b61252f8185612cf4565b935061253f818560208601612e97565b80840191505092915050565b6000612558600b83612cf4565b915061256382613074565b600b82019050919050565b600061257b603283612ce3565b91506125868261309d565b604082019050919050565b600061259e602583612ce3565b91506125a9826130ec565b604082019050919050565b60006125c1601c83612ce3565b91506125cc8261313b565b602082019050919050565b60006125e4600e83612cf4565b91506125ef82613164565b600e82019050919050565b6000612607602483612ce3565b91506126128261318d565b604082019050919050565b600061262a601983612ce3565b9150612635826131dc565b602082019050919050565b600061264d602c83612ce3565b915061265882613205565b604082019050919050565b6000612670603883612ce3565b915061267b82613254565b604082019050919050565b6000612693602a83612ce3565b915061269e826132a3565b604082019050919050565b60006126b6602983612ce3565b91506126c1826132f2565b604082019050919050565b60006126d9606283612cf4565b91506126e482613341565b606282019050919050565b60006126fc600483612cf4565b9150612707826133dc565b600482019050919050565b600061271f602083612ce3565b915061272a82613405565b602082019050919050565b6000612742602c83612ce3565b915061274d8261342e565b604082019050919050565b6000612765600a83612cf4565b91506127708261347d565b600a82019050919050565b6000612788602183612ce3565b9150612793826134a6565b604082019050919050565b60006127ab601d83612cf4565b91506127b6826134f5565b601d82019050919050565b60006127ce603183612ce3565b91506127d98261351e565b604082019050919050565b60006127f1603d83612cf4565b91506127fc8261356d565b603d82019050919050565b6000612814602d83612cf4565b915061281f826135bc565b602d82019050919050565b61283381612e7e565b82525050565b600061284482612758565b9150612850828961251a565b915061285b8261254b565b9150612867828861251a565b9150612872826126cc565b915061287e828761251a565b9150612889826127e4565b9150612895828661251a565b91506128a0826125d7565b91506128ac828561251a565b91506128b782612807565b91506128c3828461251a565b91506128ce826126ef565b9150819050979650505050505050565b60006128e98261279e565b91506128f5828461251a565b915081905092915050565b6000602082019050612915600083018461248a565b92915050565b6000608082019050612930600083018761248a565b61293d602083018661248a565b61294a604083018561282a565b818103606083015261295c81846124a8565b905095945050505050565b600060208201905061297c6000830184612499565b92915050565b6000602082019050818103600083015261299c81846124e1565b905092915050565b600060808201905081810360008301526129be81876124e1565b905081810360208301526129d281866124e1565b90506129e1604083018561282a565b81810360608301526129f381846124e1565b905095945050505050565b60006060820190508181036000830152612a1881866124e1565b9050612a27602083018561282a565b612a34604083018461282a565b949350505050565b60006020820190508181036000830152612a558161256e565b9050919050565b60006020820190508181036000830152612a7581612591565b9050919050565b60006020820190508181036000830152612a95816125b4565b9050919050565b60006020820190508181036000830152612ab5816125fa565b9050919050565b60006020820190508181036000830152612ad58161261d565b9050919050565b60006020820190508181036000830152612af581612640565b9050919050565b60006020820190508181036000830152612b1581612663565b9050919050565b60006020820190508181036000830152612b3581612686565b9050919050565b60006020820190508181036000830152612b55816126a9565b9050919050565b60006020820190508181036000830152612b7581612712565b9050919050565b60006020820190508181036000830152612b9581612735565b9050919050565b60006020820190508181036000830152612bb58161277b565b9050919050565b60006020820190508181036000830152612bd5816127c1565b9050919050565b6000602082019050612bf1600083018461282a565b92915050565b600060c082019050612c0c600083018961282a565b8181036020830152612c1e81886124e1565b90508181036040830152612c3281876124e1565b9050612c41606083018661282a565b612c4e608083018561282a565b612c5b60a083018461282a565b979650505050505050565b6000612c70612c81565b9050612c7c8282612efc565b919050565b6000604051905090565b600067ffffffffffffffff821115612ca657612ca5613034565b5b612caf82613063565b9050602081019050919050565b600081519050919050565b600081519050919050565b600082825260208201905092915050565b600082825260208201905092915050565b600081905092915050565b6000612d0a82612e7e565b9150612d1583612e7e565b9250827fffffffffffffffffffffffffffffffffffffffffffffffffffffffffffffffff03821115612d4a57612d49612fa7565b5b828201905092915050565b6000612d6082612e7e565b9150612d6b83612e7e565b925082612d7b57612d7a612fd6565b5b828204905092915050565b6000612d9182612e7e565b9150612d9c83612e7e565b9250817fffffffffffffffffffffffffffffffffffffffffffffffffffffffffffffffff0483118215151615612dd557612dd4612fa7565b5b828202905092915050565b6000612deb82612e7e565b9150612df683612e7e565b925082821015612e0957612e08612fa7565b5b828203905092915050565b6000612e1f82612e5e565b9050919050565b60008115159050919050565b60007fffffffff0000000000000000000000000000000000000000000000000000000082169050919050565b600073ffffffffffffffffffffffffffffffffffffffff82169050919050565b6000819050919050565b82818337600083830152505050565b60005b83811015612eb5578082015181840152602081019050612e9a565b83811115612ec4576000848401525b50505050565b60006002820490506001821680612ee257607f821691505b60208210811415612ef657612ef5613005565b5b50919050565b612f0582613063565b810181811067ffffffffffffffff82111715612f2457612f23613034565b5b80604052505050565b6000612f3882612e7e565b91507fffffffffffffffffffffffffffffffffffffffffffffffffffffffffffffffff821415612f6b57612f6a612fa7565b5b600182019050919050565b6000612f8182612e7e565b9150612f8c83612e7e565b925082612f9c57612f9b612fd6565b5b828206905092915050565b7f4e487b7100000000000000000000000000000000000000000000000000000000600052601160045260246000fd5b7f4e487b7100000000000000000000000000000000000000000000000000000000600052601260045260246000fd5b7f4e487b7100000000000000000000000000000000000000000000000000000000600052602260045260246000fd5b7f4e487b7100000000000000000000000000000000000000000000000000000000600052604160045260246000fd5b6000601f19601f8301169050919050565b7f202d2d204e465420233a20000000000000000000000000000000000000000000600082015250565b7f4552433732313a207472616e7366657220746f206e6f6e20455243373231526560008201527f63656976657220696d706c656d656e7465720000000000000000000000000000602082015250565b7f4552433732313a207472616e736665722066726f6d20696e636f72726563742060008201527f6f776e6572000000000000000000000000000000000000000000000000000000602082015250565b7f4552433732313a20746f6b656e20616c7265616479206d696e74656400000000600082015250565b7f2c20226d61785f76616c7565223a000000000000000000000000000000000000600082015250565b7f4552433732313a207472616e7366657220746f20746865207a65726f2061646460008201527f7265737300000000000000000000000000000000000000000000000000000000602082015250565b7f4552433732313a20617070726f766520746f2063616c6c657200000000000000600082015250565b7f4552433732313a206f70657261746f7220717565727920666f72206e6f6e657860008201527f697374656e7420746f6b656e0000000000000000000000000000000000000000602082015250565b7f4552433732313a20617070726f76652063616c6c6572206973206e6f74206f7760008201527f6e6572206e6f7220617070726f76656420666f7220616c6c0000000000000000602082015250565b7f4552433732313a2062616c616e636520717565727920666f7220746865207a6560008201527f726f206164647265737300000000000000000000000000000000000000000000602082015250565b7f4552433732313a206f776e657220717565727920666f72206e6f6e657869737460008201527f656e7420746f6b656e0000000000000000000000000000000000000000000000602082015250565b7f222c20226465736372697074696f6e223a20225468697320697320616e204e4660008201527f542074686174206c6574732070656f706c6520706c617920696e20746865206760208201527f616d65204d657461766572736520536c6179657221222c2022696d616765223a60408201527f2022000000000000000000000000000000000000000000000000000000000000606082015250565b7f7d205d7d00000000000000000000000000000000000000000000000000000000600082015250565b7f4552433732313a206d696e7420746f20746865207a65726f2061646472657373600082015250565b7f4552433732313a20617070726f76656420717565727920666f72206e6f6e657860008201527f697374656e7420746f6b656e0000000000000000000000000000000000000000602082015250565b7f7b226e616d65223a202200000000000000000000000000000000000000000000600082015250565b7f4552433732313a20617070726f76616c20746f2063757272656e74206f776e6560008201527f7200000000000000000000000000000000000000000000000000000000000000602082015250565b7f646174613a6170706c69636174696f6e2f6a736f6e3b6261736536342c000000600082015250565b7f4552433732313a207472616e736665722063616c6c6572206973206e6f74206f60008201527f776e6572206e6f7220617070726f766564000000000000000000000000000000602082015250565b7f222c202261747472696275746573223a205b207b202274726169745f7479706560008201527f223a20224865616c746820506f696e7473222c202276616c7565223a20000000602082015250565b7f7d2c207b202274726169745f74797065223a202241747461636b2044616d616760008201527f65222c202276616c7565223a2000000000000000000000000000000000000000602082015250565b61361481612e14565b811461361f57600080fd5b50565b61362b81612e26565b811461363657600080fd5b50565b61364281612e32565b811461364d57600080fd5b50565b61365981612e7e565b811461366457600080fd5b5056fe4142434445464748494a4b4c4d4e4f505152535455565758595a6162636465666768696a6b6c6d6e6f707172737475767778797a303132333435363738392b2f4d696e746564204e465420772f20746f6b656e496420257320616e6420636861726163746572496e646578202573a2646970667358221220b49829d6a9740c9795cf449eabee3d613eaf4fb3ade808c68b53562b6ab061f464736f6c63430008040033446f6e6520696e697469616c697a696e6720257320772f2048502025732c20696d67202573",
  "linkReferences": {},
  "deployedLinkReferences": {}
}