{
  "_format": "hh-sol-artifact-1",
  "contractName": "EpicGame",
  "sourceName": "contracts/EpicGame.sol",
  "abi": [
    {
      "inputs": [
        {
          "internalType": "string[]",
          "name": "characterNames",
          "type": "string[]"
        },
        {
          "internalType": "string[]",
          "name": "characterImageURIs",
          "type": "string[]"
        },
        {
          "internalType": "uint256[]",
          "name": "characterHp",
          "type": "uint256[]"
        },
        {
          "internalType": "uint256[]",
          "name": "characterAttackDmg",
          "type": "uint256[]"
        },
        {
          "internalType": "string",
          "name": "bossName",
          "type": "string"
        },
        {
          "internalType": "string",
          "name": "bossImageURI",
          "type": "string"
        },
        {
          "internalType": "uint256",
          "name": "bossHp",
          "type": "uint256"
        },
        {
          "internalType": "uint256",
          "name": "bossAttackDamage",
          "type": "uint256"
        }
      ],
      "stateMutability": "nonpayable",
      "type": "constructor"
    },
    {
      "anonymous": false,
      "inputs": [
        {
          "indexed": true,
          "internalType": "address",
          "name": "owner",
          "type": "address"
        },
        {
          "indexed": true,
          "internalType": "address",
          "name": "approved",
          "type": "address"
        },
        {
          "indexed": true,
          "internalType": "uint256",
          "name": "tokenId",
          "type": "uint256"
        }
      ],
      "name": "Approval",
      "type": "event"
    },
    {
      "anonymous": false,
      "inputs": [
        {
          "indexed": true,
          "internalType": "address",
          "name": "owner",
          "type": "address"
        },
        {
          "indexed": true,
          "internalType": "address",
          "name": "operator",
          "type": "address"
        },
        {
          "indexed": false,
          "internalType": "bool",
          "name": "approved",
          "type": "bool"
        }
      ],
      "name": "ApprovalForAll",
      "type": "event"
    },
    {
      "anonymous": false,
      "inputs": [
        {
          "indexed": false,
          "internalType": "uint256",
          "name": "newBossHp",
          "type": "uint256"
        },
        {
          "indexed": false,
          "internalType": "uint256",
          "name": "newPlayerHp",
          "type": "uint256"
        }
      ],
      "name": "AttackComplete",
      "type": "event"
    },
    {
      "anonymous": false,
      "inputs": [
        {
          "indexed": false,
          "internalType": "address",
          "name": "sender",
          "type": "address"
        },
        {
          "indexed": false,
          "internalType": "uint256",
          "name": "tokenId",
          "type": "uint256"
        },
        {
          "indexed": false,
          "internalType": "uint256",
          "name": "characterIndex",
          "type": "uint256"
        }
      ],
      "name": "CharacterNFTGiveBacked",
      "type": "event"
    },
    {
      "anonymous": false,
      "inputs": [
        {
          "indexed": false,
          "internalType": "address",
          "name": "sender",
          "type": "address"
        },
        {
          "indexed": false,
          "internalType": "uint256",
          "name": "tokenId",
          "type": "uint256"
        },
        {
          "indexed": false,
          "internalType": "uint256",
          "name": "characterIndex",
          "type": "uint256"
        }
      ],
      "name": "CharacterNFTMinted",
      "type": "event"
    },
    {
      "anonymous": false,
      "inputs": [
        {
          "indexed": true,
          "internalType": "address",
          "name": "from",
          "type": "address"
        },
        {
          "indexed": true,
          "internalType": "address",
          "name": "to",
          "type": "address"
        },
        {
          "indexed": true,
          "internalType": "uint256",
          "name": "tokenId",
          "type": "uint256"
        }
      ],
      "name": "Transfer",
      "type": "event"
    },
    {
      "inputs": [
        {
          "internalType": "address",
          "name": "to",
          "type": "address"
        },
        {
          "internalType": "uint256",
          "name": "tokenId",
          "type": "uint256"
        }
      ],
      "name": "approve",
      "outputs": [],
      "stateMutability": "nonpayable",
      "type": "function"
    },
    {
      "inputs": [],
      "name": "attackBoss",
      "outputs": [],
      "stateMutability": "nonpayable",
      "type": "function"
    },
    {
      "inputs": [
        {
          "internalType": "address",
          "name": "owner",
          "type": "address"
        }
      ],
      "name": "balanceOf",
      "outputs": [
        {
          "internalType": "uint256",
          "name": "",
          "type": "uint256"
        }
      ],
      "stateMutability": "view",
      "type": "function"
    },
    {
      "inputs": [],
      "name": "bigBoss",
      "outputs": [
        {
          "internalType": "string",
          "name": "name",
          "type": "string"
        },
        {
          "internalType": "string",
          "name": "imageURI",
          "type": "string"
        },
        {
          "internalType": "uint256",
          "name": "hp",
          "type": "uint256"
        },
        {
          "internalType": "uint256",
          "name": "maxHp",
          "type": "uint256"
        },
        {
          "internalType": "uint256",
          "name": "attackDamage",
          "type": "uint256"
        }
      ],
      "stateMutability": "view",
      "type": "function"
    },
    {
      "inputs": [],
      "name": "checkIfUserHasNFT",
      "outputs": [
        {
          "components": [
            {
              "internalType": "uint256",
              "name": "characterIndex",
              "type": "uint256"
            },
            {
              "internalType": "string",
              "name": "name",
              "type": "string"
            },
            {
              "internalType": "string",
              "name": "imageURI",
              "type": "string"
            },
            {
              "internalType": "uint256",
              "name": "hp",
              "type": "uint256"
            },
            {
              "internalType": "uint256",
              "name": "maxHp",
              "type": "uint256"
            },
            {
              "internalType": "uint256",
              "name": "attackDamage",
              "type": "uint256"
            }
          ],
          "internalType": "struct EpicGame.CharacterAttributes",
          "name": "",
          "type": "tuple"
        }
      ],
      "stateMutability": "view",
      "type": "function"
    },
    {
      "inputs": [],
      "name": "getAllDefaultCharacters",
      "outputs": [
        {
          "components": [
            {
              "internalType": "uint256",
              "name": "characterIndex",
              "type": "uint256"
            },
            {
              "internalType": "string",
              "name": "name",
              "type": "string"
            },
            {
              "internalType": "string",
              "name": "imageURI",
              "type": "string"
            },
            {
              "internalType": "uint256",
              "name": "hp",
              "type": "uint256"
            },
            {
              "internalType": "uint256",
              "name": "maxHp",
              "type": "uint256"
            },
            {
              "internalType": "uint256",
              "name": "attackDamage",
              "type": "uint256"
            }
          ],
          "internalType": "struct EpicGame.CharacterAttributes[]",
          "name": "",
          "type": "tuple[]"
        }
      ],
      "stateMutability": "view",
      "type": "function"
    },
    {
      "inputs": [
        {
          "internalType": "uint256",
          "name": "tokenId",
          "type": "uint256"
        }
      ],
      "name": "getApproved",
      "outputs": [
        {
          "internalType": "address",
          "name": "",
          "type": "address"
        }
      ],
      "stateMutability": "view",
      "type": "function"
    },
    {
      "inputs": [],
      "name": "getBigBoss",
      "outputs": [
        {
          "components": [
            {
              "internalType": "string",
              "name": "name",
              "type": "string"
            },
            {
              "internalType": "string",
              "name": "imageURI",
              "type": "string"
            },
            {
              "internalType": "uint256",
              "name": "hp",
              "type": "uint256"
            },
            {
              "internalType": "uint256",
              "name": "maxHp",
              "type": "uint256"
            },
            {
              "internalType": "uint256",
              "name": "attackDamage",
              "type": "uint256"
            }
          ],
          "internalType": "struct EpicGame.BigBoss",
          "name": "",
          "type": "tuple"
        }
      ],
      "stateMutability": "view",
      "type": "function"
    },
    {
      "inputs": [
        {
          "internalType": "uint256",
          "name": "_characterIndex",
          "type": "uint256"
        }
      ],
      "name": "givebackCharacterNFT",
      "outputs": [],
      "stateMutability": "nonpayable",
      "type": "function"
    },
    {
      "inputs": [
        {
          "internalType": "address",
          "name": "owner",
          "type": "address"
        },
        {
          "internalType": "address",
          "name": "operator",
          "type": "address"
        }
      ],
      "name": "isApprovedForAll",
      "outputs": [
        {
          "internalType": "bool",
          "name": "",
          "type": "bool"
        }
      ],
      "stateMutability": "view",
      "type": "function"
    },
    {
      "inputs": [
        {
          "internalType": "uint256",
          "name": "_characterIndex",
          "type": "uint256"
        }
      ],
      "name": "mintCharacterNFT",
      "outputs": [],
      "stateMutability": "nonpayable",
      "type": "function"
    },
    {
      "inputs": [],
      "name": "name",
      "outputs": [
        {
          "internalType": "string",
          "name": "",
          "type": "string"
        }
      ],
      "stateMutability": "view",
      "type": "function"
    },
    {
      "inputs": [
        {
          "internalType": "uint256",
          "name": "",
          "type": "uint256"
        }
      ],
      "name": "nftHolderAttributes",
      "outputs": [
        {
          "internalType": "uint256",
          "name": "characterIndex",
          "type": "uint256"
        },
        {
          "internalType": "string",
          "name": "name",
          "type": "string"
        },
        {
          "internalType": "string",
          "name": "imageURI",
          "type": "string"
        },
        {
          "internalType": "uint256",
          "name": "hp",
          "type": "uint256"
        },
        {
          "internalType": "uint256",
          "name": "maxHp",
          "type": "uint256"
        },
        {
          "internalType": "uint256",
          "name": "attackDamage",
          "type": "uint256"
        }
      ],
      "stateMutability": "view",
      "type": "function"
    },
    {
      "inputs": [
        {
          "internalType": "address",
          "name": "",
          "type": "address"
        }
      ],
      "name": "nftHolders",
      "outputs": [
        {
          "internalType": "uint256",
          "name": "",
          "type": "uint256"
        }
      ],
      "stateMutability": "view",
      "type": "function"
    },
    {
      "inputs": [
        {
          "internalType": "uint256",
          "name": "tokenId",
          "type": "uint256"
        }
      ],
      "name": "ownerOf",
      "outputs": [
        {
          "internalType": "address",
          "name": "",
          "type": "address"
        }
      ],
      "stateMutability": "view",
      "type": "function"
    },
    {
      "inputs": [
        {
          "internalType": "address",
          "name": "from",
          "type": "address"
        },
        {
          "internalType": "address",
          "name": "to",
          "type": "address"
        },
        {
          "internalType": "uint256",
          "name": "tokenId",
          "type": "uint256"
        }
      ],
      "name": "safeTransferFrom",
      "outputs": [],
      "stateMutability": "nonpayable",
      "type": "function"
    },
    {
      "inputs": [
        {
          "internalType": "address",
          "name": "from",
          "type": "address"
        },
        {
          "internalType": "address",
          "name": "to",
          "type": "address"
        },
        {
          "internalType": "uint256",
          "name": "tokenId",
          "type": "uint256"
        },
        {
          "internalType": "bytes",
          "name": "_data",
          "type": "bytes"
        }
      ],
      "name": "safeTransferFrom",
      "outputs": [],
      "stateMutability": "nonpayable",
      "type": "function"
    },
    {
      "inputs": [
        {
          "internalType": "address",
          "name": "operator",
          "type": "address"
        },
        {
          "internalType": "bool",
          "name": "approved",
          "type": "bool"
        }
      ],
      "name": "setApprovalForAll",
      "outputs": [],
      "stateMutability": "nonpayable",
      "type": "function"
    },
    {
      "inputs": [
        {
          "internalType": "bytes4",
          "name": "interfaceId",
          "type": "bytes4"
        }
      ],
      "name": "supportsInterface",
      "outputs": [
        {
          "internalType": "bool",
          "name": "",
          "type": "bool"
        }
      ],
      "stateMutability": "view",
      "type": "function"
    },
    {
      "inputs": [],
      "name": "symbol",
      "outputs": [
        {
          "internalType": "string",
          "name": "",
          "type": "string"
        }
      ],
      "stateMutability": "view",
      "type": "function"
    },
    {
      "inputs": [
        {
          "internalType": "uint256",
          "name": "_tokenId",
          "type": "uint256"
        }
      ],
      "name": "tokenURI",
      "outputs": [
        {
          "internalType": "string",
          "name": "",
          "type": "string"
        }
      ],
      "stateMutability": "view",
      "type": "function"
    },
    {
      "inputs": [
        {
          "internalType": "address",
          "name": "from",
          "type": "address"
        },
        {
          "internalType": "address",
          "name": "to",
          "type": "address"
        },
        {
          "internalType": "uint256",
          "name": "tokenId",
          "type": "uint256"
        }
      ],
      "name": "transferFrom",
      "outputs": [],
      "stateMutability": "nonpayable",
      "type": "function"
    }
  ],
  "bytecode": "0x60806040523480156200001157600080fd5b5060405162005cd538038062005cd5833981810160405281019062000037919062000a85565b6040518060400160405280600c81526020017f47686f737420426174746c6500000000000000000000000000000000000000008152506040518060400160405280600381526020017f47484200000000000000000000000000000000000000000000000000000000008152508160009080519060200190620000bb929190620007ed565b508060019080519060200190620000d4929190620007ed565b5050506040518060a0016040528085815260200184815260200183815260200183815260200182815250600660008201518160000190805190602001906200011e929190620007ed565b5060208201518160010190805190602001906200013d929190620007ed565b50604082015181600201556060820151816003015560808201518160040155905050620002c06040518060600160405280602a815260200162005cab602a9139600660000180546200018f9062000e08565b80601f0160208091040260200160405190810160405280929190818152602001828054620001bd9062000e08565b80156200020e5780601f10620001e2576101008083540402835291602001916200020e565b820191906000526020600020905b815481529060010190602001808311620001f057829003601f168201915b5050505050600660020154600660010180546200022b9062000e08565b80601f0160208091040260200160405190810160405280929190818152602001828054620002599062000e08565b8015620002aa5780601f106200027e57610100808354040283529160200191620002aa565b820191906000526020600020905b8154815290600101906020018083116200028c57829003601f168201915b50505050506200070260201b62001fe61760201c565b60005b8851811015620006f357600c6040518060c001604052808381526020018b84815181106200031a577f4e487b7100000000000000000000000000000000000000000000000000000000600052603260045260246000fd5b602002602001015181526020018a848151811062000361577f4e487b7100000000000000000000000000000000000000000000000000000000600052603260045260246000fd5b60200260200101518152602001898481518110620003a8577f4e487b7100000000000000000000000000000000000000000000000000000000600052603260045260246000fd5b60200260200101518152602001898481518110620003ef577f4e487b7100000000000000000000000000000000000000000000000000000000600052603260045260246000fd5b6020026020010151815260200188848151811062000436577f4e487b7100000000000000000000000000000000000000000000000000000000600052603260045260246000fd5b6020026020010151815250908060018154018082558091505060019003906000526020600020906006020160009091909190915060008201518160000155602082015181600101908051906020019062000492929190620007ed565b506040820151816002019080519060200190620004b1929190620007ed565b50606082015181600301556080820151816004015560a0820151816005015550506000600c82815481106200050f577f4e487b7100000000000000000000000000000000000000000000000000000000600052603260045260246000fd5b90600052602060002090600602016040518060c001604052908160008201548152602001600182018054620005449062000e08565b80601f0160208091040260200160405190810160405280929190818152602001828054620005729062000e08565b8015620005c35780601f106200059757610100808354040283529160200191620005c3565b820191906000526020600020905b815481529060010190602001808311620005a557829003601f168201915b50505050508152602001600282018054620005de9062000e08565b80601f01602080910402602001604051908101604052809291908181526020018280546200060c9062000e08565b80156200065d5780601f1062000631576101008083540402835291602001916200065d565b820191906000526020600020905b8154815290600101906020018083116200063f57829003601f168201915b5050505050815260200160038201548152602001600482015481526020016005820154815250509050620006c460405180606001604052806025815260200162005c86602591398260200151836060015184604001516200070260201b62001fe61760201c565b620006db600b620007ae60201b620020881760201c565b50600181620006eb919062000d6b565b9050620002c3565b50505050505050505062000f2c565b620007a8848484846040516024016200071f949392919062000c30565b6040516020818303038152906040527f8d142cdd000000000000000000000000000000000000000000000000000000007bffffffffffffffffffffffffffffffffffffffffffffffffffffffff19166020820180517bffffffffffffffffffffffffffffffffffffffffffffffffffffffff8381831617835250505050620007c460201b60201c565b50505050565b6001816000016000828254019250508190555050565b60008151905060006a636f6e736f6c652e6c6f679050602083016000808483855afa5050505050565b828054620007fb9062000e08565b90600052602060002090601f0160209004810192826200081f57600085556200086b565b82601f106200083a57805160ff19168380011785556200086b565b828001600101855582156200086b579182015b828111156200086a5782518255916020019190600101906200084d565b5b5090506200087a91906200087e565b5090565b5b80821115620008995760008160009055506001016200087f565b5090565b6000620008b4620008ae8462000cbb565b62000c92565b90508083825260208201905082856020860282011115620008d457600080fd5b60005b858110156200092357815167ffffffffffffffff811115620008f857600080fd5b80860162000907898262000a41565b85526020850194506020840193505050600181019050620008d7565b5050509392505050565b6000620009446200093e8462000cea565b62000c92565b905080838252602082019050828560208602820111156200096457600080fd5b60005b858110156200099857816200097d888262000a6e565b84526020840193506020830192505060018101905062000967565b5050509392505050565b6000620009b9620009b38462000d19565b62000c92565b905082815260208101848484011115620009d257600080fd5b620009df84828562000dd2565b509392505050565b600082601f830112620009f957600080fd5b815162000a0b8482602086016200089d565b91505092915050565b600082601f83011262000a2657600080fd5b815162000a388482602086016200092d565b91505092915050565b600082601f83011262000a5357600080fd5b815162000a65848260208601620009a2565b91505092915050565b60008151905062000a7f8162000f12565b92915050565b600080600080600080600080610100898b03121562000aa357600080fd5b600089015167ffffffffffffffff81111562000abe57600080fd5b62000acc8b828c01620009e7565b985050602089015167ffffffffffffffff81111562000aea57600080fd5b62000af88b828c01620009e7565b975050604089015167ffffffffffffffff81111562000b1657600080fd5b62000b248b828c0162000a14565b965050606089015167ffffffffffffffff81111562000b4257600080fd5b62000b508b828c0162000a14565b955050608089015167ffffffffffffffff81111562000b6e57600080fd5b62000b7c8b828c0162000a41565b94505060a089015167ffffffffffffffff81111562000b9a57600080fd5b62000ba88b828c0162000a41565b93505060c062000bbb8b828c0162000a6e565b92505060e062000bce8b828c0162000a6e565b9150509295985092959890939650565b600062000beb8262000d4f565b62000bf7818562000d5a565b935062000c0981856020860162000dd2565b62000c148162000f01565b840191505092915050565b62000c2a8162000dc8565b82525050565b6000608082019050818103600083015262000c4c818762000bde565b9050818103602083015262000c62818662000bde565b905062000c73604083018562000c1f565b818103606083015262000c87818462000bde565b905095945050505050565b600062000c9e62000cb1565b905062000cac828262000e3e565b919050565b6000604051905090565b600067ffffffffffffffff82111562000cd95762000cd862000ed2565b5b602082029050602081019050919050565b600067ffffffffffffffff82111562000d085762000d0762000ed2565b5b602082029050602081019050919050565b600067ffffffffffffffff82111562000d375762000d3662000ed2565b5b62000d428262000f01565b9050602081019050919050565b600081519050919050565b600082825260208201905092915050565b600062000d788262000dc8565b915062000d858362000dc8565b9250827fffffffffffffffffffffffffffffffffffffffffffffffffffffffffffffffff0382111562000dbd5762000dbc62000e74565b5b828201905092915050565b6000819050919050565b60005b8381101562000df257808201518184015260208101905062000dd5565b8381111562000e02576000848401525b50505050565b6000600282049050600182168062000e2157607f821691505b6020821081141562000e385762000e3762000ea3565b5b50919050565b62000e498262000f01565b810181811067ffffffffffffffff8211171562000e6b5762000e6a62000ed2565b5b80604052505050565b7f4e487b7100000000000000000000000000000000000000000000000000000000600052601160045260246000fd5b7f4e487b7100000000000000000000000000000000000000000000000000000000600052602260045260246000fd5b7f4e487b7100000000000000000000000000000000000000000000000000000000600052604160045260246000fd5b6000601f19601f8301169050919050565b62000f1d8162000dc8565b811462000f2957600080fd5b50565b614d4a8062000f3c6000396000f3fe608060405234801561001057600080fd5b50600436106101425760003560e01c806398da4c95116100b8578063c87b56dd1161007c578063c87b56dd14610392578063c8cf27f4146103c2578063d4f24c5b146103e0578063e985e9c5146103ea578063f8b81ef71461041a578063fdf263cb1461043657610142565b806398da4c95146102e5578063a22cb4651461031a578063a9c3267914610336578063b88d4fde14610358578063b953084e1461037457610142565b806323b872dd1161010a57806323b872dd146101ff57806342842e0e1461021b5780636352211e1461023757806370a08231146102675780637df124a11461029757806395d89b41146102c757610142565b806301ffc9a7146101475780630665f9611461017757806306fdde0314610195578063081812fc146101b3578063095ea7b3146101e3575b600080fd5b610161600480360381019061015c9190613459565b610452565b60405161016e9190613cbe565b60405180910390f35b61017f610534565b60405161018c9190614057565b60405180910390f35b61019d610690565b6040516101aa9190613cd9565b60405180910390f35b6101cd60048036038101906101c891906134ab565b610722565b6040516101da9190613bfe565b60405180910390f35b6101fd60048036038101906101f8919061341d565b6107a7565b005b61021960048036038101906102149190613317565b6108bf565b005b61023560048036038101906102309190613317565b61091f565b005b610251600480360381019061024c91906134ab565b61093f565b60405161025e9190613bfe565b60405180910390f35b610281600480360381019061027c91906132b2565b6109f1565b60405161028e919061409b565b60405180910390f35b6102b160048036038101906102ac91906132b2565b610aa9565b6040516102be919061409b565b60405180910390f35b6102cf610ac1565b6040516102dc9190613cd9565b60405180910390f35b6102ff60048036038101906102fa91906134ab565b610b53565b604051610311969594939291906140b6565b60405180910390f35b610334600480360381019061032f91906133e1565b610c9f565b005b61033e610cb5565b60405161034f959493929190613da8565b60405180910390f35b610372600480360381019061036d9190613366565b610de9565b005b61037c610e4b565b6040516103899190613c9c565b60405180910390f35b6103ac60048036038101906103a791906134ab565b610ff6565b6040516103b99190613cd9565b60405180910390f35b6103ca611211565b6040516103d79190614079565b60405180910390f35b6103e86113e9565b005b61040460048036038101906103ff91906132db565b611774565b6040516104119190613cbe565b60405180910390f35b610434600480360381019061042f91906134ab565b611808565b005b610450600480360381019061044b91906134ab565b611bfc565b005b60007f80ac58cd000000000000000000000000000000000000000000000000000000007bffffffffffffffffffffffffffffffffffffffffffffffffffffffff1916827bffffffffffffffffffffffffffffffffffffffffffffffffffffffff1916148061051d57507f5b5e139f000000000000000000000000000000000000000000000000000000007bffffffffffffffffffffffffffffffffffffffffffffffffffffffff1916827bffffffffffffffffffffffffffffffffffffffffffffffffffffffff1916145b8061052d575061052c8261209e565b5b9050919050565b61053c6130d9565b60066040518060a0016040529081600082018054610559906143fc565b80601f0160208091040260200160405190810160405280929190818152602001828054610585906143fc565b80156105d25780601f106105a7576101008083540402835291602001916105d2565b820191906000526020600020905b8154815290600101906020018083116105b557829003601f168201915b505050505081526020016001820180546105eb906143fc565b80601f0160208091040260200160405190810160405280929190818152602001828054610617906143fc565b80156106645780601f1061063957610100808354040283529160200191610664565b820191906000526020600020905b81548152906001019060200180831161064757829003601f168201915b505050505081526020016002820154815260200160038201548152602001600482015481525050905090565b60606000805461069f906143fc565b80601f01602080910402602001604051908101604052809291908181526020018280546106cb906143fc565b80156107185780601f106106ed57610100808354040283529160200191610718565b820191906000526020600020905b8154815290600101906020018083116106fb57829003601f168201915b5050505050905090565b600061072d82612108565b61076c576040517f08c379a000000000000000000000000000000000000000000000000000000000815260040161076390613ff7565b60405180910390fd5b6004600083815260200190815260200160002060009054906101000a900473ffffffffffffffffffffffffffffffffffffffff169050919050565b60006107b28261093f565b90508073ffffffffffffffffffffffffffffffffffffffff168373ffffffffffffffffffffffffffffffffffffffff161415610823576040517f08c379a000000000000000000000000000000000000000000000000000000000815260040161081a90614017565b60405180910390fd5b8073ffffffffffffffffffffffffffffffffffffffff16610842612174565b73ffffffffffffffffffffffffffffffffffffffff16148061087157506108708161086b612174565b611774565b5b6108b0576040517f08c379a00000000000000000000000000000000000000000000000000000000081526004016108a790613f57565b60405180910390fd5b6108ba838361217c565b505050565b6108d06108ca612174565b82612235565b61090f576040517f08c379a000000000000000000000000000000000000000000000000000000000815260040161090690614037565b60405180910390fd5b61091a838383612313565b505050565b61093a83838360405180602001604052806000815250610de9565b505050565b6000806002600084815260200190815260200160002060009054906101000a900473ffffffffffffffffffffffffffffffffffffffff169050600073ffffffffffffffffffffffffffffffffffffffff168173ffffffffffffffffffffffffffffffffffffffff1614156109e8576040517f08c379a00000000000000000000000000000000000000000000000000000000081526004016109df90613f97565b60405180910390fd5b80915050919050565b60008073ffffffffffffffffffffffffffffffffffffffff168273ffffffffffffffffffffffffffffffffffffffff161415610a62576040517f08c379a0000000000000000000000000000000000000000000000000000000008152600401610a5990613f77565b60405180910390fd5b600360008373ffffffffffffffffffffffffffffffffffffffff1673ffffffffffffffffffffffffffffffffffffffff168152602001908152602001600020549050919050565b600e6020528060005260406000206000915090505481565b606060018054610ad0906143fc565b80601f0160208091040260200160405190810160405280929190818152602001828054610afc906143fc565b8015610b495780601f10610b1e57610100808354040283529160200191610b49565b820191906000526020600020905b815481529060010190602001808311610b2c57829003601f168201915b5050505050905090565b600d602052806000526040600020600091509050806000015490806001018054610b7c906143fc565b80601f0160208091040260200160405190810160405280929190818152602001828054610ba8906143fc565b8015610bf55780601f10610bca57610100808354040283529160200191610bf5565b820191906000526020600020905b815481529060010190602001808311610bd857829003601f168201915b505050505090806002018054610c0a906143fc565b80601f0160208091040260200160405190810160405280929190818152602001828054610c36906143fc565b8015610c835780601f10610c5857610100808354040283529160200191610c83565b820191906000526020600020905b815481529060010190602001808311610c6657829003601f168201915b5050505050908060030154908060040154908060050154905086565b610cb1610caa612174565b838361257a565b5050565b6006806000018054610cc6906143fc565b80601f0160208091040260200160405190810160405280929190818152602001828054610cf2906143fc565b8015610d3f5780601f10610d1457610100808354040283529160200191610d3f565b820191906000526020600020905b815481529060010190602001808311610d2257829003601f168201915b505050505090806001018054610d54906143fc565b80601f0160208091040260200160405190810160405280929190818152602001828054610d80906143fc565b8015610dcd5780601f10610da257610100808354040283529160200191610dcd565b820191906000526020600020905b815481529060010190602001808311610db057829003601f168201915b5050505050908060020154908060030154908060040154905085565b610dfa610df4612174565b83612235565b610e39576040517f08c379a0000000000000000000000000000000000000000000000000000000008152600401610e3090614037565b60405180910390fd5b610e45848484846126e7565b50505050565b6060600c805480602002602001604051908101604052809291908181526020016000905b82821015610fed57838290600052602060002090600602016040518060c001604052908160008201548152602001600182018054610eac906143fc565b80601f0160208091040260200160405190810160405280929190818152602001828054610ed8906143fc565b8015610f255780601f10610efa57610100808354040283529160200191610f25565b820191906000526020600020905b815481529060010190602001808311610f0857829003601f168201915b50505050508152602001600282018054610f3e906143fc565b80601f0160208091040260200160405190810160405280929190818152602001828054610f6a906143fc565b8015610fb75780601f10610f8c57610100808354040283529160200191610fb7565b820191906000526020600020905b815481529060010190602001808311610f9a57829003601f168201915b50505050508152602001600382015481526020016004820154815260200160058201548152505081526020019060010190610e6f565b50505050905090565b60606000600d60008481526020019081526020016000206040518060c001604052908160008201548152602001600182018054611032906143fc565b80601f016020809104026020016040519081016040528092919081815260200182805461105e906143fc565b80156110ab5780601f10611080576101008083540402835291602001916110ab565b820191906000526020600020905b81548152906001019060200180831161108e57829003601f168201915b505050505081526020016002820180546110c4906143fc565b80601f01602080910402602001604051908101604052809291908181526020018280546110f0906143fc565b801561113d5780601f106111125761010080835404028352916020019161113d565b820191906000526020600020905b81548152906001019060200180831161112057829003601f168201915b505050505081526020016003820154815260200160048201548152602001600582015481525050905060006111758260600151612743565b905060006111868360800151612743565b905060006111978460a00151612743565b905060006111dd85602001516111ac89612743565b87604001518787876040516020016111c996959493929190613b37565b6040516020818303038152906040526128f0565b90506000816040516020016111f29190613bdc565b6040516020818303038152906040529050809650505050505050919050565b611219613108565b6000600e60003373ffffffffffffffffffffffffffffffffffffffff1673ffffffffffffffffffffffffffffffffffffffff16815260200190815260200160002054905060008111156113d857600d60008281526020019081526020016000206040518060c00160405290816000820154815260200160018201805461129e906143fc565b80601f01602080910402602001604051908101604052809291908181526020018280546112ca906143fc565b80156113175780601f106112ec57610100808354040283529160200191611317565b820191906000526020600020905b8154815290600101906020018083116112fa57829003601f168201915b50505050508152602001600282018054611330906143fc565b80601f016020809104026020016040519081016040528092919081815260200182805461135c906143fc565b80156113a95780601f1061137e576101008083540402835291602001916113a9565b820191906000526020600020905b81548152906001019060200180831161138c57829003601f168201915b5050505050815260200160038201548152602001600482015481526020016005820154815250509150506113e6565b6113e0613108565b80925050505b90565b6000600e60003373ffffffffffffffffffffffffffffffffffffffff1673ffffffffffffffffffffffffffffffffffffffff1681526020019081526020016000205490506000600d600083815260200190815260200160002090506114fc6040518060600160405280603c8152602001614ca7603c913982600101805461146f906143fc565b80601f016020809104026020016040519081016040528092919081815260200182805461149b906143fc565b80156114e85780601f106114bd576101008083540402835291602001916114e8565b820191906000526020600020905b8154815290600101906020018083116114cb57829003601f168201915b505050505083600301548460050154612aae565b6115d46040518060400160405280601b81526020017f426f73732025732068617320257320485020616e64202573204144000000000081525060066000018054611545906143fc565b80601f0160208091040260200160405190810160405280929190818152602001828054611571906143fc565b80156115be5780601f10611593576101008083540402835291602001916115be565b820191906000526020600020905b8154815290600101906020018083116115a157829003601f168201915b5050505050600660020154600660040154612aae565b600081600301541161161b576040517f08c379a000000000000000000000000000000000000000000000000000000000815260040161161290613fb7565b60405180910390fd5b600060066002015411611663576040517f08c379a000000000000000000000000000000000000000000000000000000000815260040161165a90613eb7565b60405180910390fd5b806005015460066002015410156116845760006006600201819055506116a3565b80600501546006600201546116999190614312565b6006600201819055505b600660040154816003015410156116c357600081600301819055506116e1565b60066004015481600301546116d89190614312565b81600301819055505b611708604051806060016040528060258152602001614bec60259139600660020154612b50565b61172e604051806060016040528060288152602001614c51602891398260030154612b50565b7f838ab28464562786a6c4ab2311964b82fa60bd9b14aa7e856af1f3f18d41a4146006600201548260030154604051611768929190614125565b60405180910390a15050565b6000600560008473ffffffffffffffffffffffffffffffffffffffff1673ffffffffffffffffffffffffffffffffffffffff16815260200190815260200160002060008373ffffffffffffffffffffffffffffffffffffffff1673ffffffffffffffffffffffffffffffffffffffff16815260200190815260200160002060009054906101000a900460ff16905092915050565b6000611814600b612bec565b90506118203382612bfa565b6040518060c00160405280838152602001600c848154811061186b577f4e487b7100000000000000000000000000000000000000000000000000000000600052603260045260246000fd5b90600052602060002090600602016001018054611887906143fc565b80601f01602080910402602001604051908101604052809291908181526020018280546118b3906143fc565b80156119005780601f106118d557610100808354040283529160200191611900565b820191906000526020600020905b8154815290600101906020018083116118e357829003601f168201915b50505050508152602001600c8481548110611944577f4e487b7100000000000000000000000000000000000000000000000000000000600052603260045260246000fd5b90600052602060002090600602016002018054611960906143fc565b80601f016020809104026020016040519081016040528092919081815260200182805461198c906143fc565b80156119d95780601f106119ae576101008083540402835291602001916119d9565b820191906000526020600020905b8154815290600101906020018083116119bc57829003601f168201915b50505050508152602001600c8481548110611a1d577f4e487b7100000000000000000000000000000000000000000000000000000000600052603260045260246000fd5b9060005260206000209060060201600301548152602001600c8481548110611a6e577f4e487b7100000000000000000000000000000000000000000000000000000000600052603260045260246000fd5b9060005260206000209060060201600401548152602001600c8481548110611abf577f4e487b7100000000000000000000000000000000000000000000000000000000600052603260045260246000fd5b906000526020600020906006020160050154815250600d6000838152602001908152602001600020600082015181600001556020820151816001019080519060200190611b0d92919061313e565b506040820151816002019080519060200190611b2a92919061313e565b50606082015181600301556080820151816004015560a08201518160050155905050611b6f6040518060600160405280602e8152602001614c79602e91398284612c18565b80600e60003373ffffffffffffffffffffffffffffffffffffffff1673ffffffffffffffffffffffffffffffffffffffff16815260200190815260200160002081905550611bbd600b612088565b7f4bc303fd457a97b4691b9af582ce71868a3d258638c8d4f8c60988a0f0bfb8cd338284604051611bf093929190613c65565b60405180910390a15050565b6000611c08600b612bec565b9050611c143082612bfa565b6040518060c00160405280838152602001600c8481548110611c5f577f4e487b7100000000000000000000000000000000000000000000000000000000600052603260045260246000fd5b90600052602060002090600602016001018054611c7b906143fc565b80601f0160208091040260200160405190810160405280929190818152602001828054611ca7906143fc565b8015611cf45780601f10611cc957610100808354040283529160200191611cf4565b820191906000526020600020905b815481529060010190602001808311611cd757829003601f168201915b50505050508152602001600c8481548110611d38577f4e487b7100000000000000000000000000000000000000000000000000000000600052603260045260246000fd5b90600052602060002090600602016002018054611d54906143fc565b80601f0160208091040260200160405190810160405280929190818152602001828054611d80906143fc565b8015611dcd5780601f10611da257610100808354040283529160200191611dcd565b820191906000526020600020905b815481529060010190602001808311611db057829003601f168201915b50505050508152602001600c8481548110611e11577f4e487b7100000000000000000000000000000000000000000000000000000000600052603260045260246000fd5b9060005260206000209060060201600301548152602001600c8481548110611e62577f4e487b7100000000000000000000000000000000000000000000000000000000600052603260045260246000fd5b9060005260206000209060060201600401548152602001600c8481548110611eb3577f4e487b7100000000000000000000000000000000000000000000000000000000600052603260045260246000fd5b906000526020600020906006020160050154815250600d6000838152602001908152602001600020600082015181600001556020820151816001019080519060200190611f0192919061313e565b506040820151816002019080519060200190611f1e92919061313e565b50606082015181600301556080820151816004015560a08201518160050155905050611f63604051806060016040528060328152602001614ce3603291398284612c18565b80600e60003073ffffffffffffffffffffffffffffffffffffffff1673ffffffffffffffffffffffffffffffffffffffff168152602001908152602001600020819055507f99552c8c3aaf61467507943936a7d2da088aebe58fe4cd9beb99fa211b446f4c338284604051611fda93929190613c65565b60405180910390a15050565b612082848484846040516024016120009493929190613cfb565b6040516020818303038152906040527f8d142cdd000000000000000000000000000000000000000000000000000000007bffffffffffffffffffffffffffffffffffffffffffffffffffffffff19166020820180517bffffffffffffffffffffffffffffffffffffffffffffffffffffffff8381831617835250505050612cb7565b50505050565b6001816000016000828254019250508190555050565b60007f01ffc9a7000000000000000000000000000000000000000000000000000000007bffffffffffffffffffffffffffffffffffffffffffffffffffffffff1916827bffffffffffffffffffffffffffffffffffffffffffffffffffffffff1916149050919050565b60008073ffffffffffffffffffffffffffffffffffffffff166002600084815260200190815260200160002060009054906101000a900473ffffffffffffffffffffffffffffffffffffffff1673ffffffffffffffffffffffffffffffffffffffff1614159050919050565b600033905090565b816004600083815260200190815260200160002060006101000a81548173ffffffffffffffffffffffffffffffffffffffff021916908373ffffffffffffffffffffffffffffffffffffffff160217905550808273ffffffffffffffffffffffffffffffffffffffff166121ef8361093f565b73ffffffffffffffffffffffffffffffffffffffff167f8c5be1e5ebec7d5bd14f71427d1e84f3dd0314c0f7b2291e5b200ac8c7c3b92560405160405180910390a45050565b600061224082612108565b61227f576040517f08c379a000000000000000000000000000000000000000000000000000000000815260040161227690613f37565b60405180910390fd5b600061228a8361093f565b90508073ffffffffffffffffffffffffffffffffffffffff168473ffffffffffffffffffffffffffffffffffffffff1614806122f957508373ffffffffffffffffffffffffffffffffffffffff166122e184610722565b73ffffffffffffffffffffffffffffffffffffffff16145b8061230a57506123098185611774565b5b91505092915050565b8273ffffffffffffffffffffffffffffffffffffffff166123338261093f565b73ffffffffffffffffffffffffffffffffffffffff1614612389576040517f08c379a000000000000000000000000000000000000000000000000000000000815260040161238090613e97565b60405180910390fd5b600073ffffffffffffffffffffffffffffffffffffffff168273ffffffffffffffffffffffffffffffffffffffff1614156123f9576040517f08c379a00000000000000000000000000000000000000000000000000000000081526004016123f090613ef7565b60405180910390fd5b612404838383612ce0565b61240f60008261217c565b6001600360008573ffffffffffffffffffffffffffffffffffffffff1673ffffffffffffffffffffffffffffffffffffffff168152602001908152602001600020600082825461245f9190614312565b925050819055506001600360008473ffffffffffffffffffffffffffffffffffffffff1673ffffffffffffffffffffffffffffffffffffffff16815260200190815260200160002060008282546124b69190614231565b92505081905550816002600083815260200190815260200160002060006101000a81548173ffffffffffffffffffffffffffffffffffffffff021916908373ffffffffffffffffffffffffffffffffffffffff160217905550808273ffffffffffffffffffffffffffffffffffffffff168473ffffffffffffffffffffffffffffffffffffffff167fddf252ad1be2c89b69c2b068fc378daa952ba7f163c4a11628f55a4df523b3ef60405160405180910390a4612575838383612ce5565b505050565b8173ffffffffffffffffffffffffffffffffffffffff168373ffffffffffffffffffffffffffffffffffffffff1614156125e9576040517f08c379a00000000000000000000000000000000000000000000000000000000081526004016125e090613f17565b60405180910390fd5b80600560008573ffffffffffffffffffffffffffffffffffffffff1673ffffffffffffffffffffffffffffffffffffffff16815260200190815260200160002060008473ffffffffffffffffffffffffffffffffffffffff1673ffffffffffffffffffffffffffffffffffffffff16815260200190815260200160002060006101000a81548160ff0219169083151502179055508173ffffffffffffffffffffffffffffffffffffffff168373ffffffffffffffffffffffffffffffffffffffff167f17307eab39ab6107e8899845ad3d59bd9653f200f220920489ca2b5937696c31836040516126da9190613cbe565b60405180910390a3505050565b6126f2848484612313565b6126fe84848484612cea565b61273d576040517f08c379a000000000000000000000000000000000000000000000000000000000815260040161273490613e77565b60405180910390fd5b50505050565b6060600082141561278b576040518060400160405280600181526020017f300000000000000000000000000000000000000000000000000000000000000081525090506128eb565b600082905060005b600082146127bd5780806127a69061445f565b915050600a826127b69190614287565b9150612793565b60008167ffffffffffffffff8111156127ff577f4e487b7100000000000000000000000000000000000000000000000000000000600052604160045260246000fd5b6040519080825280601f01601f1916602001820160405280156128315781602001600182028036833780820191505090505b5090505b600085146128e45760018261284a9190614312565b9150600a8561285991906144a8565b60306128659190614231565b60f81b8183815181106128a1577f4e487b7100000000000000000000000000000000000000000000000000000000600052603260045260246000fd5b60200101907effffffffffffffffffffffffffffffffffffffffffffffffffffffffffffff1916908160001a905350600a856128dd9190614287565b9450612835565b8093505050505b919050565b606060008251905060008114156129195760405180602001604052806000815250915050612aa9565b6000600360028361292a9190614231565b6129349190614287565b600461294091906142b8565b905060006020826129519190614231565b67ffffffffffffffff811115612990577f4e487b7100000000000000000000000000000000000000000000000000000000600052604160045260246000fd5b6040519080825280601f01601f1916602001820160405280156129c25781602001600182028036833780820191505090505b5090506000604051806060016040528060408152602001614c11604091399050600181016020830160005b86811015612a665760038101905062ffffff818a015116603f8160121c168401518060081b905060ff603f83600c1c1686015116810190508060081b905060ff603f8360061c1686015116810190508060081b905060ff603f831686015116810190508060e01b905080845260048401935050506129ed565b506003860660018114612a805760028114612a9057612a9b565b613d3d60f01b6002830352612a9b565b603d60f81b60018303525b508484525050819450505050505b919050565b612b4a84848484604051602401612ac89493929190613d55565b6040516020818303038152906040527fd5cf17d0000000000000000000000000000000000000000000000000000000007bffffffffffffffffffffffffffffffffffffffffffffffffffffffff19166020820180517bffffffffffffffffffffffffffffffffffffffffffffffffffffffff8381831617835250505050612cb7565b50505050565b612be88282604051602401612b66929190613e09565b6040516020818303038152906040527f9710a9d0000000000000000000000000000000000000000000000000000000007bffffffffffffffffffffffffffffffffffffffffffffffffffffffff19166020820180517bffffffffffffffffffffffffffffffffffffffffffffffffffffffff8381831617835250505050612cb7565b5050565b600081600001549050919050565b612c14828260405180602001604052806000815250612e81565b5050565b612cb2838383604051602401612c3093929190613e39565b6040516020818303038152906040527f969cdd03000000000000000000000000000000000000000000000000000000007bffffffffffffffffffffffffffffffffffffffffffffffffffffffff19166020820180517bffffffffffffffffffffffffffffffffffffffffffffffffffffffff8381831617835250505050612cb7565b505050565b60008151905060006a636f6e736f6c652e6c6f679050602083016000808483855afa5050505050565b505050565b505050565b6000612d0b8473ffffffffffffffffffffffffffffffffffffffff16612edc565b15612e74578373ffffffffffffffffffffffffffffffffffffffff1663150b7a02612d34612174565b8786866040518563ffffffff1660e01b8152600401612d569493929190613c19565b602060405180830381600087803b158015612d7057600080fd5b505af1925050508015612da157506040513d601f19601f82011682018060405250810190612d9e9190613482565b60015b612e24573d8060008114612dd1576040519150601f19603f3d011682016040523d82523d6000602084013e612dd6565b606091505b50600081511415612e1c576040517f08c379a0000000000000000000000000000000000000000000000000000000008152600401612e1390613e77565b60405180910390fd5b805181602001fd5b63150b7a0260e01b7bffffffffffffffffffffffffffffffffffffffffffffffffffffffff1916817bffffffffffffffffffffffffffffffffffffffffffffffffffffffff191614915050612e79565b600190505b949350505050565b612e8b8383612eff565b612e986000848484612cea565b612ed7576040517f08c379a0000000000000000000000000000000000000000000000000000000008152600401612ece90613e77565b60405180910390fd5b505050565b6000808273ffffffffffffffffffffffffffffffffffffffff163b119050919050565b600073ffffffffffffffffffffffffffffffffffffffff168273ffffffffffffffffffffffffffffffffffffffff161415612f6f576040517f08c379a0000000000000000000000000000000000000000000000000000000008152600401612f6690613fd7565b60405180910390fd5b612f7881612108565b15612fb8576040517f08c379a0000000000000000000000000000000000000000000000000000000008152600401612faf90613ed7565b60405180910390fd5b612fc460008383612ce0565b6001600360008473ffffffffffffffffffffffffffffffffffffffff1673ffffffffffffffffffffffffffffffffffffffff16815260200190815260200160002060008282546130149190614231565b92505081905550816002600083815260200190815260200160002060006101000a81548173ffffffffffffffffffffffffffffffffffffffff021916908373ffffffffffffffffffffffffffffffffffffffff160217905550808273ffffffffffffffffffffffffffffffffffffffff16600073ffffffffffffffffffffffffffffffffffffffff167fddf252ad1be2c89b69c2b068fc378daa952ba7f163c4a11628f55a4df523b3ef60405160405180910390a46130d560008383612ce5565b5050565b6040518060a0016040528060608152602001606081526020016000815260200160008152602001600081525090565b6040518060c001604052806000815260200160608152602001606081526020016000815260200160008152602001600081525090565b82805461314a906143fc565b90600052602060002090601f01602090048101928261316c57600085556131b3565b82601f1061318557805160ff19168380011785556131b3565b828001600101855582156131b3579182015b828111156131b2578251825591602001919060010190613197565b5b5090506131c091906131c4565b5090565b5b808211156131dd5760008160009055506001016131c5565b5090565b60006131f46131ef84614173565b61414e565b90508281526020810184848401111561320c57600080fd5b6132178482856143ba565b509392505050565b60008135905061322e81614b8f565b92915050565b60008135905061324381614ba6565b92915050565b60008135905061325881614bbd565b92915050565b60008151905061326d81614bbd565b92915050565b600082601f83011261328457600080fd5b81356132948482602086016131e1565b91505092915050565b6000813590506132ac81614bd4565b92915050565b6000602082840312156132c457600080fd5b60006132d28482850161321f565b91505092915050565b600080604083850312156132ee57600080fd5b60006132fc8582860161321f565b925050602061330d8582860161321f565b9150509250929050565b60008060006060848603121561332c57600080fd5b600061333a8682870161321f565b935050602061334b8682870161321f565b925050604061335c8682870161329d565b9150509250925092565b6000806000806080858703121561337c57600080fd5b600061338a8782880161321f565b945050602061339b8782880161321f565b93505060406133ac8782880161329d565b925050606085013567ffffffffffffffff8111156133c957600080fd5b6133d587828801613273565b91505092959194509250565b600080604083850312156133f457600080fd5b60006134028582860161321f565b925050602061341385828601613234565b9150509250929050565b6000806040838503121561343057600080fd5b600061343e8582860161321f565b925050602061344f8582860161329d565b9150509250929050565b60006020828403121561346b57600080fd5b600061347984828501613249565b91505092915050565b60006020828403121561349457600080fd5b60006134a28482850161325e565b91505092915050565b6000602082840312156134bd57600080fd5b60006134cb8482850161329d565b91505092915050565b60006134e083836139f9565b905092915050565b6134f181614346565b82525050565b6000613502826141b4565b61350c81856141e2565b93508360208202850161351e856141a4565b8060005b8581101561355a578484038952815161353b85826134d4565b9450613546836141d5565b925060208a01995050600181019050613522565b50829750879550505050505092915050565b61357581614358565b82525050565b6000613586826141bf565b61359081856141f3565b93506135a08185602086016143c9565b6135a981614595565b840191505092915050565b60006135bf826141ca565b6135c98185614204565b93506135d98185602086016143c9565b6135e281614595565b840191505092915050565b60006135f8826141ca565b6136028185614215565b93506136128185602086016143c9565b61361b81614595565b840191505092915050565b6000613631826141ca565b61363b8185614226565b935061364b8185602086016143c9565b80840191505092915050565b6000613664600b83614226565b915061366f826145a6565b600b82019050919050565b6000613687603283614215565b9150613692826145cf565b604082019050919050565b60006136aa602583614215565b91506136b58261461e565b604082019050919050565b60006136cd602883614215565b91506136d88261466d565b604082019050919050565b60006136f0601c83614215565b91506136fb826146bc565b602082019050919050565b6000613713603283614226565b915061371e826146e5565b603282019050919050565b6000613736600e83614226565b915061374182614734565b600e82019050919050565b6000613759602483614215565b91506137648261475d565b604082019050919050565b600061377c601983614215565b9150613787826147ac565b602082019050919050565b600061379f602c83614215565b91506137aa826147d5565b604082019050919050565b60006137c2603883614215565b91506137cd82614824565b604082019050919050565b60006137e5602a83614215565b91506137f082614873565b604082019050919050565b6000613808602983614215565b9150613813826148c2565b604082019050919050565b600061382b602d83614215565b915061383682614911565b604082019050919050565b600061384e600483614226565b915061385982614960565b600482019050919050565b6000613871602083614215565b915061387c82614989565b602082019050919050565b6000613894602c83614215565b915061389f826149b2565b604082019050919050565b60006138b7600a83614226565b91506138c282614a01565b600a82019050919050565b60006138da602183614215565b91506138e582614a2a565b604082019050919050565b60006138fd601d83614226565b915061390882614a79565b601d82019050919050565b6000613920603183614215565b915061392b82614aa2565b604082019050919050565b6000613943603d83614226565b915061394e82614af1565b603d82019050919050565b6000613966602d83614226565b915061397182614b40565b602d82019050919050565b600060a083016000830151848203600086015261399982826135b4565b915050602083015184820360208601526139b382826135b4565b91505060408301516139c86040860182613b19565b5060608301516139db6060860182613b19565b5060808301516139ee6080860182613b19565b508091505092915050565b600060c083016000830151613a116000860182613b19565b5060208301518482036020860152613a2982826135b4565b91505060408301518482036040860152613a4382826135b4565b9150506060830151613a586060860182613b19565b506080830151613a6b6080860182613b19565b5060a0830151613a7e60a0860182613b19565b508091505092915050565b600060c083016000830151613aa16000860182613b19565b5060208301518482036020860152613ab982826135b4565b91505060408301518482036040860152613ad382826135b4565b9150506060830151613ae86060860182613b19565b506080830151613afb6080860182613b19565b5060a0830151613b0e60a0860182613b19565b508091505092915050565b613b22816143b0565b82525050565b613b31816143b0565b82525050565b6000613b42826138aa565b9150613b4e8289613626565b9150613b5982613657565b9150613b658288613626565b9150613b7082613706565b9150613b7c8287613626565b9150613b8782613936565b9150613b938286613626565b9150613b9e82613729565b9150613baa8285613626565b9150613bb582613959565b9150613bc18284613626565b9150613bcc82613841565b9150819050979650505050505050565b6000613be7826138f0565b9150613bf38284613626565b915081905092915050565b6000602082019050613c1360008301846134e8565b92915050565b6000608082019050613c2e60008301876134e8565b613c3b60208301866134e8565b613c486040830185613b28565b8181036060830152613c5a818461357b565b905095945050505050565b6000606082019050613c7a60008301866134e8565b613c876020830185613b28565b613c946040830184613b28565b949350505050565b60006020820190508181036000830152613cb681846134f7565b905092915050565b6000602082019050613cd3600083018461356c565b92915050565b60006020820190508181036000830152613cf381846135ed565b905092915050565b60006080820190508181036000830152613d1581876135ed565b90508181036020830152613d2981866135ed565b9050613d386040830185613b28565b8181036060830152613d4a81846135ed565b905095945050505050565b60006080820190508181036000830152613d6f81876135ed565b90508181036020830152613d8381866135ed565b9050613d926040830185613b28565b613d9f6060830184613b28565b95945050505050565b600060a0820190508181036000830152613dc281886135ed565b90508181036020830152613dd681876135ed565b9050613de56040830186613b28565b613df26060830185613b28565b613dff6080830184613b28565b9695505050505050565b60006040820190508181036000830152613e2381856135ed565b9050613e326020830184613b28565b9392505050565b60006060820190508181036000830152613e5381866135ed565b9050613e626020830185613b28565b613e6f6040830184613b28565b949350505050565b60006020820190508181036000830152613e908161367a565b9050919050565b60006020820190508181036000830152613eb08161369d565b9050919050565b60006020820190508181036000830152613ed0816136c0565b9050919050565b60006020820190508181036000830152613ef0816136e3565b9050919050565b60006020820190508181036000830152613f108161374c565b9050919050565b60006020820190508181036000830152613f308161376f565b9050919050565b60006020820190508181036000830152613f5081613792565b9050919050565b60006020820190508181036000830152613f70816137b5565b9050919050565b60006020820190508181036000830152613f90816137d8565b9050919050565b60006020820190508181036000830152613fb0816137fb565b9050919050565b60006020820190508181036000830152613fd08161381e565b9050919050565b60006020820190508181036000830152613ff081613864565b9050919050565b6000602082019050818103600083015261401081613887565b9050919050565b60006020820190508181036000830152614030816138cd565b9050919050565b6000602082019050818103600083015261405081613913565b9050919050565b60006020820190508181036000830152614071818461397c565b905092915050565b600060208201905081810360008301526140938184613a89565b905092915050565b60006020820190506140b06000830184613b28565b92915050565b600060c0820190506140cb6000830189613b28565b81810360208301526140dd81886135ed565b905081810360408301526140f181876135ed565b90506141006060830186613b28565b61410d6080830185613b28565b61411a60a0830184613b28565b979650505050505050565b600060408201905061413a6000830185613b28565b6141476020830184613b28565b9392505050565b6000614158614169565b9050614164828261442e565b919050565b6000604051905090565b600067ffffffffffffffff82111561418e5761418d614566565b5b61419782614595565b9050602081019050919050565b6000819050602082019050919050565b600081519050919050565b600081519050919050565b600081519050919050565b6000602082019050919050565b600082825260208201905092915050565b600082825260208201905092915050565b600082825260208201905092915050565b600082825260208201905092915050565b600081905092915050565b600061423c826143b0565b9150614247836143b0565b9250827fffffffffffffffffffffffffffffffffffffffffffffffffffffffffffffffff0382111561427c5761427b6144d9565b5b828201905092915050565b6000614292826143b0565b915061429d836143b0565b9250826142ad576142ac614508565b5b828204905092915050565b60006142c3826143b0565b91506142ce836143b0565b9250817fffffffffffffffffffffffffffffffffffffffffffffffffffffffffffffffff0483118215151615614307576143066144d9565b5b828202905092915050565b600061431d826143b0565b9150614328836143b0565b92508282101561433b5761433a6144d9565b5b828203905092915050565b600061435182614390565b9050919050565b60008115159050919050565b60007fffffffff0000000000000000000000000000000000000000000000000000000082169050919050565b600073ffffffffffffffffffffffffffffffffffffffff82169050919050565b6000819050919050565b82818337600083830152505050565b60005b838110156143e75780820151818401526020810190506143cc565b838111156143f6576000848401525b50505050565b6000600282049050600182168061441457607f821691505b6020821081141561442857614427614537565b5b50919050565b61443782614595565b810181811067ffffffffffffffff8211171561445657614455614566565b5b80604052505050565b600061446a826143b0565b91507fffffffffffffffffffffffffffffffffffffffffffffffffffffffffffffffff82141561449d5761449c6144d9565b5b600182019050919050565b60006144b3826143b0565b91506144be836143b0565b9250826144ce576144cd614508565b5b828206905092915050565b7f4e487b7100000000000000000000000000000000000000000000000000000000600052601160045260246000fd5b7f4e487b7100000000000000000000000000000000000000000000000000000000600052601260045260246000fd5b7f4e487b7100000000000000000000000000000000000000000000000000000000600052602260045260246000fd5b7f4e487b7100000000000000000000000000000000000000000000000000000000600052604160045260246000fd5b6000601f19601f8301169050919050565b7f202d2d204e465420233a20000000000000000000000000000000000000000000600082015250565b7f4552433732313a207472616e7366657220746f206e6f6e20455243373231526560008201527f63656976657220696d706c656d656e7465720000000000000000000000000000602082015250565b7f4552433732313a207472616e736665722066726f6d20696e636f72726563742060008201527f6f776e6572000000000000000000000000000000000000000000000000000000602082015250565b7f4572726f723a20626f7373206d757374206861766520485020746f206174746160008201527f636b20626f73732e000000000000000000000000000000000000000000000000602082015250565b7f4552433732313a20746f6b656e20616c7265616479206d696e74656400000000600082015250565b7f222c20226465736372697074696f6e223a2022416e2065706963204e4654222c60008201527f2022696d616765223a2022697066733a2f2f0000000000000000000000000000602082015250565b7f2c20226d61785f76616c7565223a000000000000000000000000000000000000600082015250565b7f4552433732313a207472616e7366657220746f20746865207a65726f2061646460008201527f7265737300000000000000000000000000000000000000000000000000000000602082015250565b7f4552433732313a20617070726f766520746f2063616c6c657200000000000000600082015250565b7f4552433732313a206f70657261746f7220717565727920666f72206e6f6e657860008201527f697374656e7420746f6b656e0000000000000000000000000000000000000000602082015250565b7f4552433732313a20617070726f76652063616c6c6572206973206e6f74206f7760008201527f6e6572206e6f7220617070726f76656420666f7220616c6c0000000000000000602082015250565b7f4552433732313a2062616c616e636520717565727920666f7220746865207a6560008201527f726f206164647265737300000000000000000000000000000000000000000000602082015250565b7f4552433732313a206f776e657220717565727920666f72206e6f6e657869737460008201527f656e7420746f6b656e0000000000000000000000000000000000000000000000602082015250565b7f4572726f723a20636861726163746572206d757374206861766520485020746f60008201527f2061747461636b20626f73732e00000000000000000000000000000000000000602082015250565b7f7d205d7d00000000000000000000000000000000000000000000000000000000600082015250565b7f4552433732313a206d696e7420746f20746865207a65726f2061646472657373600082015250565b7f4552433732313a20617070726f76656420717565727920666f72206e6f6e657860008201527f697374656e7420746f6b656e0000000000000000000000000000000000000000602082015250565b7f7b226e616d65223a202200000000000000000000000000000000000000000000600082015250565b7f4552433732313a20617070726f76616c20746f2063757272656e74206f776e6560008201527f7200000000000000000000000000000000000000000000000000000000000000602082015250565b7f646174613a6170706c69636174696f6e2f6a736f6e3b6261736536342c000000600082015250565b7f4552433732313a207472616e736665722063616c6c6572206973206e6f74206f60008201527f776e6572206e6f7220617070726f766564000000000000000000000000000000602082015250565b7f222c202261747472696275746573223a205b207b202274726169745f7479706560008201527f223a20224865616c746820506f696e7473222c202276616c7565223a20000000602082015250565b7f7d2c207b202274726169745f74797065223a202241747461636b2044616d616760008201527f65222c202276616c7565223a2000000000000000000000000000000000000000602082015250565b614b9881614346565b8114614ba357600080fd5b50565b614baf81614358565b8114614bba57600080fd5b50565b614bc681614364565b8114614bd157600080fd5b50565b614bdd816143b0565b8114614be857600080fd5b5056fe506c617965722061747461636b656420626f73732e204e657720626f73732068703a2025734142434445464748494a4b4c4d4e4f505152535455565758595a6162636465666768696a6b6c6d6e6f707172737475767778797a303132333435363738392b2f426f73732061747461636b656420706c617965722e204e657720706c617965722068703a2025730a4d696e746564204e465420772f20746f6b656e496420257320616e6420636861726163746572496e6465782025730a506c6179657220772f206368617261637465722025732061626f757420746f2061747461636b2e2048617320257320485020616e64202573204144476976654261636b6564204e465420772f20746f6b656e496420257320616e6420636861726163746572496e646578202573a26469706673582212203ea39ed3f2a7d410f1c34283a6e279a2903912b3537911304d1aba6e7cbad4ef64736f6c63430008040033446f6e6520696e697469616c697a696e6720257320772f2048502025732c20696d67202573446f6e6520696e697469616c697a696e6720626f737320257320772f2048502025732c20696d67202573",
  "linkReferences": {},
  "deployedLinkReferences": {}
}