{
  "_format": "hh-sol-artifact-1",
  "contractName": "EpicGame",
  "sourceName": "contracts/EpicGame.sol",
  "abi": [
    {
      "inputs": [
        {
          "internalType": "string[]",
          "name": "characterNames",
          "type": "string[]"
        },
        {
          "internalType": "string[]",
          "name": "characterImageURIs",
          "type": "string[]"
        },
        {
          "internalType": "uint256[]",
          "name": "characterHp",
          "type": "uint256[]"
        },
        {
          "internalType": "uint256[]",
          "name": "characterAttackDmg",
          "type": "uint256[]"
        },
        {
          "internalType": "string",
          "name": "bossName",
          "type": "string"
        },
        {
          "internalType": "string",
          "name": "bossImageURI",
          "type": "string"
        },
        {
          "internalType": "uint256",
          "name": "bossHp",
          "type": "uint256"
        },
        {
          "internalType": "uint256",
          "name": "bossAttackDamage",
          "type": "uint256"
        }
      ],
      "stateMutability": "nonpayable",
      "type": "constructor"
    },
    {
      "anonymous": false,
      "inputs": [
        {
          "indexed": true,
          "internalType": "address",
          "name": "owner",
          "type": "address"
        },
        {
          "indexed": true,
          "internalType": "address",
          "name": "approved",
          "type": "address"
        },
        {
          "indexed": true,
          "internalType": "uint256",
          "name": "tokenId",
          "type": "uint256"
        }
      ],
      "name": "Approval",
      "type": "event"
    },
    {
      "anonymous": false,
      "inputs": [
        {
          "indexed": true,
          "internalType": "address",
          "name": "owner",
          "type": "address"
        },
        {
          "indexed": true,
          "internalType": "address",
          "name": "operator",
          "type": "address"
        },
        {
          "indexed": false,
          "internalType": "bool",
          "name": "approved",
          "type": "bool"
        }
      ],
      "name": "ApprovalForAll",
      "type": "event"
    },
    {
      "anonymous": false,
      "inputs": [
        {
          "indexed": false,
          "internalType": "uint256",
          "name": "newBossHp",
          "type": "uint256"
        },
        {
          "indexed": false,
          "internalType": "uint256",
          "name": "newPlayerHp",
          "type": "uint256"
        }
      ],
      "name": "AttackComplete",
      "type": "event"
    },
    {
      "anonymous": false,
      "inputs": [
        {
          "indexed": false,
          "internalType": "address",
          "name": "sender",
          "type": "address"
        },
        {
          "indexed": false,
          "internalType": "uint256",
          "name": "tokenId",
          "type": "uint256"
        },
        {
          "indexed": false,
          "internalType": "uint256",
          "name": "characterIndex",
          "type": "uint256"
        }
      ],
      "name": "CharacterNFTMinted",
      "type": "event"
    },
    {
      "anonymous": false,
      "inputs": [
        {
          "indexed": false,
          "internalType": "uint256",
          "name": "newBossHp",
          "type": "uint256"
        },
        {
          "indexed": false,
          "internalType": "uint256",
          "name": "newPlayerHp",
          "type": "uint256"
        }
      ],
      "name": "HealComplete",
      "type": "event"
    },
    {
      "anonymous": false,
      "inputs": [
        {
          "indexed": true,
          "internalType": "address",
          "name": "from",
          "type": "address"
        },
        {
          "indexed": true,
          "internalType": "address",
          "name": "to",
          "type": "address"
        },
        {
          "indexed": true,
          "internalType": "uint256",
          "name": "tokenId",
          "type": "uint256"
        }
      ],
      "name": "Transfer",
      "type": "event"
    },
    {
      "inputs": [
        {
          "internalType": "address",
          "name": "to",
          "type": "address"
        },
        {
          "internalType": "uint256",
          "name": "tokenId",
          "type": "uint256"
        }
      ],
      "name": "approve",
      "outputs": [],
      "stateMutability": "nonpayable",
      "type": "function"
    },
    {
      "inputs": [],
      "name": "attackBoss",
      "outputs": [],
      "stateMutability": "nonpayable",
      "type": "function"
    },
    {
      "inputs": [
        {
          "internalType": "address",
          "name": "owner",
          "type": "address"
        }
      ],
      "name": "balanceOf",
      "outputs": [
        {
          "internalType": "uint256",
          "name": "",
          "type": "uint256"
        }
      ],
      "stateMutability": "view",
      "type": "function"
    },
    {
      "inputs": [],
      "name": "bigBoss",
      "outputs": [
        {
          "internalType": "string",
          "name": "name",
          "type": "string"
        },
        {
          "internalType": "string",
          "name": "imageURI",
          "type": "string"
        },
        {
          "internalType": "uint256",
          "name": "hp",
          "type": "uint256"
        },
        {
          "internalType": "uint256",
          "name": "maxHp",
          "type": "uint256"
        },
        {
          "internalType": "uint256",
          "name": "attackDamage",
          "type": "uint256"
        }
      ],
      "stateMutability": "view",
      "type": "function"
    },
    {
      "inputs": [],
      "name": "checkIfUserHasNFT",
      "outputs": [
        {
          "components": [
            {
              "internalType": "uint256",
              "name": "characterIndex",
              "type": "uint256"
            },
            {
              "internalType": "string",
              "name": "name",
              "type": "string"
            },
            {
              "internalType": "string",
              "name": "imageURI",
              "type": "string"
            },
            {
              "internalType": "uint256",
              "name": "hp",
              "type": "uint256"
            },
            {
              "internalType": "uint256",
              "name": "maxHp",
              "type": "uint256"
            },
            {
              "internalType": "uint256",
              "name": "attackDamage",
              "type": "uint256"
            }
          ],
          "internalType": "struct EpicGame.CharacterAttributes",
          "name": "",
          "type": "tuple"
        }
      ],
      "stateMutability": "view",
      "type": "function"
    },
    {
      "inputs": [],
      "name": "getAllDefaultCharacters",
      "outputs": [
        {
          "components": [
            {
              "internalType": "uint256",
              "name": "characterIndex",
              "type": "uint256"
            },
            {
              "internalType": "string",
              "name": "name",
              "type": "string"
            },
            {
              "internalType": "string",
              "name": "imageURI",
              "type": "string"
            },
            {
              "internalType": "uint256",
              "name": "hp",
              "type": "uint256"
            },
            {
              "internalType": "uint256",
              "name": "maxHp",
              "type": "uint256"
            },
            {
              "internalType": "uint256",
              "name": "attackDamage",
              "type": "uint256"
            }
          ],
          "internalType": "struct EpicGame.CharacterAttributes[]",
          "name": "",
          "type": "tuple[]"
        }
      ],
      "stateMutability": "view",
      "type": "function"
    },
    {
      "inputs": [
        {
          "internalType": "uint256",
          "name": "tokenId",
          "type": "uint256"
        }
      ],
      "name": "getApproved",
      "outputs": [
        {
          "internalType": "address",
          "name": "",
          "type": "address"
        }
      ],
      "stateMutability": "view",
      "type": "function"
    },
    {
      "inputs": [],
      "name": "getBigBoss",
      "outputs": [
        {
          "components": [
            {
              "internalType": "string",
              "name": "name",
              "type": "string"
            },
            {
              "internalType": "string",
              "name": "imageURI",
              "type": "string"
            },
            {
              "internalType": "uint256",
              "name": "hp",
              "type": "uint256"
            },
            {
              "internalType": "uint256",
              "name": "maxHp",
              "type": "uint256"
            },
            {
              "internalType": "uint256",
              "name": "attackDamage",
              "type": "uint256"
            }
          ],
          "internalType": "struct EpicGame.BigBoss",
          "name": "",
          "type": "tuple"
        }
      ],
      "stateMutability": "view",
      "type": "function"
    },
    {
      "inputs": [],
      "name": "healHP",
      "outputs": [],
      "stateMutability": "nonpayable",
      "type": "function"
    },
    {
      "inputs": [
        {
          "internalType": "address",
          "name": "owner",
          "type": "address"
        },
        {
          "internalType": "address",
          "name": "operator",
          "type": "address"
        }
      ],
      "name": "isApprovedForAll",
      "outputs": [
        {
          "internalType": "bool",
          "name": "",
          "type": "bool"
        }
      ],
      "stateMutability": "view",
      "type": "function"
    },
    {
      "inputs": [
        {
          "internalType": "uint256",
          "name": "_characterIndex",
          "type": "uint256"
        }
      ],
      "name": "mintCharacterNFT",
      "outputs": [],
      "stateMutability": "nonpayable",
      "type": "function"
    },
    {
      "inputs": [],
      "name": "name",
      "outputs": [
        {
          "internalType": "string",
          "name": "",
          "type": "string"
        }
      ],
      "stateMutability": "view",
      "type": "function"
    },
    {
      "inputs": [
        {
          "internalType": "uint256",
          "name": "",
          "type": "uint256"
        }
      ],
      "name": "nftHolderAttributes",
      "outputs": [
        {
          "internalType": "uint256",
          "name": "characterIndex",
          "type": "uint256"
        },
        {
          "internalType": "string",
          "name": "name",
          "type": "string"
        },
        {
          "internalType": "string",
          "name": "imageURI",
          "type": "string"
        },
        {
          "internalType": "uint256",
          "name": "hp",
          "type": "uint256"
        },
        {
          "internalType": "uint256",
          "name": "maxHp",
          "type": "uint256"
        },
        {
          "internalType": "uint256",
          "name": "attackDamage",
          "type": "uint256"
        }
      ],
      "stateMutability": "view",
      "type": "function"
    },
    {
      "inputs": [
        {
          "internalType": "address",
          "name": "",
          "type": "address"
        }
      ],
      "name": "nftHolders",
      "outputs": [
        {
          "internalType": "uint256",
          "name": "",
          "type": "uint256"
        }
      ],
      "stateMutability": "view",
      "type": "function"
    },
    {
      "inputs": [
        {
          "internalType": "uint256",
          "name": "tokenId",
          "type": "uint256"
        }
      ],
      "name": "ownerOf",
      "outputs": [
        {
          "internalType": "address",
          "name": "",
          "type": "address"
        }
      ],
      "stateMutability": "view",
      "type": "function"
    },
    {
      "inputs": [
        {
          "internalType": "address",
          "name": "from",
          "type": "address"
        },
        {
          "internalType": "address",
          "name": "to",
          "type": "address"
        },
        {
          "internalType": "uint256",
          "name": "tokenId",
          "type": "uint256"
        }
      ],
      "name": "safeTransferFrom",
      "outputs": [],
      "stateMutability": "nonpayable",
      "type": "function"
    },
    {
      "inputs": [
        {
          "internalType": "address",
          "name": "from",
          "type": "address"
        },
        {
          "internalType": "address",
          "name": "to",
          "type": "address"
        },
        {
          "internalType": "uint256",
          "name": "tokenId",
          "type": "uint256"
        },
        {
          "internalType": "bytes",
          "name": "_data",
          "type": "bytes"
        }
      ],
      "name": "safeTransferFrom",
      "outputs": [],
      "stateMutability": "nonpayable",
      "type": "function"
    },
    {
      "inputs": [
        {
          "internalType": "address",
          "name": "operator",
          "type": "address"
        },
        {
          "internalType": "bool",
          "name": "approved",
          "type": "bool"
        }
      ],
      "name": "setApprovalForAll",
      "outputs": [],
      "stateMutability": "nonpayable",
      "type": "function"
    },
    {
      "inputs": [
        {
          "internalType": "bytes4",
          "name": "interfaceId",
          "type": "bytes4"
        }
      ],
      "name": "supportsInterface",
      "outputs": [
        {
          "internalType": "bool",
          "name": "",
          "type": "bool"
        }
      ],
      "stateMutability": "view",
      "type": "function"
    },
    {
      "inputs": [],
      "name": "symbol",
      "outputs": [
        {
          "internalType": "string",
          "name": "",
          "type": "string"
        }
      ],
      "stateMutability": "view",
      "type": "function"
    },
    {
      "inputs": [
        {
          "internalType": "uint256",
          "name": "_tokenId",
          "type": "uint256"
        }
      ],
      "name": "tokenURI",
      "outputs": [
        {
          "internalType": "string",
          "name": "",
          "type": "string"
        }
      ],
      "stateMutability": "view",
      "type": "function"
    },
    {
      "inputs": [
        {
          "internalType": "address",
          "name": "from",
          "type": "address"
        },
        {
          "internalType": "address",
          "name": "to",
          "type": "address"
        },
        {
          "internalType": "uint256",
          "name": "tokenId",
          "type": "uint256"
        }
      ],
      "name": "transferFrom",
      "outputs": [],
      "stateMutability": "nonpayable",
      "type": "function"
    }
  ],
  "bytecode": "0x60806040523480156200001157600080fd5b506040516200599438038062005994833981810160405281019062000037919062000a85565b6040518060400160405280600c81526020017f47686f737420426174746c6500000000000000000000000000000000000000008152506040518060400160405280600381526020017f47484200000000000000000000000000000000000000000000000000000000008152508160009080519060200190620000bb929190620007ed565b508060019080519060200190620000d4929190620007ed565b5050506040518060a0016040528085815260200184815260200183815260200183815260200182815250600660008201518160000190805190602001906200011e929190620007ed565b5060208201518160010190805190602001906200013d929190620007ed565b50604082015181600201556060820151816003015560808201518160040155905050620002c06040518060600160405280602a81526020016200596a602a9139600660000180546200018f9062000e08565b80601f0160208091040260200160405190810160405280929190818152602001828054620001bd9062000e08565b80156200020e5780601f10620001e2576101008083540402835291602001916200020e565b820191906000526020600020905b815481529060010190602001808311620001f057829003601f168201915b5050505050600660020154600660010180546200022b9062000e08565b80601f0160208091040260200160405190810160405280929190818152602001828054620002599062000e08565b8015620002aa5780601f106200027e57610100808354040283529160200191620002aa565b820191906000526020600020905b8154815290600101906020018083116200028c57829003601f168201915b50505050506200070260201b62001cd71760201c565b60005b8851811015620006f357600c6040518060c001604052808381526020018b84815181106200031a577f4e487b7100000000000000000000000000000000000000000000000000000000600052603260045260246000fd5b602002602001015181526020018a848151811062000361577f4e487b7100000000000000000000000000000000000000000000000000000000600052603260045260246000fd5b60200260200101518152602001898481518110620003a8577f4e487b7100000000000000000000000000000000000000000000000000000000600052603260045260246000fd5b60200260200101518152602001898481518110620003ef577f4e487b7100000000000000000000000000000000000000000000000000000000600052603260045260246000fd5b6020026020010151815260200188848151811062000436577f4e487b7100000000000000000000000000000000000000000000000000000000600052603260045260246000fd5b6020026020010151815250908060018154018082558091505060019003906000526020600020906006020160009091909190915060008201518160000155602082015181600101908051906020019062000492929190620007ed565b506040820151816002019080519060200190620004b1929190620007ed565b50606082015181600301556080820151816004015560a0820151816005015550506000600c82815481106200050f577f4e487b7100000000000000000000000000000000000000000000000000000000600052603260045260246000fd5b90600052602060002090600602016040518060c001604052908160008201548152602001600182018054620005449062000e08565b80601f0160208091040260200160405190810160405280929190818152602001828054620005729062000e08565b8015620005c35780601f106200059757610100808354040283529160200191620005c3565b820191906000526020600020905b815481529060010190602001808311620005a557829003601f168201915b50505050508152602001600282018054620005de9062000e08565b80601f01602080910402602001604051908101604052809291908181526020018280546200060c9062000e08565b80156200065d5780601f1062000631576101008083540402835291602001916200065d565b820191906000526020600020905b8154815290600101906020018083116200063f57829003601f168201915b5050505050815260200160038201548152602001600482015481526020016005820154815250509050620006c460405180606001604052806025815260200162005945602591398260200151836060015184604001516200070260201b62001cd71760201c565b620006db600b620007ae60201b62001d791760201c565b50600181620006eb919062000d6b565b9050620002c3565b50505050505050505062000f2c565b620007a8848484846040516024016200071f949392919062000c30565b6040516020818303038152906040527f8d142cdd000000000000000000000000000000000000000000000000000000007bffffffffffffffffffffffffffffffffffffffffffffffffffffffff19166020820180517bffffffffffffffffffffffffffffffffffffffffffffffffffffffff8381831617835250505050620007c460201b60201c565b50505050565b6001816000016000828254019250508190555050565b60008151905060006a636f6e736f6c652e6c6f679050602083016000808483855afa5050505050565b828054620007fb9062000e08565b90600052602060002090601f0160209004810192826200081f57600085556200086b565b82601f106200083a57805160ff19168380011785556200086b565b828001600101855582156200086b579182015b828111156200086a5782518255916020019190600101906200084d565b5b5090506200087a91906200087e565b5090565b5b80821115620008995760008160009055506001016200087f565b5090565b6000620008b4620008ae8462000cbb565b62000c92565b90508083825260208201905082856020860282011115620008d457600080fd5b60005b858110156200092357815167ffffffffffffffff811115620008f857600080fd5b80860162000907898262000a41565b85526020850194506020840193505050600181019050620008d7565b5050509392505050565b6000620009446200093e8462000cea565b62000c92565b905080838252602082019050828560208602820111156200096457600080fd5b60005b858110156200099857816200097d888262000a6e565b84526020840193506020830192505060018101905062000967565b5050509392505050565b6000620009b9620009b38462000d19565b62000c92565b905082815260208101848484011115620009d257600080fd5b620009df84828562000dd2565b509392505050565b600082601f830112620009f957600080fd5b815162000a0b8482602086016200089d565b91505092915050565b600082601f83011262000a2657600080fd5b815162000a388482602086016200092d565b91505092915050565b600082601f83011262000a5357600080fd5b815162000a65848260208601620009a2565b91505092915050565b60008151905062000a7f8162000f12565b92915050565b600080600080600080600080610100898b03121562000aa357600080fd5b600089015167ffffffffffffffff81111562000abe57600080fd5b62000acc8b828c01620009e7565b985050602089015167ffffffffffffffff81111562000aea57600080fd5b62000af88b828c01620009e7565b975050604089015167ffffffffffffffff81111562000b1657600080fd5b62000b248b828c0162000a14565b965050606089015167ffffffffffffffff81111562000b4257600080fd5b62000b508b828c0162000a14565b955050608089015167ffffffffffffffff81111562000b6e57600080fd5b62000b7c8b828c0162000a41565b94505060a089015167ffffffffffffffff81111562000b9a57600080fd5b62000ba88b828c0162000a41565b93505060c062000bbb8b828c0162000a6e565b92505060e062000bce8b828c0162000a6e565b9150509295985092959890939650565b600062000beb8262000d4f565b62000bf7818562000d5a565b935062000c0981856020860162000dd2565b62000c148162000f01565b840191505092915050565b62000c2a8162000dc8565b82525050565b6000608082019050818103600083015262000c4c818762000bde565b9050818103602083015262000c62818662000bde565b905062000c73604083018562000c1f565b818103606083015262000c87818462000bde565b905095945050505050565b600062000c9e62000cb1565b905062000cac828262000e3e565b919050565b6000604051905090565b600067ffffffffffffffff82111562000cd95762000cd862000ed2565b5b602082029050602081019050919050565b600067ffffffffffffffff82111562000d085762000d0762000ed2565b5b602082029050602081019050919050565b600067ffffffffffffffff82111562000d375762000d3662000ed2565b5b62000d428262000f01565b9050602081019050919050565b600081519050919050565b600082825260208201905092915050565b600062000d788262000dc8565b915062000d858362000dc8565b9250827fffffffffffffffffffffffffffffffffffffffffffffffffffffffffffffffff0382111562000dbd5762000dbc62000e74565b5b828201905092915050565b6000819050919050565b60005b8381101562000df257808201518184015260208101905062000dd5565b8381111562000e02576000848401525b50505050565b6000600282049050600182168062000e2157607f821691505b6020821081141562000e385762000e3762000ea3565b5b50919050565b62000e498262000f01565b810181811067ffffffffffffffff8211171562000e6b5762000e6a62000ed2565b5b80604052505050565b7f4e487b7100000000000000000000000000000000000000000000000000000000600052601160045260246000fd5b7f4e487b7100000000000000000000000000000000000000000000000000000000600052602260045260246000fd5b7f4e487b7100000000000000000000000000000000000000000000000000000000600052604160045260246000fd5b6000601f19601f8301169050919050565b62000f1d8162000dc8565b811462000f2957600080fd5b50565b614a098062000f3c6000396000f3fe608060405234801561001057600080fd5b50600436106101425760003560e01c806398da4c95116100b8578063b953084e1161007c578063b953084e1461037e578063c87b56dd1461039c578063c8cf27f4146103cc578063d4f24c5b146103ea578063e985e9c5146103f4578063f8b81ef71461042457610142565b806398da4c95146102e55780639c3112991461031a578063a22cb46514610324578063a9c3267914610340578063b88d4fde1461036257610142565b806323b872dd1161010a57806323b872dd146101ff57806342842e0e1461021b5780636352211e1461023757806370a08231146102675780637df124a11461029757806395d89b41146102c757610142565b806301ffc9a7146101475780630665f9611461017757806306fdde0314610195578063081812fc146101b3578063095ea7b3146101e3575b600080fd5b610161600480360381019061015c919061314a565b610440565b60405161016e91906139af565b60405180910390f35b61017f610522565b60405161018c9190613d48565b60405180910390f35b61019d61067e565b6040516101aa91906139ca565b60405180910390f35b6101cd60048036038101906101c8919061319c565b610710565b6040516101da91906138ef565b60405180910390f35b6101fd60048036038101906101f8919061310e565b610795565b005b61021960048036038101906102149190613008565b6108ad565b005b61023560048036038101906102309190613008565b61090d565b005b610251600480360381019061024c919061319c565b61092d565b60405161025e91906138ef565b60405180910390f35b610281600480360381019061027c9190612fa3565b6109df565b60405161028e9190613d8c565b60405180910390f35b6102b160048036038101906102ac9190612fa3565b610a97565b6040516102be9190613d8c565b60405180910390f35b6102cf610aaf565b6040516102dc91906139ca565b60405180910390f35b6102ff60048036038101906102fa919061319c565b610b41565b60405161031196959493929190613da7565b60405180910390f35b610322610c8d565b005b61033e600480360381019061033991906130d2565b610d7a565b005b610348610d90565b604051610359959493929190613a99565b60405180910390f35b61037c60048036038101906103779190613057565b610ec4565b005b610386610f26565b604051610393919061398d565b60405180910390f35b6103b660048036038101906103b1919061319c565b6110d1565b6040516103c391906139ca565b60405180910390f35b6103d46112ec565b6040516103e19190613d6a565b60405180910390f35b6103f26114c4565b005b61040e60048036038101906104099190612fcc565b61184f565b60405161041b91906139af565b60405180910390f35b61043e6004803603810190610439919061319c565b6118e3565b005b60007f80ac58cd000000000000000000000000000000000000000000000000000000007bffffffffffffffffffffffffffffffffffffffffffffffffffffffff1916827bffffffffffffffffffffffffffffffffffffffffffffffffffffffff1916148061050b57507f5b5e139f000000000000000000000000000000000000000000000000000000007bffffffffffffffffffffffffffffffffffffffffffffffffffffffff1916827bffffffffffffffffffffffffffffffffffffffffffffffffffffffff1916145b8061051b575061051a82611d8f565b5b9050919050565b61052a612dca565b60066040518060a0016040529081600082018054610547906140ed565b80601f0160208091040260200160405190810160405280929190818152602001828054610573906140ed565b80156105c05780601f10610595576101008083540402835291602001916105c0565b820191906000526020600020905b8154815290600101906020018083116105a357829003601f168201915b505050505081526020016001820180546105d9906140ed565b80601f0160208091040260200160405190810160405280929190818152602001828054610605906140ed565b80156106525780601f1061062757610100808354040283529160200191610652565b820191906000526020600020905b81548152906001019060200180831161063557829003601f168201915b505050505081526020016002820154815260200160038201548152602001600482015481525050905090565b60606000805461068d906140ed565b80601f01602080910402602001604051908101604052809291908181526020018280546106b9906140ed565b80156107065780601f106106db57610100808354040283529160200191610706565b820191906000526020600020905b8154815290600101906020018083116106e957829003601f168201915b5050505050905090565b600061071b82611df9565b61075a576040517f08c379a000000000000000000000000000000000000000000000000000000000815260040161075190613ce8565b60405180910390fd5b6004600083815260200190815260200160002060009054906101000a900473ffffffffffffffffffffffffffffffffffffffff169050919050565b60006107a08261092d565b90508073ffffffffffffffffffffffffffffffffffffffff168373ffffffffffffffffffffffffffffffffffffffff161415610811576040517f08c379a000000000000000000000000000000000000000000000000000000000815260040161080890613d08565b60405180910390fd5b8073ffffffffffffffffffffffffffffffffffffffff16610830611e65565b73ffffffffffffffffffffffffffffffffffffffff16148061085f575061085e81610859611e65565b61184f565b5b61089e576040517f08c379a000000000000000000000000000000000000000000000000000000000815260040161089590613c48565b60405180910390fd5b6108a88383611e6d565b505050565b6108be6108b8611e65565b82611f26565b6108fd576040517f08c379a00000000000000000000000000000000000000000000000000000000081526004016108f490613d28565b60405180910390fd5b610908838383612004565b505050565b61092883838360405180602001604052806000815250610ec4565b505050565b6000806002600084815260200190815260200160002060009054906101000a900473ffffffffffffffffffffffffffffffffffffffff169050600073ffffffffffffffffffffffffffffffffffffffff168173ffffffffffffffffffffffffffffffffffffffff1614156109d6576040517f08c379a00000000000000000000000000000000000000000000000000000000081526004016109cd90613c88565b60405180910390fd5b80915050919050565b60008073ffffffffffffffffffffffffffffffffffffffff168273ffffffffffffffffffffffffffffffffffffffff161415610a50576040517f08c379a0000000000000000000000000000000000000000000000000000000008152600401610a4790613c68565b60405180910390fd5b600360008373ffffffffffffffffffffffffffffffffffffffff1673ffffffffffffffffffffffffffffffffffffffff168152602001908152602001600020549050919050565b600e6020528060005260406000206000915090505481565b606060018054610abe906140ed565b80601f0160208091040260200160405190810160405280929190818152602001828054610aea906140ed565b8015610b375780601f10610b0c57610100808354040283529160200191610b37565b820191906000526020600020905b815481529060010190602001808311610b1a57829003601f168201915b5050505050905090565b600d602052806000526040600020600091509050806000015490806001018054610b6a906140ed565b80601f0160208091040260200160405190810160405280929190818152602001828054610b96906140ed565b8015610be35780601f10610bb857610100808354040283529160200191610be3565b820191906000526020600020905b815481529060010190602001808311610bc657829003601f168201915b505050505090806002018054610bf8906140ed565b80601f0160208091040260200160405190810160405280929190818152602001828054610c24906140ed565b8015610c715780601f10610c4657610100808354040283529160200191610c71565b820191906000526020600020905b815481529060010190602001808311610c5457829003601f168201915b5050505050908060030154908060040154908060050154905086565b6000600e60003373ffffffffffffffffffffffffffffffffffffffff1673ffffffffffffffffffffffffffffffffffffffff168152602001908152602001600020549050600080600d6000848152602001908152602001600020905060038160050154610cfa9190613fa9565b8160030154610d099190613f22565b91508060040154821115610d295780600401548160030181905550610d33565b8181600301819055505b7fbe48ddc4757287d79e6453c381ab1b1a1c1d18a4fdcf61bde378de226024f22c6006600201548260030154604051610d6d929190613e16565b60405180910390a1505050565b610d8c610d85611e65565b838361226b565b5050565b6006806000018054610da1906140ed565b80601f0160208091040260200160405190810160405280929190818152602001828054610dcd906140ed565b8015610e1a5780601f10610def57610100808354040283529160200191610e1a565b820191906000526020600020905b815481529060010190602001808311610dfd57829003601f168201915b505050505090806001018054610e2f906140ed565b80601f0160208091040260200160405190810160405280929190818152602001828054610e5b906140ed565b8015610ea85780601f10610e7d57610100808354040283529160200191610ea8565b820191906000526020600020905b815481529060010190602001808311610e8b57829003601f168201915b5050505050908060020154908060030154908060040154905085565b610ed5610ecf611e65565b83611f26565b610f14576040517f08c379a0000000000000000000000000000000000000000000000000000000008152600401610f0b90613d28565b60405180910390fd5b610f20848484846123d8565b50505050565b6060600c805480602002602001604051908101604052809291908181526020016000905b828210156110c857838290600052602060002090600602016040518060c001604052908160008201548152602001600182018054610f87906140ed565b80601f0160208091040260200160405190810160405280929190818152602001828054610fb3906140ed565b80156110005780601f10610fd557610100808354040283529160200191611000565b820191906000526020600020905b815481529060010190602001808311610fe357829003601f168201915b50505050508152602001600282018054611019906140ed565b80601f0160208091040260200160405190810160405280929190818152602001828054611045906140ed565b80156110925780601f1061106757610100808354040283529160200191611092565b820191906000526020600020905b81548152906001019060200180831161107557829003601f168201915b50505050508152602001600382015481526020016004820154815260200160058201548152505081526020019060010190610f4a565b50505050905090565b60606000600d60008481526020019081526020016000206040518060c00160405290816000820154815260200160018201805461110d906140ed565b80601f0160208091040260200160405190810160405280929190818152602001828054611139906140ed565b80156111865780601f1061115b57610100808354040283529160200191611186565b820191906000526020600020905b81548152906001019060200180831161116957829003601f168201915b5050505050815260200160028201805461119f906140ed565b80601f01602080910402602001604051908101604052809291908181526020018280546111cb906140ed565b80156112185780601f106111ed57610100808354040283529160200191611218565b820191906000526020600020905b8154815290600101906020018083116111fb57829003601f168201915b505050505081526020016003820154815260200160048201548152602001600582015481525050905060006112508260600151612434565b905060006112618360800151612434565b905060006112728460a00151612434565b905060006112b8856020015161128789612434565b87604001518787876040516020016112a496959493929190613828565b6040516020818303038152906040526125e1565b90506000816040516020016112cd91906138cd565b6040516020818303038152906040529050809650505050505050919050565b6112f4612df9565b6000600e60003373ffffffffffffffffffffffffffffffffffffffff1673ffffffffffffffffffffffffffffffffffffffff16815260200190815260200160002054905060008111156114b357600d60008281526020019081526020016000206040518060c001604052908160008201548152602001600182018054611379906140ed565b80601f01602080910402602001604051908101604052809291908181526020018280546113a5906140ed565b80156113f25780601f106113c7576101008083540402835291602001916113f2565b820191906000526020600020905b8154815290600101906020018083116113d557829003601f168201915b5050505050815260200160028201805461140b906140ed565b80601f0160208091040260200160405190810160405280929190818152602001828054611437906140ed565b80156114845780601f1061145957610100808354040283529160200191611484565b820191906000526020600020905b81548152906001019060200180831161146757829003601f168201915b5050505050815260200160038201548152602001600482015481526020016005820154815250509150506114c1565b6114bb612df9565b80925050505b90565b6000600e60003373ffffffffffffffffffffffffffffffffffffffff1673ffffffffffffffffffffffffffffffffffffffff1681526020019081526020016000205490506000600d600083815260200190815260200160002090506115d76040518060600160405280603c8152602001614998603c913982600101805461154a906140ed565b80601f0160208091040260200160405190810160405280929190818152602001828054611576906140ed565b80156115c35780601f10611598576101008083540402835291602001916115c3565b820191906000526020600020905b8154815290600101906020018083116115a657829003601f168201915b50505050508360030154846005015461279f565b6116af6040518060400160405280601b81526020017f426f73732025732068617320257320485020616e64202573204144000000000081525060066000018054611620906140ed565b80601f016020809104026020016040519081016040528092919081815260200182805461164c906140ed565b80156116995780601f1061166e57610100808354040283529160200191611699565b820191906000526020600020905b81548152906001019060200180831161167c57829003601f168201915b505050505060066002015460066004015461279f565b60008160030154116116f6576040517f08c379a00000000000000000000000000000000000000000000000000000000081526004016116ed90613ca8565b60405180910390fd5b60006006600201541161173e576040517f08c379a000000000000000000000000000000000000000000000000000000000815260040161173590613ba8565b60405180910390fd5b8060050154600660020154101561175f57600060066002018190555061177e565b80600501546006600201546117749190614003565b6006600201819055505b6006600401548160030154101561179e57600081600301819055506117bc565b60066004015481600301546117b39190614003565b81600301819055505b6117e36040518060600160405280602581526020016148dd60259139600660020154612841565b611809604051806060016040528060288152602001614942602891398260030154612841565b7f838ab28464562786a6c4ab2311964b82fa60bd9b14aa7e856af1f3f18d41a4146006600201548260030154604051611843929190613e16565b60405180910390a15050565b6000600560008473ffffffffffffffffffffffffffffffffffffffff1673ffffffffffffffffffffffffffffffffffffffff16815260200190815260200160002060008373ffffffffffffffffffffffffffffffffffffffff1673ffffffffffffffffffffffffffffffffffffffff16815260200190815260200160002060009054906101000a900460ff16905092915050565b60006118ef600b6128dd565b90506118fb33826128eb565b6040518060c00160405280838152602001600c8481548110611946577f4e487b7100000000000000000000000000000000000000000000000000000000600052603260045260246000fd5b90600052602060002090600602016001018054611962906140ed565b80601f016020809104026020016040519081016040528092919081815260200182805461198e906140ed565b80156119db5780601f106119b0576101008083540402835291602001916119db565b820191906000526020600020905b8154815290600101906020018083116119be57829003601f168201915b50505050508152602001600c8481548110611a1f577f4e487b7100000000000000000000000000000000000000000000000000000000600052603260045260246000fd5b90600052602060002090600602016002018054611a3b906140ed565b80601f0160208091040260200160405190810160405280929190818152602001828054611a67906140ed565b8015611ab45780601f10611a8957610100808354040283529160200191611ab4565b820191906000526020600020905b815481529060010190602001808311611a9757829003601f168201915b50505050508152602001600c8481548110611af8577f4e487b7100000000000000000000000000000000000000000000000000000000600052603260045260246000fd5b9060005260206000209060060201600301548152602001600c8481548110611b49577f4e487b7100000000000000000000000000000000000000000000000000000000600052603260045260246000fd5b9060005260206000209060060201600401548152602001600c8481548110611b9a577f4e487b7100000000000000000000000000000000000000000000000000000000600052603260045260246000fd5b906000526020600020906006020160050154815250600d6000838152602001908152602001600020600082015181600001556020820151816001019080519060200190611be8929190612e2f565b506040820151816002019080519060200190611c05929190612e2f565b50606082015181600301556080820151816004015560a08201518160050155905050611c4a6040518060600160405280602e815260200161496a602e91398284612909565b80600e60003373ffffffffffffffffffffffffffffffffffffffff1673ffffffffffffffffffffffffffffffffffffffff16815260200190815260200160002081905550611c98600b611d79565b7f4bc303fd457a97b4691b9af582ce71868a3d258638c8d4f8c60988a0f0bfb8cd338284604051611ccb93929190613956565b60405180910390a15050565b611d7384848484604051602401611cf194939291906139ec565b6040516020818303038152906040527f8d142cdd000000000000000000000000000000000000000000000000000000007bffffffffffffffffffffffffffffffffffffffffffffffffffffffff19166020820180517bffffffffffffffffffffffffffffffffffffffffffffffffffffffff83818316178352505050506129a8565b50505050565b6001816000016000828254019250508190555050565b60007f01ffc9a7000000000000000000000000000000000000000000000000000000007bffffffffffffffffffffffffffffffffffffffffffffffffffffffff1916827bffffffffffffffffffffffffffffffffffffffffffffffffffffffff1916149050919050565b60008073ffffffffffffffffffffffffffffffffffffffff166002600084815260200190815260200160002060009054906101000a900473ffffffffffffffffffffffffffffffffffffffff1673ffffffffffffffffffffffffffffffffffffffff1614159050919050565b600033905090565b816004600083815260200190815260200160002060006101000a81548173ffffffffffffffffffffffffffffffffffffffff021916908373ffffffffffffffffffffffffffffffffffffffff160217905550808273ffffffffffffffffffffffffffffffffffffffff16611ee08361092d565b73ffffffffffffffffffffffffffffffffffffffff167f8c5be1e5ebec7d5bd14f71427d1e84f3dd0314c0f7b2291e5b200ac8c7c3b92560405160405180910390a45050565b6000611f3182611df9565b611f70576040517f08c379a0000000000000000000000000000000000000000000000000000000008152600401611f6790613c28565b60405180910390fd5b6000611f7b8361092d565b90508073ffffffffffffffffffffffffffffffffffffffff168473ffffffffffffffffffffffffffffffffffffffff161480611fea57508373ffffffffffffffffffffffffffffffffffffffff16611fd284610710565b73ffffffffffffffffffffffffffffffffffffffff16145b80611ffb5750611ffa818561184f565b5b91505092915050565b8273ffffffffffffffffffffffffffffffffffffffff166120248261092d565b73ffffffffffffffffffffffffffffffffffffffff161461207a576040517f08c379a000000000000000000000000000000000000000000000000000000000815260040161207190613b88565b60405180910390fd5b600073ffffffffffffffffffffffffffffffffffffffff168273ffffffffffffffffffffffffffffffffffffffff1614156120ea576040517f08c379a00000000000000000000000000000000000000000000000000000000081526004016120e190613be8565b60405180910390fd5b6120f58383836129d1565b612100600082611e6d565b6001600360008573ffffffffffffffffffffffffffffffffffffffff1673ffffffffffffffffffffffffffffffffffffffff16815260200190815260200160002060008282546121509190614003565b925050819055506001600360008473ffffffffffffffffffffffffffffffffffffffff1673ffffffffffffffffffffffffffffffffffffffff16815260200190815260200160002060008282546121a79190613f22565b92505081905550816002600083815260200190815260200160002060006101000a81548173ffffffffffffffffffffffffffffffffffffffff021916908373ffffffffffffffffffffffffffffffffffffffff160217905550808273ffffffffffffffffffffffffffffffffffffffff168473ffffffffffffffffffffffffffffffffffffffff167fddf252ad1be2c89b69c2b068fc378daa952ba7f163c4a11628f55a4df523b3ef60405160405180910390a46122668383836129d6565b505050565b8173ffffffffffffffffffffffffffffffffffffffff168373ffffffffffffffffffffffffffffffffffffffff1614156122da576040517f08c379a00000000000000000000000000000000000000000000000000000000081526004016122d190613c08565b60405180910390fd5b80600560008573ffffffffffffffffffffffffffffffffffffffff1673ffffffffffffffffffffffffffffffffffffffff16815260200190815260200160002060008473ffffffffffffffffffffffffffffffffffffffff1673ffffffffffffffffffffffffffffffffffffffff16815260200190815260200160002060006101000a81548160ff0219169083151502179055508173ffffffffffffffffffffffffffffffffffffffff168373ffffffffffffffffffffffffffffffffffffffff167f17307eab39ab6107e8899845ad3d59bd9653f200f220920489ca2b5937696c31836040516123cb91906139af565b60405180910390a3505050565b6123e3848484612004565b6123ef848484846129db565b61242e576040517f08c379a000000000000000000000000000000000000000000000000000000000815260040161242590613b68565b60405180910390fd5b50505050565b6060600082141561247c576040518060400160405280600181526020017f300000000000000000000000000000000000000000000000000000000000000081525090506125dc565b600082905060005b600082146124ae57808061249790614150565b915050600a826124a79190613f78565b9150612484565b60008167ffffffffffffffff8111156124f0577f4e487b7100000000000000000000000000000000000000000000000000000000600052604160045260246000fd5b6040519080825280601f01601f1916602001820160405280156125225781602001600182028036833780820191505090505b5090505b600085146125d55760018261253b9190614003565b9150600a8561254a9190614199565b60306125569190613f22565b60f81b818381518110612592577f4e487b7100000000000000000000000000000000000000000000000000000000600052603260045260246000fd5b60200101907effffffffffffffffffffffffffffffffffffffffffffffffffffffffffffff1916908160001a905350600a856125ce9190613f78565b9450612526565b8093505050505b919050565b6060600082519050600081141561260a576040518060200160405280600081525091505061279a565b6000600360028361261b9190613f22565b6126259190613f78565b60046126319190613fa9565b905060006020826126429190613f22565b67ffffffffffffffff811115612681577f4e487b7100000000000000000000000000000000000000000000000000000000600052604160045260246000fd5b6040519080825280601f01601f1916602001820160405280156126b35781602001600182028036833780820191505090505b5090506000604051806060016040528060408152602001614902604091399050600181016020830160005b868110156127575760038101905062ffffff818a015116603f8160121c168401518060081b905060ff603f83600c1c1686015116810190508060081b905060ff603f8360061c1686015116810190508060081b905060ff603f831686015116810190508060e01b905080845260048401935050506126de565b50600386066001811461277157600281146127815761278c565b613d3d60f01b600283035261278c565b603d60f81b60018303525b508484525050819450505050505b919050565b61283b848484846040516024016127b99493929190613a46565b6040516020818303038152906040527fd5cf17d0000000000000000000000000000000000000000000000000000000007bffffffffffffffffffffffffffffffffffffffffffffffffffffffff19166020820180517bffffffffffffffffffffffffffffffffffffffffffffffffffffffff83818316178352505050506129a8565b50505050565b6128d98282604051602401612857929190613afa565b6040516020818303038152906040527f9710a9d0000000000000000000000000000000000000000000000000000000007bffffffffffffffffffffffffffffffffffffffffffffffffffffffff19166020820180517bffffffffffffffffffffffffffffffffffffffffffffffffffffffff83818316178352505050506129a8565b5050565b600081600001549050919050565b612905828260405180602001604052806000815250612b72565b5050565b6129a383838360405160240161292193929190613b2a565b6040516020818303038152906040527f969cdd03000000000000000000000000000000000000000000000000000000007bffffffffffffffffffffffffffffffffffffffffffffffffffffffff19166020820180517bffffffffffffffffffffffffffffffffffffffffffffffffffffffff83818316178352505050506129a8565b505050565b60008151905060006a636f6e736f6c652e6c6f679050602083016000808483855afa5050505050565b505050565b505050565b60006129fc8473ffffffffffffffffffffffffffffffffffffffff16612bcd565b15612b65578373ffffffffffffffffffffffffffffffffffffffff1663150b7a02612a25611e65565b8786866040518563ffffffff1660e01b8152600401612a47949392919061390a565b602060405180830381600087803b158015612a6157600080fd5b505af1925050508015612a9257506040513d601f19601f82011682018060405250810190612a8f9190613173565b60015b612b15573d8060008114612ac2576040519150601f19603f3d011682016040523d82523d6000602084013e612ac7565b606091505b50600081511415612b0d576040517f08c379a0000000000000000000000000000000000000000000000000000000008152600401612b0490613b68565b60405180910390fd5b805181602001fd5b63150b7a0260e01b7bffffffffffffffffffffffffffffffffffffffffffffffffffffffff1916817bffffffffffffffffffffffffffffffffffffffffffffffffffffffff191614915050612b6a565b600190505b949350505050565b612b7c8383612bf0565b612b8960008484846129db565b612bc8576040517f08c379a0000000000000000000000000000000000000000000000000000000008152600401612bbf90613b68565b60405180910390fd5b505050565b6000808273ffffffffffffffffffffffffffffffffffffffff163b119050919050565b600073ffffffffffffffffffffffffffffffffffffffff168273ffffffffffffffffffffffffffffffffffffffff161415612c60576040517f08c379a0000000000000000000000000000000000000000000000000000000008152600401612c5790613cc8565b60405180910390fd5b612c6981611df9565b15612ca9576040517f08c379a0000000000000000000000000000000000000000000000000000000008152600401612ca090613bc8565b60405180910390fd5b612cb5600083836129d1565b6001600360008473ffffffffffffffffffffffffffffffffffffffff1673ffffffffffffffffffffffffffffffffffffffff1681526020019081526020016000206000828254612d059190613f22565b92505081905550816002600083815260200190815260200160002060006101000a81548173ffffffffffffffffffffffffffffffffffffffff021916908373ffffffffffffffffffffffffffffffffffffffff160217905550808273ffffffffffffffffffffffffffffffffffffffff16600073ffffffffffffffffffffffffffffffffffffffff167fddf252ad1be2c89b69c2b068fc378daa952ba7f163c4a11628f55a4df523b3ef60405160405180910390a4612dc6600083836129d6565b5050565b6040518060a0016040528060608152602001606081526020016000815260200160008152602001600081525090565b6040518060c001604052806000815260200160608152602001606081526020016000815260200160008152602001600081525090565b828054612e3b906140ed565b90600052602060002090601f016020900481019282612e5d5760008555612ea4565b82601f10612e7657805160ff1916838001178555612ea4565b82800160010185558215612ea4579182015b82811115612ea3578251825591602001919060010190612e88565b5b509050612eb19190612eb5565b5090565b5b80821115612ece576000816000905550600101612eb6565b5090565b6000612ee5612ee084613e64565b613e3f565b905082815260208101848484011115612efd57600080fd5b612f088482856140ab565b509392505050565b600081359050612f1f81614880565b92915050565b600081359050612f3481614897565b92915050565b600081359050612f49816148ae565b92915050565b600081519050612f5e816148ae565b92915050565b600082601f830112612f7557600080fd5b8135612f85848260208601612ed2565b91505092915050565b600081359050612f9d816148c5565b92915050565b600060208284031215612fb557600080fd5b6000612fc384828501612f10565b91505092915050565b60008060408385031215612fdf57600080fd5b6000612fed85828601612f10565b9250506020612ffe85828601612f10565b9150509250929050565b60008060006060848603121561301d57600080fd5b600061302b86828701612f10565b935050602061303c86828701612f10565b925050604061304d86828701612f8e565b9150509250925092565b6000806000806080858703121561306d57600080fd5b600061307b87828801612f10565b945050602061308c87828801612f10565b935050604061309d87828801612f8e565b925050606085013567ffffffffffffffff8111156130ba57600080fd5b6130c687828801612f64565b91505092959194509250565b600080604083850312156130e557600080fd5b60006130f385828601612f10565b925050602061310485828601612f25565b9150509250929050565b6000806040838503121561312157600080fd5b600061312f85828601612f10565b925050602061314085828601612f8e565b9150509250929050565b60006020828403121561315c57600080fd5b600061316a84828501612f3a565b91505092915050565b60006020828403121561318557600080fd5b600061319384828501612f4f565b91505092915050565b6000602082840312156131ae57600080fd5b60006131bc84828501612f8e565b91505092915050565b60006131d183836136ea565b905092915050565b6131e281614037565b82525050565b60006131f382613ea5565b6131fd8185613ed3565b93508360208202850161320f85613e95565b8060005b8581101561324b578484038952815161322c85826131c5565b945061323783613ec6565b925060208a01995050600181019050613213565b50829750879550505050505092915050565b61326681614049565b82525050565b600061327782613eb0565b6132818185613ee4565b93506132918185602086016140ba565b61329a81614286565b840191505092915050565b60006132b082613ebb565b6132ba8185613ef5565b93506132ca8185602086016140ba565b6132d381614286565b840191505092915050565b60006132e982613ebb565b6132f38185613f06565b93506133038185602086016140ba565b61330c81614286565b840191505092915050565b600061332282613ebb565b61332c8185613f17565b935061333c8185602086016140ba565b80840191505092915050565b6000613355600b83613f17565b915061336082614297565b600b82019050919050565b6000613378603283613f06565b9150613383826142c0565b604082019050919050565b600061339b602583613f06565b91506133a68261430f565b604082019050919050565b60006133be602883613f06565b91506133c98261435e565b604082019050919050565b60006133e1601c83613f06565b91506133ec826143ad565b602082019050919050565b6000613404603283613f17565b915061340f826143d6565b603282019050919050565b6000613427600e83613f17565b915061343282614425565b600e82019050919050565b600061344a602483613f06565b91506134558261444e565b604082019050919050565b600061346d601983613f06565b91506134788261449d565b602082019050919050565b6000613490602c83613f06565b915061349b826144c6565b604082019050919050565b60006134b3603883613f06565b91506134be82614515565b604082019050919050565b60006134d6602a83613f06565b91506134e182614564565b604082019050919050565b60006134f9602983613f06565b9150613504826145b3565b604082019050919050565b600061351c602d83613f06565b915061352782614602565b604082019050919050565b600061353f600483613f17565b915061354a82614651565b600482019050919050565b6000613562602083613f06565b915061356d8261467a565b602082019050919050565b6000613585602c83613f06565b9150613590826146a3565b604082019050919050565b60006135a8600a83613f17565b91506135b3826146f2565b600a82019050919050565b60006135cb602183613f06565b91506135d68261471b565b604082019050919050565b60006135ee601d83613f17565b91506135f98261476a565b601d82019050919050565b6000613611603183613f06565b915061361c82614793565b604082019050919050565b6000613634603d83613f17565b915061363f826147e2565b603d82019050919050565b6000613657602d83613f17565b915061366282614831565b602d82019050919050565b600060a083016000830151848203600086015261368a82826132a5565b915050602083015184820360208601526136a482826132a5565b91505060408301516136b9604086018261380a565b5060608301516136cc606086018261380a565b5060808301516136df608086018261380a565b508091505092915050565b600060c083016000830151613702600086018261380a565b506020830151848203602086015261371a82826132a5565b9150506040830151848203604086015261373482826132a5565b9150506060830151613749606086018261380a565b50608083015161375c608086018261380a565b5060a083015161376f60a086018261380a565b508091505092915050565b600060c083016000830151613792600086018261380a565b50602083015184820360208601526137aa82826132a5565b915050604083015184820360408601526137c482826132a5565b91505060608301516137d9606086018261380a565b5060808301516137ec608086018261380a565b5060a08301516137ff60a086018261380a565b508091505092915050565b613813816140a1565b82525050565b613822816140a1565b82525050565b60006138338261359b565b915061383f8289613317565b915061384a82613348565b91506138568288613317565b9150613861826133f7565b915061386d8287613317565b915061387882613627565b91506138848286613317565b915061388f8261341a565b915061389b8285613317565b91506138a68261364a565b91506138b28284613317565b91506138bd82613532565b9150819050979650505050505050565b60006138d8826135e1565b91506138e48284613317565b915081905092915050565b600060208201905061390460008301846131d9565b92915050565b600060808201905061391f60008301876131d9565b61392c60208301866131d9565b6139396040830185613819565b818103606083015261394b818461326c565b905095945050505050565b600060608201905061396b60008301866131d9565b6139786020830185613819565b6139856040830184613819565b949350505050565b600060208201905081810360008301526139a781846131e8565b905092915050565b60006020820190506139c4600083018461325d565b92915050565b600060208201905081810360008301526139e481846132de565b905092915050565b60006080820190508181036000830152613a0681876132de565b90508181036020830152613a1a81866132de565b9050613a296040830185613819565b8181036060830152613a3b81846132de565b905095945050505050565b60006080820190508181036000830152613a6081876132de565b90508181036020830152613a7481866132de565b9050613a836040830185613819565b613a906060830184613819565b95945050505050565b600060a0820190508181036000830152613ab381886132de565b90508181036020830152613ac781876132de565b9050613ad66040830186613819565b613ae36060830185613819565b613af06080830184613819565b9695505050505050565b60006040820190508181036000830152613b1481856132de565b9050613b236020830184613819565b9392505050565b60006060820190508181036000830152613b4481866132de565b9050613b536020830185613819565b613b606040830184613819565b949350505050565b60006020820190508181036000830152613b818161336b565b9050919050565b60006020820190508181036000830152613ba18161338e565b9050919050565b60006020820190508181036000830152613bc1816133b1565b9050919050565b60006020820190508181036000830152613be1816133d4565b9050919050565b60006020820190508181036000830152613c018161343d565b9050919050565b60006020820190508181036000830152613c2181613460565b9050919050565b60006020820190508181036000830152613c4181613483565b9050919050565b60006020820190508181036000830152613c61816134a6565b9050919050565b60006020820190508181036000830152613c81816134c9565b9050919050565b60006020820190508181036000830152613ca1816134ec565b9050919050565b60006020820190508181036000830152613cc18161350f565b9050919050565b60006020820190508181036000830152613ce181613555565b9050919050565b60006020820190508181036000830152613d0181613578565b9050919050565b60006020820190508181036000830152613d21816135be565b9050919050565b60006020820190508181036000830152613d4181613604565b9050919050565b60006020820190508181036000830152613d62818461366d565b905092915050565b60006020820190508181036000830152613d84818461377a565b905092915050565b6000602082019050613da16000830184613819565b92915050565b600060c082019050613dbc6000830189613819565b8181036020830152613dce81886132de565b90508181036040830152613de281876132de565b9050613df16060830186613819565b613dfe6080830185613819565b613e0b60a0830184613819565b979650505050505050565b6000604082019050613e2b6000830185613819565b613e386020830184613819565b9392505050565b6000613e49613e5a565b9050613e55828261411f565b919050565b6000604051905090565b600067ffffffffffffffff821115613e7f57613e7e614257565b5b613e8882614286565b9050602081019050919050565b6000819050602082019050919050565b600081519050919050565b600081519050919050565b600081519050919050565b6000602082019050919050565b600082825260208201905092915050565b600082825260208201905092915050565b600082825260208201905092915050565b600082825260208201905092915050565b600081905092915050565b6000613f2d826140a1565b9150613f38836140a1565b9250827fffffffffffffffffffffffffffffffffffffffffffffffffffffffffffffffff03821115613f6d57613f6c6141ca565b5b828201905092915050565b6000613f83826140a1565b9150613f8e836140a1565b925082613f9e57613f9d6141f9565b5b828204905092915050565b6000613fb4826140a1565b9150613fbf836140a1565b9250817fffffffffffffffffffffffffffffffffffffffffffffffffffffffffffffffff0483118215151615613ff857613ff76141ca565b5b828202905092915050565b600061400e826140a1565b9150614019836140a1565b92508282101561402c5761402b6141ca565b5b828203905092915050565b600061404282614081565b9050919050565b60008115159050919050565b60007fffffffff0000000000000000000000000000000000000000000000000000000082169050919050565b600073ffffffffffffffffffffffffffffffffffffffff82169050919050565b6000819050919050565b82818337600083830152505050565b60005b838110156140d85780820151818401526020810190506140bd565b838111156140e7576000848401525b50505050565b6000600282049050600182168061410557607f821691505b6020821081141561411957614118614228565b5b50919050565b61412882614286565b810181811067ffffffffffffffff8211171561414757614146614257565b5b80604052505050565b600061415b826140a1565b91507fffffffffffffffffffffffffffffffffffffffffffffffffffffffffffffffff82141561418e5761418d6141ca565b5b600182019050919050565b60006141a4826140a1565b91506141af836140a1565b9250826141bf576141be6141f9565b5b828206905092915050565b7f4e487b7100000000000000000000000000000000000000000000000000000000600052601160045260246000fd5b7f4e487b7100000000000000000000000000000000000000000000000000000000600052601260045260246000fd5b7f4e487b7100000000000000000000000000000000000000000000000000000000600052602260045260246000fd5b7f4e487b7100000000000000000000000000000000000000000000000000000000600052604160045260246000fd5b6000601f19601f8301169050919050565b7f202d2d204e465420233a20000000000000000000000000000000000000000000600082015250565b7f4552433732313a207472616e7366657220746f206e6f6e20455243373231526560008201527f63656976657220696d706c656d656e7465720000000000000000000000000000602082015250565b7f4552433732313a207472616e736665722066726f6d20696e636f72726563742060008201527f6f776e6572000000000000000000000000000000000000000000000000000000602082015250565b7f4572726f723a20626f7373206d757374206861766520485020746f206174746160008201527f636b20626f73732e000000000000000000000000000000000000000000000000602082015250565b7f4552433732313a20746f6b656e20616c7265616479206d696e74656400000000600082015250565b7f222c20226465736372697074696f6e223a2022416e2065706963204e4654222c60008201527f2022696d616765223a2022697066733a2f2f0000000000000000000000000000602082015250565b7f2c20226d61785f76616c7565223a000000000000000000000000000000000000600082015250565b7f4552433732313a207472616e7366657220746f20746865207a65726f2061646460008201527f7265737300000000000000000000000000000000000000000000000000000000602082015250565b7f4552433732313a20617070726f766520746f2063616c6c657200000000000000600082015250565b7f4552433732313a206f70657261746f7220717565727920666f72206e6f6e657860008201527f697374656e7420746f6b656e0000000000000000000000000000000000000000602082015250565b7f4552433732313a20617070726f76652063616c6c6572206973206e6f74206f7760008201527f6e6572206e6f7220617070726f76656420666f7220616c6c0000000000000000602082015250565b7f4552433732313a2062616c616e636520717565727920666f7220746865207a6560008201527f726f206164647265737300000000000000000000000000000000000000000000602082015250565b7f4552433732313a206f776e657220717565727920666f72206e6f6e657869737460008201527f656e7420746f6b656e0000000000000000000000000000000000000000000000602082015250565b7f4572726f723a20636861726163746572206d757374206861766520485020746f60008201527f2061747461636b20626f73732e00000000000000000000000000000000000000602082015250565b7f7d205d7d00000000000000000000000000000000000000000000000000000000600082015250565b7f4552433732313a206d696e7420746f20746865207a65726f2061646472657373600082015250565b7f4552433732313a20617070726f76656420717565727920666f72206e6f6e657860008201527f697374656e7420746f6b656e0000000000000000000000000000000000000000602082015250565b7f7b226e616d65223a202200000000000000000000000000000000000000000000600082015250565b7f4552433732313a20617070726f76616c20746f2063757272656e74206f776e6560008201527f7200000000000000000000000000000000000000000000000000000000000000602082015250565b7f646174613a6170706c69636174696f6e2f6a736f6e3b6261736536342c000000600082015250565b7f4552433732313a207472616e736665722063616c6c6572206973206e6f74206f60008201527f776e6572206e6f7220617070726f766564000000000000000000000000000000602082015250565b7f222c202261747472696275746573223a205b207b202274726169745f7479706560008201527f223a20224865616c746820506f696e7473222c202276616c7565223a20000000602082015250565b7f7d2c207b202274726169745f74797065223a202241747461636b2044616d616760008201527f65222c202276616c7565223a2000000000000000000000000000000000000000602082015250565b61488981614037565b811461489457600080fd5b50565b6148a081614049565b81146148ab57600080fd5b50565b6148b781614055565b81146148c257600080fd5b50565b6148ce816140a1565b81146148d957600080fd5b5056fe506c617965722061747461636b656420626f73732e204e657720626f73732068703a2025734142434445464748494a4b4c4d4e4f505152535455565758595a6162636465666768696a6b6c6d6e6f707172737475767778797a303132333435363738392b2f426f73732061747461636b656420706c617965722e204e657720706c617965722068703a2025730a4d696e746564204e465420772f20746f6b656e496420257320616e6420636861726163746572496e6465782025730a506c6179657220772f206368617261637465722025732061626f757420746f2061747461636b2e2048617320257320485020616e64202573204144a2646970667358221220acb5c8c47c390b927fc8573d078af85c41adc95cc85a505f7d7ddccbfcc9627c64736f6c63430008040033446f6e6520696e697469616c697a696e6720257320772f2048502025732c20696d67202573446f6e6520696e697469616c697a696e6720626f737320257320772f2048502025732c20696d67202573",
  "linkReferences": {},
  "deployedLinkReferences": {}
}